S00A00006F732E7372656338
S11300000C9440000C9468000C9468000C946800F4
S11300100C9468000C9468000C9468000C946800BC
S11300200C9468000C9468000C9468000C946800AC
S11300300C9468000C9468000C9468000C9468009C
S11300400C9468000C9468000C9468000C9468008C
S11300500C9468000C9468000C9468000C9468007C
S11300600C9468000C9468000C9468000C9468006C
S11300700C9468000C9468000C946800E50F11104F
S113008011241FBECFEFD0E1DEBFCDBF11E0A0E051
S1130090B1E0EAE8F0E202C005900D92A030B107A9
S11300A0D9F722E0A0E0B1E001C01D92AF33B2075E
S11300B0E1F710E0CFE3D0E004C02197FE010E94F5
S11300C03210CE33D107C9F70E94CC0F0C943810EC
S11300D00C940000CF93DF93FC01E15FFE4F2FEF00
S11300E03FE131832083329610821182128213827F
S11300F07297BC01695F7E4F9C0122503F4FDB0128
S11301002D933C93EC01C75FDE4FF983E883269778
S11301102250310939832883275F3F4FAC01435074
S11301205F4FD9014D935C932B5031093183208368
S1130130295F3F4F42505109D9014D935C932C5E86
S11301403F4FD901ED93FC937896D183C0833296C7
S113015071836083DF91CF910895CF92DF92EF9204
S1130160FF92CF93DF936A017B01EC01C55FDE4F01
S1130170888199810E943A0F21E0280FB701A601D6
S1130180888199810E94220FDF91CF91FF90EF9097
S1130190DF90CF900895CF92DF92EF92FF92CF93AA
S11301A0DF936A017B01EC01C55FDE4F8881998191
S11301B00E943A0F2FEF280FB701A6018881998179
S11301C00E94220FDF91CF91FF90EF90DF90CF90AC
S11301D008951F93CF93DF93EC01162FBA01A90161
S11301E0FC01E55FFE4F808191810E943A0FC10FAF
S11301F0D11D8883DF91CF911F910895FC01E150B7
S1130200FF4FA281B3812C9130E0322F222701903D
S1130210F081E02D4081242B032E000C440B550B60
S11302200E94E9000895FC01ED5FFE4FA281B381B5
S11302302C9130E0322F22270190F081E02D408173
S1130240242B032E000C440B550B0E94E900089547
S1130250FC01E95FFE4FA281B3812C9130E0322F83
S113026022270190F081E02D4081242B032E000CE5
S1130270440B550B0E94E9000895FC01E60FF11DA3
S1130280DC01AF5FBE4F0D90BC91A02D4C9150E0AE
S113029060E070E0762F652F542F4427DC01A150D5
S11302A0BF4F0D90BC91A02D2C91422BDC01A55F7A
S11302B0BE4F20818D919C910E94220F0895FC01D4
S11302C0E60FF11DDC01AB5FBE4F0D90BC91A02D7C
S11302D04C9150E060E070E0762F652F542F442756
S11302E0DC01AD5FBE4F0D90BC91A02D2C91422B33
S11302F0DC01A55FBE4F20818D919C910E94220F4D
S11303000895FC01E60FF11DDC01A75FBE4F0D90BF
S1130310BC91A02D4C9150E060E070E0762F652FE9
S1130320542F4427DC01A95FBE4F0D90BC91A02D32
S11303302C91422BDC01A55FBE4F20818D919C91B5
S11303400E94220F0895855F9E4FFC018081918158
S11303500E94220F0895835F9E4FFC01808191814A
S11303600E94220F0895262FFC01E150FF4FA28125
S1130370B3814C9150E0542F44270190F081E02D3B
S11303803081432B052E000C660B770BFC01E35FD9
S1130390FE4F808191810E94220F0895262FFC0137
S11303A0ED5FFE4FA281B3814C9150E0542F44275E
S11303B00190F081E02D3081432B052E000C660B5B
S11303C0770BFC01E35FFE4F808191810E94220F35
S11303D00895262FFC01E95FFE4FA281B3814C9161
S11303E050E0542F44270190F081E02D3081432BBD
S11303F0052E000C660B770BFC01E35FFE4F80813A
S113040091810E94220F0895CF93DF93DC01A15FB5
S1130410BE4FFC01E150FF4FC281D3819881892FE7
S113042090E0982F88270190F081E02D2081822B85
S11304308D939C93DF91CF910895FC01E150FF4F80
S1130440A281B3814C9150E0542F44270190F08154
S1130450E02D2081422B052E000C660B770BFC014E
S1130460ED5FFE4FA281B3815C930190F081E02D9A
S113047040830895FC01E150FF4FA281B3814C9168
S113048050E0542F44270190F081E02D2081422B2D
S1130490052E000C660B770BFC01E95FFE4FA28171
S11304A0B3815C930190F081E02D40830895CF9354
S11304B0DF93DC01A15FBE4FFC01ED5FFE4FC28103
S11304C0D3819881892F90E0982F88270190F0811B
S11304D0E02D2081822B8D939C93DF91CF91089501
S11304E0FC01ED5FFE4FA281B3814C9150E0542F8B
S11304F044270190F081E02D2081422B052E000C31
S1130500660B770BFC01E150FF4FA281B3815C9332
S11305100190F081E02D40830895FC01ED5FFE4FD2
S1130520A281B3814C9150E0542F44270190F08173
S1130530E02D2081422B052E000C660B770BFC016D
S1130540E95FFE4FA281B3815C930190F081E02DBD
S113055040830895CF93DF93DC01A15FBE4FFC017C
S1130560E95FFE4FC281D3819881892F90E0982F53
S113057088270190F081E02D2081822B8D939C931C
S1130580DF91CF910895FC01E95FFE4FA281B38111
S11305904C9150E0542F44270190F081E02D2081AC
S11305A0422B052E000C660B770BFC01E150FF4F2C
S11305B0A281B3815C930190F081E02D4083089582
S11305C0FC01E95FFE4FA281B3814C9150E0542FAE
S11305D044270190F081E02D2081422B052E000C50
S11305E0660B770BFC01ED5FFE4FA281B3815C9338
S11305F00190F081E02D40830895FC01E15FFE4FFE
S1130600208131817097A281B381A9015C9301900B
S1130610F081E02D20830895FC01E15FFE4F2081ED
S113062031813C97A281B381A9015C930190F0814F
S1130630E02D20830895FC01E15FFE4F208131818C
S11306403897A281B381A9015C930190F081E02DD8
S113065020830895641307C0FC01E55EFE4F80818A
S1130660886180830895461730F4FC01E55EFE4FEF
S1130670208122602083641730F4FC01E55EFE4F84
S11306808081846080830895641307C0FC01E55E63
S1130690FE4F8081886180830895461730F4FC0101
S11306A0E55EFE4F208122602083641730F4FC0154
S11306B0E55EFE4F80818460808308951F93CF930D
S11306C0DF93EC01162FBA01A901FC01E55FFE4F8F
S11306D0808191810E943A0F811306C0C55EDE4F6E
S11306E08881886188830FC0811730F4FE01E55E3C
S11306F0FE4F908192609083181728F4C55EDE4FF8
S1130700888184608883DF91CF911F9108958F92AF
S11307109F92AF92BF92EF92FF920F931F93CF934A
S1130720DF93EC01480159017C0185EFE81A8EEF53
S1130730F80AF701808191810E943A0F182FB501C0
S1130740A401F701808191810E943A0F181306C019
S1130750C55EDE4F8881886188830FC0811730F4BD
S1130760FE01E55EFE4F908192609083181728F495
S1130770C55EDE4F888184608883DF91CF911F91AD
S11307800F91FF90EF90BF90AF909F908F9008953E
S1130790FC01E55EFE4F208123FF05C03A974083AC
S11307A05183628373830895FC01E55EFE4F2081CB
S11307B023FF0DC03A9780819181A281B381480FB4
S11307C0591F6A1F7B1F408351836283738308957B
S11307D0FC01E55EFE4F208123FF0DC03A97808126
S11307E09181A281B381841B950BA60BB70B8083E7
S11307F09183A283B3830895FC01E55EFE4F2081BB
S113080030E0F901F595E795F595E795F595E795C8
S1130810E0FD12C0F901F595E795E0FD06C03595B8
S113082027953595279520FF07C0FC01EF5EFE4F05
S113083040835183628373830895FC01E55EFE4F18
S1130840208130E0F901F595E795F595E795F59563
S1130850E795E0FD1AC0F901F595E795E0FD06C0BE
S1130860359527953595279520FF0FC0FC01EF5E40
S1130870FE4F80819181A281B381480F591F6A1F65
S11308807B1F40835183628373830895FC01E55E7B
S1130890FE4F208130E0F901F595E795F595E79550
S11308A0F595E795E0FD1AC0F901F595E795E0FDAA
S11308B006C0359527953595279520FF0FC0FC0177
S11308C0EF5EFE4F80819181A281B381841B950BE1
S11308D0A60BB70B80839183A283B3830895FC0195
S11308E0E55EFE4F208130E0F901F595E795F59539
S11308F0E795F595E795359527952E2B3F2B20FF0A
S113090007C0FC01EF5EFE4F408351836283738313
S11309100895FC01E55EFE4F208130E0F901F59574
S1130920E795F595E795F595E795359527952E2B5C
S11309303F2B20FF0FC0FC01EF5EFE4F80819181B1
S1130940A281B381480F591F6A1F7B1F40835183C3
S1130950628373830895FC01E55EFE4F208130E0DD
S1130960F901F595E795F595E795F595E7953595AD
S113097027952E2B3F2B20FF0FC0FC01EF5EFE4F6F
S113098080819181A281B381841B950BA60BB70B47
S113099080839183A283B3830895FC01E55EFE4FB7
S11309A0208130E0F901F595E795F595E795F59502
S11309B0E79535952795359527952E2B3F2B20FFC9
S11309C007C0FC01EF5EFE4F408351836283738353
S11309D00895FC01E55EFE4F208130E0F901F595B4
S11309E0E795F595E795F595E7953595279535952B
S11309F027952E2B3F2B20FF0FC0FC01EF5EFE4FEF
S1130A0080819181A281B381480F591F6A1F7B1F86
S1130A1040835183628373830895FC01E55EFE4F36
S1130A20208130E0F901F595E795F595E795F59581
S1130A30E79535952795359527952E2B3F2B20FF48
S1130A400FC0FC01EF5EFE4F80819181A281B381D2
S1130A50841B950BA60BB70B80839183A283B3836E
S1130A600895FC01E55EFE4F208130E0F901F59523
S1130A70E795F595E795F595E795E0FD0BC0359578
S1130A80279520FF07C0FC01EF5EFE4F4083518392
S1130A90628373830895FC01E55EFE4F208130E09C
S1130AA0F901F595E795F595E795F595E795E0FD59
S1130AB013C03595279520FF0FC0FC01EF5EFE4F54
S1130AC080819181A281B381480F591F6A1F7B1FC6
S1130AD040835183628373830895FC01E55EFE4F76
S1130AE0208130E0F901F595E795F595E795F595C1
S1130AF0E795E0FD13C03595279520FF0FC0FC0155
S1130B00EF5EFE4F80819181A281B381841B950B9E
S1130B10A60BB70B80839183A283B3830895FC0152
S1130B20E55EFE4F208130E0F901F595E795F595F6
S1130B30E795F595E795E0FD0DC035952795359535
S1130B40279520FF07C0FC01EF5EFE4F40835183D1
S1130B50628373830895FC01E55EFE4F208130E0DB
S1130B60F901F595E795F595E795F595E795E0FD98
S1130B7015C0359527953595279520FF0FC0FC01A5
S1130B80EF5EFE4F80819181A281B381480F591F8E
S1130B906A1F7B1F40835183628373830895FC0122
S1130BA0E55EFE4F208130E0F901F595E795F59576
S1130BB0E795F595E795E0FD15C0359527953595AD
S1130BC0279520FF0FC0FC01EF5EFE4F80819181CD
S1130BD0A281B381841B950BA60BB70B80839183F1
S1130BE0A283B3830895CF93DF93FC01E60FF11D35
S1130BF0EC01C15FDE4F4881598160E070E0DC01A7
S1130C00A55FBE4F20818D919C910E94220F888107
S1130C109981019799838883DF91CF910895CF9229
S1130C20DF92EF92FF92CF93DF93EC016A017B0195
S1130C30FC01E15FFE4F60810E94F305CF5EDE4F51
S1130C40C882D982EA82FB82DF91CF91FF90EF9034
S1130C50DF90CF900895CF93DF93262FEC01C15FEF
S1130C60DE4F4881598160E070E0FC01E55FFE4F92
S1130C70808191810E94220F8881998101979983B3
S1130C808883DF91CF910895CF93DF93EC01C15F07
S1130C90DE4F4881598160E070E0FC01E55FFE4F62
S1130CA0808191810E943A0F288139812F5F3F4FC3
S1130CB039832883DF91CF9108951F93CF93DF93D6
S1130CC0EC01162F0E944406C10FD11D8883DF91C9
S1130CD0CF911F910895FC01E60FF11D908192952B
S1130CE090830895FC01608161110DC0818190E0C1
S1130CF0E9EFF0E03197F1F700C000000197181612
S1130D001906B4F32FC0613081F48181882319F06E
S1130D109281911104C081E0838360E023C0899FA4
S1130D20802D1124838360E01DC0623071F46281E0
S1130D30611104C0138281E0848314C081810E9404
S1130D4026108383148260E00DC08DEF860F8330FC
S1130D5030F06F3F31F481E0818365E603C062E6E1
S1130D6001C060E0862F08951F93CF93DF93EC01B9
S1130D700E944406CE010E944406CE010E9444060D
S1130D80CE010E944406CE010E944406182FCE01D3
S1130D900E944406CF5EDE4F212F30E0322F2227FF
S1130DA0A901482BCA01092E000CAA0BBB0B88838E
S1130DB09983AA83BB83DF91CF911F9108954F92AA
S1130DC05F926F927F92AF92BF92CF92DF92EF9237
S1130DD0FF920F931F93CF93DF936C01EC01CF5ECF
S1130DE0DE4F7C0105EFE01A0EEFF00A5C0115EE10
S1130DF0A11A1EEFB10A488159816A817B81F701EA
S1130E00808191810E943A0F81110AC0C6010E941B
S1130E107206823609F459C7853609F041C74CC7B2
S1130E208130D9F4488159816A817B81F7018081BD
S1130E3091810E943A0FF601E80FF11D80818F5FC6
S1130E40808388819981AA81BB810196A11DB11DEE
S1130E5088839983AA83BB8323C78230F1F44881B2
S1130E6059816A817B814F5F5F4F6F4F7F4FF701DD
S1130E70808191810E94480FAB01BC01C6010E9490
S1130E80AD0088819981AA81BB810496A11DB11D01
S1130E9088839983AA83BB8303C78330F9F4488189
S1130EA059816A817B814F5F5F4F6F4F7F4FF7019D
S1130EB0808191810E943A0FF601E80FF11D808133
S1130EC08150808388819981AA81BB810196A11D6B
S1130ED0B11D88839983AA83BB83E2C68430F1F46D
S1130EE0488159816A817B814F5F5F4F6F4F7F4F8C
S1130EF0F701808191810E94480FAB01BC01C601BA
S1130F000E94CB0088819981AA81BB810496A11D8E
S1130F10B11D88839983AA83BB83C2C6853079F5C2
S1130F20488159816A817B814F5F5F4F6F4F7F4F4B
S1130F30F701808191810E943A0F182F48815981CD
S1130F406A817B814E5F5F4F6F4F7F4FF7018081D6
S1130F5091810E943A0FF601E80FF11D8081F6019C
S1130F60E10FF11D808388819981AA81BB8102965A
S1130F70A11DB11D88839983AA83BB8391C6863042
S1130F8069F5488159816A817B814F5F5F4F6F4F5B
S1130F907F4FF701808191810E943A0F182F488179
S1130FA059816A817B814E5F5F4F6F4F7F4FF7019D
S1130FB0808191810E94480F9B01AC01612FC60181
S1130FC00E94E90088819981AA81BB810596A11DAF
S1130FD0B11D88839983AA83BB8362C6873059F580
S1130FE0488159816A817B814F5F5F4F6F4F7F4F8B
S1130FF0F701808191810E943A0F182F488159810D
S11310006A817B814E5F5F4F6F4F7F4FF701808115
S113101091810E943A0FF601E10FF11D80838881CE
S11310209981AA81BB810296A11DB11D88839983F0
S1131030AA83BB8335C68830E9F4488159816A8123
S11310407B814F5F5F4F6F4F7F4FF70180819181AD
S11310500E943A0F682FC6010E943D018881998140
S1131060AA81BB810196A11DB11D88839983AA839E
S1131070BB8316C68930E9F4488159816A817B8132
S11310804F5F5F4F6F4F7F4FF701808191810E94C7
S11310903A0F682FC6010E945F0188819981AA8155
S11310A0BB810196A11DB11D88839983AA83BB834B
S11310B0F7C58A30E9F4488159816A817B814F5FA1
S11310C05F4F6F4F7F4FF701808191810E943A0FEC
S11310D0682FC6010E94810188819981AA81BB8100
S11310E00196A11DB11D88839983AA83BB83D8C5AA
S11310F08B3071F5488159816A817B814F5F5F4FE5
S11311006F4F7F4FF701808191810E94480F2B011F
S11311103C01488159816A817B814B5F5F4F6F4FEE
S11311207F4FF701808191810E943A0F282FB301EC
S1131130A201C6010E94A30188819981AA81BB8171
S11311400596A11DB11D88839983AA83BB83A8C575
S11311508C3071F5488159816A817B814F5F5F4F83
S11311606F4F7F4FF701808191810E94480F2B01BF
S11311703C01488159816A817B814B5F5F4F6F4F8E
S11311807F4FF701808191810E943A0F282FB3018C
S1131190A201C6010E94AB0188819981AA81BB8109
S11311A00596A11DB11D88839983AA83BB8378C545
S11311B08D30E9F4488159816A817B814F5F5F4FAB
S11311C06F4F7F4FF701808191810E943A0F682F02
S11311D0C6010E94B30188819981AA81BB810196CD
S11311E0A11DB11D88839983AA83BB8359C58E3001
S11311F0E9F4488159816A817B814F5F5F4F6F4F6A
S11312007F4FF701808191810E943A0F682FC601B8
S11312100E94CE0188819981AA81BB810196A11D7A
S1131220B11D88839983AA83BB833AC58F30E9F4BF
S1131230488159816A817B814F5F5F4F6F4F7F4F38
S1131240F701808191810E943A0F682FC6010E94A4
S1131250E90188819981AA81BB810196A11DB11DF3
S113126088839983AA83BB831BC5803121F4C6017B
S11312700E94040215C5813121F4C6010E941D0299
S11312800FC5823121F4C6010E943A0209C5833197
S113129021F4C6010E94570203C5843121F4C6011A
S11312A00E947002FDC4853121F4C6010E948D02A2
S11312B0F7C4863121F4C6010E94AA02F1C4873121
S11312C021F4C6010E94C302EBC4883121F4C60193
S11312D00E94E002E5C4893121F4C6010E94FD02A6
S11312E0DFC48A3121F4C6010E940C03D9C48B31B6
S11312F021F4C6010E941B03D3C48C3161F54881DB
S113130059816A817B814F5F5F4F6F4F7F4FF70138
S1131310808191810E943A0F182F488159816A81F6
S11313207B814E5F5F4F6F4F7F4FF70180819181CB
S11313300E943A0F482F612FC6010E942A03888118
S11313409981AA81BB810296A11DB11D88839983CD
S1131350AA83BB83A5C48D3161F5488159816A8113
S11313607B814F5F5F4F6F4F7F4FF701808191818A
S11313700E943A0F182F488159816A817B814E5F00
S11313805F4F6F4F7F4FF701808191810E943A0F29
S1131390482F612FC6010E94440388819981AA8144
S11313A0BB810296A11DB11D88839983AA83BB8347
S11313B077C48E3109F5488159816A817B814F5FF9
S11313C05F4F6F4F7F4FF701808191810E943A0FE9
S11313D0F601E80FF11D808190E095958795808353
S11313E088819981AA81BB810196A11DB11D888341
S11313F09983AA83BB8354C48F31F9F448815981FA
S11314006A817B814F5F5F4F6F4F7F4FF701808110
S113141091810E943A0FF601E80FF11D8081880F37
S1131420808388819981AA81BB810196A11DB11D08
S113143088839983AA83BB8333C48032D1F44881DF
S113144059816A817B81F701808191810E94480FD3
S1131450AB01BC01C6010E94C80388819981AA819D
S1131460BB810496A11DB11D88839983AA83BB8384
S113147017C4813211F5488159816A817B81F70152
S1131480808191810E94480F488059806A807B80C6
S1131490AB01BC01440D551D661D771DC6010E949C
S11314A0D40388819981AA81BB810496A11DB11DB1
S11314B088839983AA83BB83F3C3823221F548814D
S11314C059816A817B81F701808191810E94480F53
S11314D0488059806A807B8093018201061B170B28
S11314E0280B390BB901A801C6010E94E8038881C1
S11314F09981AA81BB810496A11DB11D888399831A
S1131500AA83BB83CDC38332D1F4488159816A81D4
S11315107B81F701808191810E94480FAB01BC015E
S1131520C6010E94FC0388819981AA81BB8104962B
S1131530A11DB11D88839983AA83BB83B1C384325F
S113154011F5488159816A817B81F70180819181FC
S11315500E94480F488059806A807B80AB01BC019F
S1131560440D551D661D771DC6010E941D0488810A
S11315709981AA81BB810496A11DB11D8883998399
S1131580AA83BB838DC3853221F5488159816A8141
S11315907B81F701808191810E94480F48805980A6
S11315A06A807B8093018201061B170B280B390B81
S11315B0B901A801C6010E94460488819981AA81C3
S11315C0BB810496A11DB11D88839983AA83BB8323
S11315D067C38632D1F4488159816A817B81F701DE
S11315E0808191810E94480FAB01BC01C6010E9419
S11315F06F0488819981AA81BB810496A11DB11DC4
S113160088839983AA83BB834BC3873211F54881AE
S113161059816A817B81F701808191810E94480F01
S1131620488059806A807B80AB01BC01440D551D04
S1131630661D771DC6010E94890488819981AA814B
S1131640BB810496A11DB11D88839983AA83BB83A2
S113165027C3883221F5488159816A817B81F7014A
S1131660808191810E94480F488059806A807B80E4
S113167093018201061B170B280B390BB901A80132
S1131680C6010E94AB0488819981AA81BB8104961A
S1131690A11DB11D88839983AA83BB8301C38932A9
S11316A0D1F4488159816A817B81F70180819181DC
S11316B00E94480FAB01BC01C6010E94CD04888181
S11316C09981AA81BB810496A11DB11D8883998348
S11316D0AA83BB83E5C28A3211F5488159816A81A4
S11316E07B81F701808191810E94480F4880598055
S11316F06A807B80AB01BC01440D551D661D771DBE
S1131700C6010E94E90488819981AA81BB8104965B
S1131710A11DB11D88839983AA83BB83C1C28B3267
S113172021F5488159816A817B81F701808191810A
S11317300E94480F488059806A807B80930182010F
S1131740061B170B280B390BB901A801C6010E940F
S11317500D0588819981AA81BB810496A11DB11DC3
S113176088839983AA83BB839BC28C32D1F448813A
S113177059816A817B81F701808191810E94480FA0
S1131780AB01BC01C6010E94310588819981AA81FF
S1131790BB810496A11DB11D88839983AA83BB8351
S11317A07FC28D3211F5488159816A817B81F701AD
S11317B0808191810E94480F488059806A807B8093
S11317C0AB01BC01440D551D661D771DC6010E9469
S11317D04B0588819981AA81BB810496A11DB11D05
S11317E088839983AA83BB835BC28E3221F54881A7
S11317F059816A817B81F701808191810E94480F20
S1131800488059806A807B8093018201061B170BF4
S1131810280B390BB901A801C6010E946D05888106
S11318209981AA81BB810496A11DB11D88839983E6
S1131830AA83BB8335C28F32D1F4488159816A812E
S11318407B81F701808191810E94480FAB01BC012B
S1131850C6010E948F0588819981AA81BB81049663
S1131860A11DB11D88839983AA83BB8319C28033C8
S113187011F5488159816A817B81F70180819181C9
S11318800E94480F488059806A807B80AB01BC016C
S1131890440D551D661D771DC6010E94AB05888148
S11318A09981AA81BB810496A11DB11D8883998366
S11318B0AA83BB83F5C1813321F5488159816A81AB
S11318C07B81F701808191810E94480F4880598073
S11318D06A807B8093018201061B170B280B390B4E
S11318E0B901A801C6010E94CF0588819981AA8106
S11318F0BB810496A11DB11D88839983AA83BB83F0
S1131900CFC18233E9F4488159816A817B814F5F79
S11319105F4F6F4F7F4FF701808191810E943A0F93
S1131920F601E80FF11D108288819981AA81BB819B
S11319300196A11DB11D88839983AA83BB83B0C17D
S1131940833319F4F5011082ABC18433E9F448817F
S113195059816A817B814F5F5F4F6F4F7F4FF701E2
S1131960808191810E943A0F682FC6010E946B0604
S113197088819981AA81BB810196A11DB11D8883AB
S11319809983AA83BB838CC18533E9F44881598147
S11319906A817B814F5F5F4F6F4F7F4FF70180817B
S11319A091810E943A0F682FC6010E945D068881CA
S11319B09981AA81BB810196A11DB11D8883998358
S11319C0AA83BB836DC18633E9F4488159816A8156
S11319D07B814F5F5F4F6F4F7F4FF7018081918114
S11319E00E943A0F682FC6010E94F30588819981ED
S11319F0AA81BB810196A11DB11D88839983AA8305
S1131A00BB834EC18733B1F5488159816A817B819B
S1131A104F5F5F4F6F4F7F4FF701808191810E942D
S1131A203A0FE82FF0E0EE0FFF1FEC0DFD1DEB5E0B
S1131A30FE4F0190F081E02DA281B3816C9170E0A2
S1131A40762F66270190F081E02D8081682B072E88
S1131A50000C880B990BC6010E94F30588819981BB
S1131A60AA81BB810196A11DB11D88839983AA8394
S1131A70BB8316C18833E9F4488159816A817B812B
S1131A804F5F5F4F6F4F7F4FF701808191810E94BD
S1131A903A0F682FC6010E942B0688819981AA817A
S1131AA0BB810196A11DB11D88839983AA83BB8341
S1131AB0F7C08933E9F4488159816A817B814F5F9A
S1131AC05F4F6F4F7F4FF701808191810E943A0FE2
S1131AD0682FC6010E94FE0088819981AA81BB817A
S1131AE00196A11DB11D88839983AA83BB83D8C0A5
S1131AF08A33E9F4488159816A817B814F5F5F4F62
S1131B006F4F7F4FF701808191810E943A0F682FB8
S1131B10C6010E94130188819981AA81BB81019623
S1131B20A11DB11D88839983AA83BB83B9C08B335C
S1131B30E9F4488159816A817B814F5F5F4F6F4F20
S1131B407F4FF701808191810E943A0F682FC6016F
S1131B500E94280188819981AA81BB810196A11DD7
S1131B60B11D88839983AA83BB839AC08C3321F4E3
S1131B70C6010E94B40694C08D3399F448815981FA
S1131B806A817B81F701808191810E94480FDC0189
S1131B90CB010496A11DB11D88839983AA83BB83BD
S1131BA07FC08E33D1F4488159816A817B81F701EA
S1131BB0808191810E94480FAB01BC01C6010E9443
S1131BC00F0688819981AA81BB810496A11DB11D4C
S1131BD088839983AA83BB8363C08F3369F5488163
S1131BE059816A817B814F5F5F4F6F4F7F4FF70150
S1131BF0808191810E943A0F182F488159816A810E
S1131C007B814E5F5F4F6F4F7F4FF70180819181E2
S1131C100E94480F9B01AC01612FC6010E945E0324
S1131C2088819981AA81BB810596A11DB11D8883F4
S1131C309983AA83BB8334C0803479F54881598160
S1131C406A817B814F5F5F4F6F4F7F4FF7018081C8
S1131C5091810E94480F2B013C01488159816A817E
S1131C607B814B5F5F4F6F4F7F4FF7018081918185
S1131C700E94480F8B019C01B301A201C6010E947E
S1131C80870388819981AA81BB810896A11DB11D12
S1131C9088839983AA83BB8303C08F3F09F4000020
S1131CA088819981AA81BB810196A11DB11D888378
S1131CB09983AA83BB839FC8F601EF5EFE4F10820F
S1131CC011821282138285E601C082E6DF91CF91F0
S1131CD01F910F91FF90EF90DF90CF90BF90AF9046
S1131CE07F906F905F904F9008950895089589B103
S1131CF0089568B9089561B9089564B9089567B9F4
S1131D0008956AB90895442359F022B181E090E01E
S1131D1002C0880F991F6A95E2F7822B82B9089551
S1131D2022B181E090E002C0880F991F6A95E2F722
S1131D308095822382B908959C019FEF960F983075
S1131D4028F4692FC9010E94830E089582EF860F3B
S1131D50883028F46D50C9010E94830E08958AEEDC
S1131D60860F883028F46551C9010E94830E0895B6
S1131D708FED860F883020F46052C9010E94830ED3
S1131D80089508950F931F93FC0160834183228378
S1131D901487038713821482158216821782108691
S1131DA0118612861F910F910895CF92DF92EF92C0
S1131DB0FF920F931F93CF93DF93EC016A017B0192
S1131DC00FE110E0D701C601002E04C0B695A79517
S1131DD0979587950A94D2F70197A105B10539F42F
S1131DE041E068818B859C850E949C0E06C040E082
S1131DF068818B859C850E949C0E41E069818B855E
S1131E009C850E949C0E40E069818B859C850E9484
S1131E109C0E01501109B0F641E06A818B859C85C6
S1131E200E949C0E40E06A818B859C850E949C0EDA
S1131E30DF91CF911F910F91FF90EF90DF90CF90A2
S1131E40089508951F93CF93DF93EC01122F8A8195
S1131E509B810E94D50E612F888199810E94790E01
S1131E6041E06885888199810E949C0EDF91CF9121
S1131E701F910895CF93DF93EC018A819B810E9487
S1131E80D50E888199810E94770EDF91CF910895B4
S1131E904F925F926F927F928F929F92AF92BF9276
S1131EA0CF92DF92FF920F931F93CF93DF93EC01B6
S1131EB04A015B012A013B0183E0480E511C611C6D
S1131EC0711CB301A2018A819B810E94D50EB301CA
S1131ED0A201CE010E943A0FF82E2401350182E0BE
S1131EE0480E511C611C711CB301A2018A819B81A3
S1131EF00E94D50EB301A201CE010E943A0F182F01
S1131F00240135018FEF481A580A680A780AB30188
S1131F10A2018A819B810E94D50EB301A201CE0148
S1131F200E943A0F082FB501A4018A819B810E9467
S1131F30D50EB501A401CE010E943A0F402F50E006
S1131F4060E070E0BA01552744275A016B01D82A92
S1131F50D601C5018F29BC01CD01712BDF91CF9131
S1131F601F910F91FF90DF90CF90BF90AF909F9003
S1131F708F907F906F905F904F900895EF920F93A2
S1131F80FC01738362835183408325830683E78244
S1131F900F91EF90089508956FEF8EE392E00E9401
S1131FA07B0E68E08EE392E00E947D0E6FEF8EE37D
S1131FB092E00E947F0E60E08EE392E00E94810E28
S1131FC080E091E00E94DF06FBCFEF920F931F9316
S1131FD08EE392E00E94760E0EE312E02AE149E1DC
S1131FE068E181E392E00E94C20E2DE14CE16BE1D5
S1131FF084E292E00E94C20E6894EE24E2F80FE1BB
S11320002EE14EE352E064E272E08CE192E00E9441
S1132010BE0F80E091E00E946A001F910F91EF9043
S1132020089580E091E00E94750E8CE192E00E9498
S1132030CB0F84E292E00E94210F81E392E00E94A0
S1132040210F8EE392E00E94C10E0895991B79E05E
S113205004C0991F961708F0961B881F7A95C9F734
S113206080950895EE0FFF1F0590F491E02D0994DB
S113207010E0CFE3D0E004C0FE010E9432102196AC
S10D2080C034D107C9F7F894FFCF6C
S9030000FC
