:100000000C946E000C9496000C9496000C94960040
:100010000C9496000C9496000C9496000C94960008
:100020000C9496000C9496000C9496000C949600F8
:100030000C9496000C9496000C9496000C949600E8
:100040000C9496000C9496000C9496000C949600D8
:100050000C9496000C9496000C9496000C949600C8
:100060000C9496000C9496000C9496000C949600B8
:100070000C9496000C9496000C949600A401BD017B
:10008000D001E301F50108021B022E026364696ED0
:100090006F70737578585B0072756E002E2F006359
:1000A0006400636172747269646765006C6F616497
:1000B000006C6F61642063617274726964676520AB
:1000C00031002901350141014D01590165017101DD
:1000D0007D0189019501A1017F2A8C2A11241FBE6F
:1000E000CFEFD0E1DEBFCDBF23E0A6E0B1E001C09D
:1000F0001D92A334B207E1F711E0A0E0B1E0E0E621
:10010000F1E602C005900D92A630B107D9F710E0D4
:10011000CDE6D0E004C02197FE010E94C02BCC3672
:10012000D107C9F70E944E270C94A3300C9400000D
:10013000EF920F93CF93DF93CDB7DEB729970FB62A
:10014000F894DEBF0FBECDBF9A8389837C836B8317
:100150005E834D832F830887E98689819A812B816D
:100160003C81FC013383228389819A812D813E81E8
:10017000FC013183208389819A812F81FC012583B1
:1001800089819A812885FC01268389819A81298524
:10019000FC012783000029960FB6F894DEBF0FBE3E
:1001A000CDBFDF91CF910F91EF900895CF93DF9363
:1001B00000D0CDB7DEB79A83898300000F900F90EF
:1001C000DF91CF910895CF93DF9300D0CDB7DEB705
:1001D0009A83898389819A81FC01118210828981A5
:1001E0009A81FC011382128200000F900F90DF9120
:1001F000CF910895CF93DF9300D000D000D0CDB73A
:10020000DEB79A8389837C836B835E834D83898188
:100210009A812B813C81FC013183208389819A81E1
:100220002D813E81FC0133832283000026960FB688
:10023000F894DEBF0FBECDBFDF91CF910895CF936D
:10024000DF9300D0CDB7DEB79A83898389819A8105
:10025000FC0182819381FC018081882F90E0382FFE
:10026000222789819A81FC0180819181FC01808112
:10027000882F90E0822B932B0F900F90DF91CF91DE
:100280000895CF93DF9300D000D0CDB7DEB79A8327
:1002900089837C836B8389819A81FC01828193812C
:1002A0002B813C81232F3327FC01208389819A8174
:1002B000FC01808191812B81FC01208300000F9043
:1002C0000F900F900F90DF91CF910895CF93DF9310
:1002D00000D01F92CDB7DEB79A8389836B83898163
:1002E0009A81FC018081882F90E02B81222F30E0C1
:1002F00002C0959587952A95E2F781700F900F902F
:100300000F90DF91CF910895CF93DF9300D000D06D
:10031000CDB7DEB79A8389836B834C838B81882F1B
:1003200090E0092E000CAA0BBB0B40E050E027E048
:1003300030E0841B950B2817390708F4A2C0825CB3
:100340009F4FFC010C94C02B8C81882359F089812C
:100350009A81FC018081282F216089819A81FC018A
:1003600020838FC089819A81FC018081282F2E7F74
:1003700089819A81FC01208384C08C81882359F073
:1003800089819A81FC018081282F226089819A814C
:10039000FC01208376C089819A81FC01108271C0A2
:1003A0008C81882359F089819A81FC018081282FD2
:1003B000246089819A81FC01208363C089819A81AC
:1003C000FC0110825EC08C81882359F089819A815A
:1003D000FC018081282F286089819A81FC0120837B
:1003E00004C089819A81FC0110828C81882359F094
:1003F00089819A81FC018081282F206189819A81DD
:10040000FC0120833EC089819A81FC01108239C0A1
:100410008C81882359F089819A81FC018081282F61
:10042000206289819A81FC0120832BC089819A8175
:10043000FC01108226C08C81882359F089819A8121
:10044000FC018081282F206489819A81FC0120830E
:1004500018C089819A81FC01108213C08C81882385
:1004600059F089819A81FC018081282F2068898137
:100470009A81FC01208304C089819A81FC01108249
:10048000000000000F900F900F900F90DF91CF9120
:100490000895CF93DF9300D0CDB7DEB79A838983D9
:1004A00089819A81FC01108200000F900F90DF91EA
:1004B000CF910895CF93DF9300D0CDB7DEB79A8365
:1004C000898389819A81FC01108200000F900F902E
:1004D000DF91CF910895CF93DF93CDB7DEB72E97FD
:1004E0000FB6F894DEBF0FBECDBF9E878D878D857A
:1004F0009E8581509F4F0E94E3008D859E858D5F74
:100500009E4F0E94E3008D859E85895F9E4F0E94CD
:10051000E3008D859E859C0121503F4F8D859E85F2
:10052000855E9E4FFC01318320838D859E859C01D5
:100530002D5F3E4F8D859E85835E9E4FFC013183EE
:1005400020838D859E859C01295F3E4F8D859E85EC
:10055000815E9E4FFC01318320838D859E858F5D5A
:100560009E4F0E945A028D859E85895E9E4F2FEF79
:100570003FE1FC01318320838D859E85875E9E4F00
:10058000FC01118210828D859E85AC0141505F4F28
:100590008D859E859C0122503F4FCE010996B90161
:1005A0000E94FA008D859E859C01295F3E4F8985BA
:1005B0009A85AB85BC85F90180839183A283B3833F
:1005C0008D859E85AC0143505F4F8D859E859C0136
:1005D00024503F4FCE010596B9010E94FA008D8547
:1005E0009E859C012D5F3E4F8D819E81AF81B88598
:1005F000F90180839183A283B3838D859E859C01BD
:1006000025503F4F8D859E8586509F4FA901BC0187
:10061000CE0101960E94FA008D859E859C01215095
:100620003F4F89819A81AB81BC81F901808391839D
:10063000A283B38300002E960FB6F894DEBF0FBEE0
:10064000CDBFDF91CF910895CF93DF9300D01F925C
:10065000CDB7DEB79A8389836B838B81882F90E037
:100660002B81222F30E049815A81240F351FF90157
:10067000208141E0420F29813A81820F931FFC01C2
:10068000408300000F900F900F90DF91CF9108955D
:10069000CF93DF9300D000D01F92CDB7DEB79B83FE
:1006A0008A837D836C832C813D818A819B81835FDA
:1006B0009E4FFC0180819181B9010E94AC25898304
:1006C00089818F5F89838A819B81835F9E4FFC0133
:1006D000808191812C813D814981B9010E94CE2583
:1006E00000000F900F900F900F900F90DF91CF911F
:1006F0000895CF93DF9300D01F92CDB7DEB79A83D2
:1007000089836B838B81882F90E02B81222F30E0AF
:1007100049815A81240F351FF90120814FEF420F83
:1007200029813A81820F931FFC01408300000F90C2
:100730000F900F90DF91CF910895CF93DF9300D06A
:1007400000D01F92CDB7DEB79B838A837D836C83F5
:100750002C813D818A819B81835F9E4FFC0180813A
:100760009181B9010E94AC25898389818150898357
:100770008A819B81835F9E4FFC01808191812C81C6
:100780003D814981B9010E94CE2500000F900F9054
:100790000F900F900F90DF91CF9108950F931F93BB
:1007A000CF93DF93CDB7DEB7C455D1090FB6F89418
:1007B000DEBF0FBECDBF9E012D5A3F4FF901918381
:1007C000808319828981882311F00C94D015CE0181
:1007D0008D5A9F4FFC0180819181875E9E4FFC0165
:1007E000808191819C01CE018D5A9F4FFC018081B7
:1007F0009181855F9E4FFC0180819181B9010E94AA
:10080000AC258A838A81882321F58E010E5A1F4FD9
:10081000CE018D5A9F4FFC01808191810E947E1FE5
:10082000F8018083CE018E5A9F4FFC018081823671
:1008300019F482E60C94DC15CE018E5A9F4FFC0110
:100840008081853611F00C94B51581E089830C9474
:10085000B5158A81813009F03FC0CE018D5A9F4F76
:10086000FC0180819181875E9E4FFC018081918196
:100870009C012F5F3F4FCE018D5A9F4FFC0180811D
:100880009181875E9E4FFC0131832083CE018D5A7A
:100890009F4FFC0180819181875E9E4FFC0180818A
:1008A00091819C01CE018D5A9F4FFC0180819181E5
:1008B000855F9E4FFC0180819181B9010E94AC252A
:1008C0008B83CE018D5A9F4FFC01808191816B817A
:1008D0000E9424030C94B5158A81823009F066C009
:1008E000CE018D5A9F4FFC0180819181875E9E4F82
:1008F000FC018081918101969C01CE018D5A9F4F10
:10090000FC0180819181855F9E4FFC0180819181F6
:10091000B9010E94AC25882F90E0182F0027CE0146
:100920008D5A9F4FFC0180819181875E9E4FFC0113
:100930008081918102969C01CE018D5A9F4FFC01CE
:1009400080819181855F9E4FFC0180819181B901F9
:100950000E94AC25882F90E0802B912B9D838C8367
:100960002C813D81CE018D5A9F4FFC018081918168
:10097000B9010E944803CE018D5A9F4FFC0180812E
:100980009181875E9E4FFC01808191819C012E5F49
:100990003F4FCE018D5A9F4FFC0180819181875E30
:1009A0009E4FFC01318320830C94B5158A818330DE
:1009B00009F040C0CE018D5A9F4FFC01808191818A
:1009C000875E9E4FFC018081918101969C01CE0142
:1009D0008D5A9F4FFC0180819181855F9E4FFC0164
:1009E00080819181B9010E94AC258E83CE018D5A00
:1009F0009F4FFC01808191816E810E947903CE011D
:100A00008D5A9F4FFC0180819181875E9E4FFC0132
:100A1000808191819C012F5F3F4FCE018D5A9F4F66
:100A2000FC0180819181875E9E4FFC013183208390
:100A30000C94B5158A81843009F066C0CE018D5AB8
:100A40009F4FFC0180819181875E9E4FFC018081D8
:100A5000918101969C01CE018D5A9F4FFC018081AE
:100A60009181855F9E4FFC0180819181B9010E9437
:100A7000AC25882F90E0182F0027CE018D5A9F4F6C
:100A8000FC0180819181875E9E4FFC018081918174
:100A900002969C01CE018D5A9F4FFC01808191816D
:100AA000855F9E4FFC0180819181B9010E94AC2538
:100AB000882F90E0802B912B98878F832F8138850A
:100AC000CE018D5A9F4FFC0180819181B9010E9416
:100AD0009D03CE018D5A9F4FFC0180819181875EDD
:100AE0009E4FFC01808191819C012E5F3F4FCE0182
:100AF0008D5A9F4FFC0180819181875E9E4FFC0142
:100B0000318320830C94B5158A81853009F05DC04E
:100B1000CE018D5A9F4FFC0180819181875E9E4F4F
:100B2000FC018081918101969C01CE018D5A9F4FDD
:100B3000FC0180819181855F9E4FFC0180819181C4
:100B4000B9010E94AC258987CE018D5A9F4FFC01C7
:100B500080819181875E9E4FFC0180819181029608
:100B60009C01CE018D5A9F4FFC0180819181855F50
:100B70009E4FFC0180819181B9010E94AC258A873A
:100B8000CE018D5A9F4FFC01808191814A856985F4
:100B90000E94E815CE018D5A9F4FFC018081918102
:100BA000875E9E4FFC01808191819C012E5F3F4FAB
:100BB000CE018D5A9F4FFC0180819181875E9E4FAF
:100BC000FC01318320830C94B5158A81863009F0AD
:100BD00083C0CE018D5A9F4FFC0180819181875E39
:100BE0009E4FFC018081918101969C01CE018D5A1E
:100BF0009F4FFC0180819181855F9E4FFC01808128
:100C00009181B9010E94AC258B87CE018D5A9F4FEF
:100C1000FC0180819181875E9E4FFC0180819181E2
:100C200002969C01CE018D5A9F4FFC0180819181DB
:100C3000855F9E4FFC0180819181B9010E94AC25A6
:100C4000882F90E0182F0027CE018D5A9F4FFC016E
:100C500080819181875E9E4FFC0180819181039606
:100C60009C01CE018D5A9F4FFC0180819181855F4F
:100C70009E4FFC0180819181B9010E94AC25882F93
:100C800090E0802B912B9D878C872C853D85CE0114
:100C90008D5A9F4FFC0180819181A9016B850E9433
:100CA0000C16CE018D5A9F4FFC0180819181875E89
:100CB0009E4FFC01808191819C012D5F3F4FCE01B1
:100CC0008D5A9F4FFC0180819181875E9E4FFC0170
:100CD000318320830C94B5158A81873009F05DC07B
:100CE000CE018D5A9F4FFC0180819181875E9E4F7E
:100CF000FC018081918101969C01CE018D5A9F4F0C
:100D0000FC0180819181855F9E4FFC0180819181F2
:100D1000B9010E94AC258E87CE018D5A9F4FFC01F0
:100D200080819181875E9E4FFC0180819181029636
:100D30009C01CE018D5A9F4FFC0180819181855F7E
:100D40009E4FFC0180819181B9010E94AC258F8763
:100D5000CE018D5A9F4FFC01808191814F856E8518
:100D60000E943B16CE018D5A9F4FFC0180819181DC
:100D7000875E9E4FFC01808191819C012E5F3F4FD9
:100D8000CE018D5A9F4FFC0180819181875E9E4FDD
:100D9000FC01318320830C94B5158A81883009F0D9
:100DA00040C0CE018D5A9F4FFC0180819181875EAA
:100DB0009E4FFC018081918101969C01CE018D5A4C
:100DC0009F4FFC0180819181855F9E4FFC01808156
:100DD0009181B9010E94AC25888BCE018D5A9F4F1D
:100DE000FC018081918168890E94AE16CE018D5AE6
:100DF0009F4FFC0180819181875E9E4FFC01808125
:100E000091819C012F5F3F4FCE018D5A9F4FFC0176
:100E100080819181875E9E4FFC01318320830C94F9
:100E2000B5158A81893009F040C0CE018D5A9F4F97
:100E3000FC0180819181875E9E4FFC0180819181C0
:100E400001969C01CE018D5A9F4FFC0180819181BA
:100E5000855F9E4FFC0180819181B9010E94AC2584
:100E6000898BCE018D5A9F4FFC01808191816989C8
:100E70000E94EB16CE018D5A9F4FFC01808191811B
:100E8000875E9E4FFC01808191819C012F5F3F4FC7
:100E9000CE018D5A9F4FFC0180819181875E9E4FCC
:100EA000FC01318320830C94B5158A818A3009F0C6
:100EB00040C0CE018D5A9F4FFC0180819181875E99
:100EC0009E4FFC018081918101969C01CE018D5A3B
:100ED0009F4FFC0180819181855F9E4FFC01808145
:100EE0009181B9010E94AC258A8BCE018D5A9F4F0A
:100EF000FC01808191816A890E942817CE018D5A58
:100F00009F4FFC0180819181875E9E4FFC01808113
:100F100091819C012F5F3F4FCE018D5A9F4FFC0165
:100F200080819181875E9E4FFC01318320830C94E8
:100F3000B5158A818B3009F083C0CE018D5A9F4F41
:100F4000FC0180819181875E9E4FFC0180819181AF
:100F500002969C01CE018D5A9F4FFC0180819181A8
:100F6000855F9E4FFC0180819181B9010E94AC2573
:100F7000882F90E0182F0027CE018D5A9F4FFC013B
:100F800080819181875E9E4FFC01808191810396D3
:100F90009C01CE018D5A9F4FFC0180819181855F1C
:100FA0009E4FFC0180819181B9010E94AC25882F60
:100FB00090E0802B912B9C8B8B8BCE018D5A9F4F79
:100FC000FC0180819181875E9E4FFC01808191812F
:100FD00001969C01CE018D5A9F4FFC018081918129
:100FE000855F9E4FFC0180819181B9010E94AC25F3
:100FF0008D8B2B893C89CE018D5A9F4FFC018081BE
:1010000091814D89B9010E946517CE018D5A9F4F7C
:10101000FC0180819181875E9E4FFC0180819181DE
:101020009C012D5F3F4FCE018D5A9F4FFC01808167
:101030009181875E9E4FFC01318320830C94B5150E
:101040008A818C3009F083C0CE018D5A9F4FFC01FC
:1010500080819181875E9E4FFC0180819181029603
:101060009C01CE018D5A9F4FFC0180819181855F4B
:101070009E4FFC0180819181B9010E94AC25882F8F
:1010800090E0182F0027CE018D5A9F4FFC018081E0
:101090009181875E9E4FFC018081918103969C0126
:1010A000CE018D5A9F4FFC0180819181855F9E4FBB
:1010B000FC0180819181B9010E94AC25882F90E0CC
:1010C000802B912B9F8B8E8BCE018D5A9F4FFC01D5
:1010D00080819181875E9E4FFC0180819181019684
:1010E0009C01CE018D5A9F4FFC0180819181855FCB
:1010F0009E4FFC0180819181B9010E94AC25888FAF
:101100002E893F89CE018D5A9F4FFC0180819181AC
:10111000488DB9010E948717CE018D5A9F4FFC015F
:1011200080819181875E9E4FFC01808191819C012D
:101130002D5F3F4FCE018D5A9F4FFC0180819181E1
:10114000875E9E4FFC01318320830C94B5158A8104
:101150008D3009F040C0CE018D5A9F4FFC01808137
:101160009181875E9E4FFC018081918101969C0157
:10117000CE018D5A9F4FFC0180819181855F9E4FEA
:10118000FC0180819181B9010E94AC25898FCE013B
:101190008D5A9F4FFC0180819181698D0E94AB1710
:1011A000CE018D5A9F4FFC0180819181875E9E4FB9
:1011B000FC01808191819C012F5F3F4FCE018D5AB0
:1011C0009F4FFC0180819181875E9E4FFC0131839E
:1011D00020830C94B5158A818E3009F040C0CE0171
:1011E0008D5A9F4FFC0180819181875E9E4FFC014B
:1011F0008081918101969C01CE018D5A9F4FFC0107
:1012000080819181855F9E4FFC0180819181B90130
:101210000E94AC258A8FCE018D5A9F4FFC018081A0
:1012200091816A8D0E94CD17CE018D5A9F4FFC018E
:1012300080819181875E9E4FFC01808191819C011C
:101240002F5F3F4FCE018D5A9F4FFC0180819181CE
:10125000875E9E4FFC01318320830C94B5158A81F3
:101260008F3009F040C0CE018D5A9F4FFC01808124
:101270009181875E9E4FFC018081918101969C0146
:10128000CE018D5A9F4FFC0180819181855F9E4FD9
:10129000FC0180819181B9010E94AC258B8FCE0128
:1012A0008D5A9F4FFC01808191816B8D0E94EF17B9
:1012B000CE018D5A9F4FFC0180819181875E9E4FA8
:1012C000FC01808191819C012F5F3F4FCE018D5A9F
:1012D0009F4FFC0180819181875E9E4FFC0131838D
:1012E00020830C94B5158A81803151F4CE018D5A3A
:1012F0009F4FFC01808191810E9411180C94B515BB
:101300008A81813151F4CE018D5A9F4FFC01808139
:1013100091810E942C180C94B5158A81823151F468
:10132000CE018D5A9F4FFC01808191810E94471808
:101330000C94B5158A81833151F4CE018D5A9F4F9B
:10134000FC01808191810E9462180C94B5158A81FC
:10135000843151F4CE018D5A9F4FFC0180819181DF
:101360000E947D180C94B5158A81853151F4CE0107
:101370008D5A9F4FFC01808191810E9498180C9496
:10138000B5158A81863151F4CE018D5A9F4FFC01EB
:10139000808191810E94B3180C94B5158A818731A0
:1013A00051F4CE018D5A9F4FFC01808191810E94A2
:1013B000CE180C94B5158A81883151F4CE018D5A1E
:1013C0009F4FFC01808191810E94E9180C94B51512
:1013D0008A81893151F4CE018D5A9F4FFC01808161
:1013E00091810E9404190C94B5158A818A3151F4B7
:1013F000CE018D5A9F4FFC01808191810E941F195F
:101400000C94B5158A818B3151F4CE018D5A9F4FC2
:10141000FC01808191810E943A190C94B5158A8152
:101420008C3109F05DC0CE018D5A9F4FFC01808147
:101430009181875E9E4FFC018081918101969C0184
:10144000CE018D5A9F4FFC0180819181855F9E4F17
:10145000FC0180819181B9010E94AC258C8FCE0165
:101460008D5A9F4FFC0180819181875E9E4FFC01C8
:101470008081918102969C01CE018D5A9F4FFC0183
:1014800080819181855F9E4FFC0180819181B901AE
:101490000E94AC258D8FCE018D5A9F4FFC0180811B
:1014A00091814D8D6C8D0E945519CE018D5A9F4FA3
:1014B000FC0180819181875E9E4FFC01808191813A
:1014C0009C012E5F3F4FCE018D5A9F4FFC018081C2
:1014D0009181875E9E4FFC01318320830C94B5156A
:1014E0008A818D3109F05DC0CE018D5A9F4FFC017C
:1014F00080819181875E9E4FFC0180819181019660
:101500009C01CE018D5A9F4FFC0180819181855FA6
:101510009E4FFC0180819181B9010E94AC258E8F84
:10152000CE018D5A9F4FFC0180819181875E9E4F35
:10153000FC018081918102969C01CE018D5A9F4FC2
:10154000FC0180819181855F9E4FFC0180819181AA
:10155000B9010E94AC258F8FCE018D5A9F4FFC019F
:10156000808191814F8D6E8D0E948B19CE018D5A95
:101570009F4FFC0180819181875E9E4FFC0180819D
:1015800091819C012E5F3F4FCE018D5A9F4FFC01F0
:1015900080819181875E9E4FFC01318320830C9472
:1015A000B5158A818E3109F040C0CE018D5A9F4F0A
:1015B000FC0180819181875E9E4FFC018081918139
:1015C00001969C01CE018D5A9F4FFC018081918133
:1015D000855F9E4FFC0180819181B9010E94AC25FD
:1015E000282FCE018D5A9F4FFC0180819181622F5F
:1015F0000E94C119CE018D5A9F4FFC0180819181BB
:10160000875E9E4FFC01808191819C012F5F3F4F3F
:10161000CE018D5A9F4FFC0180819181875E9E4F44
:10162000FC01318320830C94B5158A818F3109F038
:1016300040C0CE018D5A9F4FFC0180819181875E11
:101640009E4FFC018081918101969C01CE018D5AB3
:101650009F4FFC0180819181855F9E4FFC018081BD
:101660009181B9010E94AC25282FCE018D5A9F4F40
:10167000FC0180819181622F0E94E819CE018D5A70
:101680009F4FFC0180819181875E9E4FFC0180818C
:1016900091819C012F5F3F4FCE018D5A9F4FFC01DE
:1016A00080819181875E9E4FFC01318320830C9461
:1016B000B5158A81803209F04DC0CE018D5A9F4FF9
:1016C000FC0180819181875E9E4FFC018081918128
:1016D00001969C01CE018D5A9F4FFC018081918122
:1016E000855F9E4FFC0180819181B9010E94AC25EC
:1016F000882F90E0182F0027CE018D5A9F4FFC01B4
:1017000080819181875E9E4FFC018081918102964C
:101710009C01CE018D5A9F4FFC0180819181855F94
:101720009E4FFC0180819181B9010E94AC25882FD8
:1017300090E0802B912B99A388A328A139A1CE01F9
:101740008D5A9F4FFC0180819181B9010E940C1A32
:101750000C94B5158A81813209F05AC0CE018D5A98
:101760009F4FFC0180819181875E9E4FFC018081AB
:10177000918101969C01CE018D5A9F4FFC01808181
:101780009181855F9E4FFC0180819181B9010E940A
:10179000AC25882F90E0182F0027CE018D5A9F4F3F
:1017A000FC0180819181875E9E4FFC018081918147
:1017B00002969C01CE018D5A9F4FFC018081918140
:1017C000855F9E4FFC0180819181B9010E94AC250B
:1017D000882F90E0802B912B9BA38AA3CE018D5A5A
:1017E0009F4FFC0180819181875E9E4FFC0120818B
:1017F00031818AA19BA1280F391FCE018D5A9F4F9D
:10180000FC0180819181B9010E94331A0C94B515B5
:101810008A81823209F05AC0CE018D5A9F4FFC0155
:1018200080819181875E9E4FFC018081918101962C
:101830009C01CE018D5A9F4FFC0180819181855F73
:101840009E4FFC0180819181B9010E94AC25882FB7
:1018500090E0182F0027CE018D5A9F4FFC01808108
:101860009181875E9E4FFC018081918102969C014F
:10187000CE018D5A9F4FFC0180819181855F9E4FE3
:10188000FC0180819181B9010E94AC25882F90E0F4
:10189000802B912B9DA38CA3CE018D5A9F4FFC01D1
:1018A00080819181875E9E4FFC01208131818CA1D6
:1018B0009DA1281B390BCE018D5A9F4FFC018081C1
:1018C0009181B9010E94631A0C94B5158A81833203
:1018D00009F04DC0CE018D5A9F4FFC01808191814E
:1018E000875E9E4FFC018081918101969C01CE0113
:1018F0008D5A9F4FFC0180819181855F9E4FFC0135
:1019000080819181B9010E94AC25882F90E0182F29
:101910000027CE018D5A9F4FFC0180819181875E07
:101920009E4FFC018081918102969C01CE018D5ACF
:101930009F4FFC0180819181855F9E4FFC018081DA
:101940009181B9010E94AC25882F90E0802B912BCA
:101950009FA38EA32EA13FA1CE018D5A9F4FFC01C4
:1019600080819181B9010E94931A0C94B5158A81E6
:10197000843209F05AC0CE018D5A9F4FFC018081FC
:101980009181875E9E4FFC018081918101969C012F
:10199000CE018D5A9F4FFC0180819181855F9E4FC2
:1019A000FC0180819181B9010E94AC25882F90E0D3
:1019B000182F0027CE018D5A9F4FFC018081918105
:1019C000875E9E4FFC018081918102969C01CE0131
:1019D0008D5A9F4FFC0180819181855F9E4FFC0154
:1019E00080819181B9010E94AC25882F90E0802BE5
:1019F000912B99A788A7CE018D5A9F4FFC0180811A
:101A00009181875E9E4FFC012081318188A599A537
:101A1000280F391FCE018D5A9F4FFC018081918183
:101A2000B9010E94CC1A0C94B5158A81853209F04F
:101A30005AC0CE018D5A9F4FFC0180819181875EF3
:101A40009E4FFC018081918101969C01CE018D5AAF
:101A50009F4FFC0180819181855F9E4FFC018081B9
:101A60009181B9010E94AC25882F90E0182F0027A2
:101A7000CE018D5A9F4FFC0180819181875E9E4FE0
:101A8000FC018081918102969C01CE018D5A9F4F6D
:101A9000FC0180819181855F9E4FFC018081918155
:101AA000B9010E94AC25882F90E0802B912B9BA739
:101AB0008AA7CE018D5A9F4FFC0180819181875E5C
:101AC0009E4FFC01208131818AA59BA5281B390BE3
:101AD000CE018D5A9F4FFC0180819181B9010E94F6
:101AE0000E1B0C94B5158A81863209F04DC0CE01CB
:101AF0008D5A9F4FFC0180819181875E9E4FFC0132
:101B00008081918101969C01CE018D5A9F4FFC01ED
:101B100080819181855F9E4FFC0180819181B90117
:101B20000E94AC25882F90E0182F0027CE018D5AF7
:101B30009F4FFC0180819181875E9E4FFC018081D7
:101B4000918102969C01CE018D5A9F4FFC018081AC
:101B50009181855F9E4FFC0180819181B9010E9436
:101B6000AC25882F90E0802B912B9DA78CA72CA5CE
:101B70003DA5CE018D5A9F4FFC0180819181B90115
:101B80000E94501B0C94B5158A81873209F059C008
:101B9000CE018D5A9F4FFC0180819181875E9E4FBF
:101BA000FC018081918101969C01CE018D5A9F4F4D
:101BB000FC0180819181855F9E4FFC018081918134
:101BC000B9010E94AC25882F90E0182F0027CE0184
:101BD0008D5A9F4FFC0180819181875E9E4FFC0151
:101BE0008081918102969C01CE018D5A9F4FFC010C
:101BF00080819181855F9E4FFC0180819181B90137
:101C00000E94AC25882F90E0802B912B9FA78EA758
:101C1000CE018D5A9F4FFC0180819181875E9E4F3E
:101C2000FC01208131818EA59FA5280F391FCE018F
:101C30008D5A9F4FFC0180819181B9010E94801BC8
:101C400094C78A81883209F059C0CE018D5A9F4FBE
:101C5000FC0180819181875E9E4FFC018081918192
:101C600001969C01CE018D5A9F4FFC01808191818C
:101C7000855F9E4FFC0180819181B9010E94AC2556
:101C8000882F90E0182F0027CE018D5A9F4FFC011E
:101C900080819181875E9E4FFC01808191810296B7
:101CA0009C01CE018D5A9F4FFC0180819181855FFF
:101CB0009E4FFC0180819181B9010E94AC25882F43
:101CC00090E0802B912B99AB88ABCE018D5A9F4F22
:101CD000FC0180819181875E9E4FFC0120813181D2
:101CE00088A999A9281B390BCE018D5A9F4FFC0159
:101CF00080819181B9010E94B91B37C78A818932DD
:101D000009F04CC0CE018D5A9F4FFC01808191811A
:101D1000875E9E4FFC018081918101969C01CE01DE
:101D20008D5A9F4FFC0180819181855F9E4FFC0100
:101D300080819181B9010E94AC25882F90E0182FF5
:101D40000027CE018D5A9F4FFC0180819181875ED3
:101D50009E4FFC018081918102969C01CE018D5A9B
:101D60009F4FFC0180819181855F9E4FFC018081A6
:101D70009181B9010E94AC25882F90E0802B912B96
:101D80009BAB8AAB2AA93BA9CE018D5A9F4FFC0180
:101D900080819181B9010E94F21BE7C68A818A3253
:101DA00009F059C0CE018D5A9F4FFC01808191816D
:101DB000875E9E4FFC018081918101969C01CE013E
:101DC0008D5A9F4FFC0180819181855F9E4FFC0160
:101DD00080819181B9010E94AC25882F90E0182F55
:101DE0000027CE018D5A9F4FFC0180819181875E33
:101DF0009E4FFC018081918102969C01CE018D5AFB
:101E00009F4FFC0180819181855F9E4FFC01808105
:101E10009181B9010E94AC25882F90E0802B912BF5
:101E20009DAB8CABCE018D5A9F4FFC01808191817F
:101E3000875E9E4FFC01208131818CA99DA9280FCE
:101E4000391FCE018D5A9F4FFC0180819181B901CC
:101E50000E94221C8AC68A818B3209F059C0CE01A9
:101E60008D5A9F4FFC0180819181875E9E4FFC01BE
:101E70008081918101969C01CE018D5A9F4FFC017A
:101E800080819181855F9E4FFC0180819181B901A4
:101E90000E94AC25882F90E0182F0027CE018D5A84
:101EA0009F4FFC0180819181875E9E4FFC01808164
:101EB000918102969C01CE018D5A9F4FFC01808139
:101EC0009181855F9E4FFC0180819181B9010E94C3
:101ED000AC25882F90E0802B912B9FAB8EABCE0151
:101EE0008D5A9F4FFC0180819181875E9E4FFC013E
:101EF000208131818EA99FA9281B390BCE018D5AD3
:101F00009F4FFC0180819181B9010E945B1C2DC60D
:101F10008A818C3209F04CC0CE018D5A9F4FFC0152
:101F200080819181875E9E4FFC0180819181019625
:101F30009C01CE018D5A9F4FFC0180819181855F6C
:101F40009E4FFC0180819181B9010E94AC25882FB0
:101F500090E0182F0027CE018D5A9F4FFC01808101
:101F60009181875E9E4FFC018081918102969C0148
:101F7000CE018D5A9F4FFC0180819181855F9E4FDC
:101F8000FC0180819181B9010E94AC25882F90E0ED
:101F9000802B912B99AF88AF28AD39ADCE018D5AEA
:101FA0009F4FFC0180819181B9010E94941CDDC585
:101FB0008A818D3209F059C0CE018D5A9F4FFC01A4
:101FC00080819181875E9E4FFC0180819181019685
:101FD0009C01CE018D5A9F4FFC0180819181855FCC
:101FE0009E4FFC0180819181B9010E94AC25882F10
:101FF00090E0182F0027CE018D5A9F4FFC01808161
:102000009181875E9E4FFC018081918102969C01A7
:10201000CE018D5A9F4FFC0180819181855F9E4F3B
:10202000FC0180819181B9010E94AC25882F90E04C
:10203000802B912B9BAF8AAFCE018D5A9F4FFC0115
:1020400080819181875E9E4FFC01208131818AAD24
:102050009BAD280F391FCE018D5A9F4FFC01808107
:102060009181B9010E94C41C80C58A818E3209F019
:1020700059C0CE018D5A9F4FFC0180819181875EAE
:102080009E4FFC018081918101969C01CE018D5A69
:102090009F4FFC0180819181855F9E4FFC01808173
:1020A0009181B9010E94AC25882F90E0182F00275C
:1020B000CE018D5A9F4FFC0180819181875E9E4F9A
:1020C000FC018081918102969C01CE018D5A9F4F27
:1020D000FC0180819181855F9E4FFC01808191810F
:1020E000B9010E94AC25882F90E0802B912B9DAFE9
:1020F0008CAFCE018D5A9F4FFC0180819181875E0C
:102100009E4FFC01208131818CAD9DAD281B390B88
:10211000CE018D5A9F4FFC0180819181B9010E94AF
:10212000FD1C23C58A818F3209F04CC0CE018D5A27
:102130009F4FFC0180819181875E9E4FFC018081D1
:10214000918101969C01CE018D5A9F4FFC018081A7
:102150009181855F9E4FFC0180819181B9010E9430
:10216000AC25882F90E0182F0027CE018D5A9F4F65
:10217000FC0180819181875E9E4FFC01808191816D
:1021800002969C01CE018D5A9F4FFC018081918166
:10219000855F9E4FFC0180819181B9010E94AC2531
:1021A000882F90E0802B912B9FAF8EAF2EAD3FAD4F
:1021B000CE018D5A9F4FFC0180819181B9010E940F
:1021C000361DD3C48A81803309F062C0CE018D5A96
:1021D0009F4FFC0180819181875E9E4FFC01808131
:1021E000918101969C01CE018D5A9F4FFC01808107
:1021F0009181855F9E4FFC0180819181B9010E9490
:10220000AC25882F90E0182F0027CE018D5A9F4FC4
:10221000FC0180819181875E9E4FFC0180819181CC
:1022200002969C01CE018D5A9F4FFC0180819181C5
:10223000855F9E4FFC0180819181B9010E94AC2590
:10224000882F90E09801282B392BCE01805C9F4F7E
:10225000FC0131832083CE018D5A9F4FFC01808188
:102260009181875E9E4FFC0120813181CE01805C8F
:102270009F4FFC0180819181280F391FCE018D5A1B
:102280009F4FFC0180819181B9010E94661D6DC440
:102290008A81813309F062C0CE018D5A9F4FFC01C3
:1022A00080819181875E9E4FFC01808191810196A2
:1022B0009C01CE018D5A9F4FFC0180819181855FE9
:1022C0009E4FFC0180819181B9010E94AC25882F2D
:1022D00090E0182F0027CE018D5A9F4FFC0180817E
:1022E0009181875E9E4FFC018081918102969C01C5
:1022F000CE018D5A9F4FFC0180819181855F9E4F59
:10230000FC0180819181B9010E94AC25882F90E069
:102310009801282B392BCE018E5B9F4FFC01318316
:102320002083CE018D5A9F4FFC0180819181875E71
:102330009E4FFC0120813181CE018E5B9F4FFC01BD
:1023400080819181281B390BCE018D5A9F4FFC0152
:1023500080819181B9010E949F1D07C48A818233C7
:1023600009F048C0CE018D5A9F4FFC0180819181B8
:10237000875E9E4FFC018081918101969C01CE0178
:102380008D5A9F4FFC0180819181855F9E4FFC019A
:10239000808191818E010C5B1F4FB9010E94AC2599
:1023A000F8018083CE018C5B9F4F9E012D5A3F4FD9
:1023B000F90120813181FC016081C9010E94D81D91
:1023C000CE018D5A9F4FFC0180819181875E9E4F87
:1023D000FC01808191819C012F5F3F4FCE018D5A7E
:1023E0009F4FFC0180819181875E9E4FFC0131836C
:1023F0002083BBC38A81833309F048C0CE018D5A44
:102400009F4FFC0180819181875E9E4FFC018081FE
:10241000918101969C01CE018D5A9F4FFC018081D4
:102420009181855F9E4FFC01808191818E010B5BC4
:102430001F4FB9010E94AC25F8018083CE018B5B50
:102440009F4F9E012D5A3F4FF90120813181FC01A0
:102450006081C9010E949F20CE018D5A9F4FFC01CF
:1024600080819181875E9E4FFC01808191819C01DA
:102470002F5F3F4FCE018D5A9F4FFC01808191818C
:10248000875E9E4FFC01318320836FC38A81843332
:1024900009F048C0CE018D5A9F4FFC018081918187
:1024A000875E9E4FFC018081918101969C01CE0147
:1024B0008D5A9F4FFC0180819181855F9E4FFC0169
:1024C000808191818E010A5B1F4FB9010E94AC256A
:1024D000F8018083CE018A5B9F4F9E012D5A3F4FAA
:1024E000F90120813181FC016081C9010E943E1FF8
:1024F000CE018D5A9F4FFC0180819181875E9E4F56
:10250000FC01808191819C012F5F3F4FCE018D5A4C
:102510009F4FFC0180819181875E9E4FFC0131833A
:10252000208323C38A81853309F048C0CE018D5AA8
:102530009F4FFC0180819181875E9E4FFC018081CD
:10254000918101969C01CE018D5A9F4FFC018081A3
:102550009181855F9E4FFC01808191818E01095B95
:102560001F4FB9010E94AC25F8018083CE01895B21
:102570009F4F9E012D5A3F4FF90120813181FC016F
:102580006081C9010E94FD1ECE018D5A9F4FFC0142
:1025900080819181875E9E4FFC01808191819C01A9
:1025A0002F5F3F4FCE018D5A9F4FFC01808191815B
:1025B000875E9E4FFC0131832083D7C28A81863398
:1025C00009F048C0CE018D5A9F4FFC018081918156
:1025D000875E9E4FFC018081918101969C01CE0116
:1025E0008D5A9F4FFC0180819181855F9E4FFC0138
:1025F000808191818E01085B1F4FB9010E94AC253B
:10260000F8018083CE01885B9F4F9E012D5A3F4F7A
:10261000F90120813181FC016081C9010E945C1EA9
:10262000CE018D5A9F4FFC0180819181875E9E4F24
:10263000FC01808191819C012F5F3F4FCE018D5A1B
:102640009F4FFC0180819181875E9E4FFC01318309
:1026500020838BC28A81873309F05CC0CE018D5AFA
:102660009F4FFC0180819181875E9E4FFC0180819C
:10267000918101969C01CE018D5A9F4FFC01808172
:102680009181855F9E4FFC01808191818E01075B66
:102690001F4FB9010E94AC25F8018083CE01875BF2
:1026A0009F4FFC018081882F90E09E012D5A3F4F63
:1026B000F90120813181880F991F820F931F855E58
:1026C0009E4FFC01808191810E941F01282FCE0125
:1026D0008D5A9F4FFC0180819181622F0E945C1E68
:1026E000CE018D5A9F4FFC0180819181875E9E4F64
:1026F000FC01808191819C012F5F3F4FCE018D5A5B
:102700009F4FFC0180819181875E9E4FFC01318348
:1027100020832BC28A81883309F048C0CE018D5AAC
:102720009F4FFC0180819181875E9E4FFC018081DB
:10273000918101969C01CE018D5A9F4FFC018081B1
:102740009181855F9E4FFC01808191818E01065BA6
:102750001F4FB9010E94AC25F8018083CE01865B32
:102760009F4F9E012D5A3F4FF90120813181FC017D
:102770006081C9010E94971ECE018D5A9F4FFC01B6
:1027800080819181875E9E4FFC01808191819C01B7
:102790002F5F3F4FCE018D5A9F4FFC018081918169
:1027A000875E9E4FFC0131832083DFC18A8189339C
:1027B00009F048C0CE018D5A9F4FFC018081918164
:1027C000875E9E4FFC018081918101969C01CE0124
:1027D0008D5A9F4FFC0180819181855F9E4FFC0146
:1027E000808191818E01055B1F4FB9010E94AC254C
:1027F000F8018083CE01855B9F4F9E012D5A3F4F8C
:10280000F90120813181FC016081C9010E945716C4
:10281000CE018D5A9F4FFC0180819181875E9E4F32
:10282000FC01808191819C012F5F3F4FCE018D5A29
:102830009F4FFC0180819181875E9E4FFC01318317
:10284000208393C18A818A3309F048C0CE018D5A12
:102850009F4FFC0180819181875E9E4FFC018081AA
:10286000918101969C01CE018D5A9F4FFC01808180
:102870009181855F9E4FFC01808191818E01045B77
:102880001F4FB9010E94AC25F8018083CE01845B03
:102890009F4F9E012D5A3F4FF90120813181FC014C
:1028A0006081C9010E947416CE018D5A9F4FFC01B0
:1028B00080819181875E9E4FFC01808191819C0186
:1028C0002F5F3F4FCE018D5A9F4FFC018081918138
:1028D000875E9E4FFC013183208347C18A818B3301
:1028E00009F048C0CE018D5A9F4FFC018081918133
:1028F000875E9E4FFC018081918101969C01CE01F3
:102900008D5A9F4FFC0180819181855F9E4FFC0114
:10291000808191818E01035B1F4FB9010E94AC251C
:10292000F8018083CE01835B9F4F9E012D5A3F4F5C
:10293000F90120813181FC016081C9010E94911659
:10294000CE018D5A9F4FFC0180819181875E9E4F01
:10295000FC01808191819C012F5F3F4FCE018D5AF8
:102960009F4FFC0180819181875E9E4FFC013183E6
:102970002083FBC08A818C3349F4CE018D5A9F4F4E
:10298000FC01808191810E94B520EFC08A818D3346
:1029900009F06EC0CE018D5A9F4FFC01808191815C
:1029A000875E9E4FFC018081918101969C01CE0142
:1029B0008D5A9F4FFC0180819181855F9E4FFC0164
:1029C00080819181B9010E94AC25882F90E0182F59
:1029D0000027CE018D5A9F4FFC0180819181875E37
:1029E0009E4FFC018081918102969C01CE018D5AFF
:1029F0009F4FFC0180819181855F9E4FFC0180810A
:102A00009181B9010E94AC25882F90E09801282B74
:102A1000392BCE01825B9F4FFC0131832083CE0195
:102A2000825B9F4FFC0120813181CE018D5A9F4FE7
:102A3000FC0180819181B9010E94411ECE018D5A15
:102A40009F4FFC0180819181875E9E4FFC018081B8
:102A500091819C012E5F3F4FCE018D5A9F4FFC010B
:102A600080819181875E9E4FFC01318320837DC0F0
:102A70008A818E3309F06EC0CE018D5A9F4FFC01C2
:102A800080819181875E9E4FFC01808191810196BA
:102A90009C01CE018D5A9F4FFC0180819181855F01
:102AA0009E4FFC0180819181B9010E94AC25882F45
:102AB00090E0182F0027CE018D5A9F4FFC01808196
:102AC0009181875E9E4FFC018081918102969C01DD
:102AD000CE018D5A9F4FFC0180819181855F9E4F71
:102AE000FC0180819181B9010E94AC25882F90E082
:102AF0009801282B392BCE01805B9F4FFC0131833D
:102B00002083CE01805B9F4FFC0120813181CE016B
:102B10008D5A9F4FFC0180819181B9010E94FF1D58
:102B2000CE018D5A9F4FFC0180819181875E9E4F1F
:102B3000FC01808191819C012E5F3F4FCE018D5A17
:102B40009F4FFC0180819181875E9E4FFC01318304
:102B500020830BC08A818F3F41F4CE018D5A9F4F55
:102B6000FC01808191810E94F11DCE018D5A9F4F01
:102B7000FC0180819181875E9E4FFC018081918163
:102B80009C012F5F3F4FCE018D5A9F4FFC018081EA
:102B90009181875E9E4FFC01318320830C94E20378
:102BA000CE018D5A9F4FFC0180819181875E9E4F9F
:102BB000FC011182108285E6CC5ADF4F0FB6F894E3
:102BC000DEBF0FBECDBFDF91CF911F910F91089552
:102BD000CF93DF9300D000D0CDB7DEB79A8389833F
:102BE0006B834C838B81882F90E02C81222F30E0E7
:102BF00049815A81240F351FF901408129813A8189
:102C0000820F931FFC01408300000F900F900F90E4
:102C10000F90DF91CF9108950F931F93CF93DF9380
:102C200000D000D01F92CDB7DEB79A8389836B8323
:102C30005D834C838B81082F10E02C813D8189813D
:102C40009A81835F9E4FFC0180819181B9010E942E
:102C5000AC25282F89819A81800F911FFC01208348
:102C600000000F900F900F900F900F90DF91CF9179
:102C70001F910F910895CF93DF9300D000D0CDB76F
:102C8000DEB79A8389836B834C838B81882F90E096
:102C900029813A81820F931F2C81FC01208300003F
:102CA0000F900F900F900F90DF91CF910895CF93D9
:102CB000DF9300D01F92CDB7DEB79A8389836B83F1
:102CC00089819A8181509F4F0E941F019C018981B7
:102CD0009A81A9016B810E940C1600000F900F9041
:102CE0000F90DF91CF910895CF93DF9300D01F9283
:102CF000CDB7DEB79A8389836B8389819A818D5F93
:102D00009E4F0E941F019C0189819A81A9016B81BC
:102D10000E940C1600000F900F900F90DF91CF9142
:102D20000895CF93DF9300D01F92CDB7DEB79A837B
:102D300089836B8389819A81895F9E4F0E941F01DD
:102D40009C0189819A81A9016B810E940C16000067
:102D50000F900F900F90DF91CF910895CF93DF9355
:102D600000D01F92CDB7DEB79A8389836B838B81A6
:102D7000882F90E029813A81820F931FFC014081C6
:102D800089819A818F5F9E4FFC0180819181FC0136
:102D90008081882F90E0382F222789819A81815065
:102DA0009F4FFC0180819181FC018081882F90E000
:102DB000282B392B89819A81835F9E4FFC0180816A
:102DC0009181B9010E94CE2500000F900F900F90C5
:102DD000DF91CF910895CF93DF9300D01F92CDB7AD
:102DE000DEB79A8389836B838B81882F90E029815A
:102DF0003A81820F931FFC01408189819A818B5F08
:102E00009E4FFC0180819181FC018081882F90E0A0
:102E1000382F222789819A818D5F9E4FFC01808106
:102E20009181FC018081882F90E0282B392B8981AA
:102E30009A81835F9E4FFC0180819181B9010E943C
:102E4000CE2500000F900F900F90DF91CF91089545
:102E5000CF93DF9300D01F92CDB7DEB79A838983DB
:102E60006B838B81882F90E029813A81820F931F99
:102E7000FC01408189819A81875F9E4FFC0180819E
:102E80009181FC018081882F90E0382F2227898151
:102E90009A81895F9E4FFC0180819181FC01808134
:102EA000882F90E0282B392B89819A81835F9E4F50
:102EB000FC0180819181B9010E94CE2500000F9014
:102EC0000F900F90DF91CF910895CF93DF9300D0B3
:102ED00000D01F92CDB7DEB79A8389837C836B8342
:102EE0004D8389819A81835F9E4FFC01808191810E
:102EF0002B813C814D81B9010E94CE2500000F90AD
:102F00000F900F900F900F90DF91CF910895CF9376
:102F1000DF9300D000D01F92CDB7DEB79A838983AC
:102F20007C836B834D8389819A818F5E9E4FFC01E8
:102F3000808191819C018B819C814D81BC01C90163
:102F40000E94CE2500000F900F900F900F900F90D1
:102F5000DF91CF910895CF93DF9300D01F92CDB72B
:102F6000DEB79A8389836B8389819A8181509F4FD1
:102F70000E941F019C0189819A818F5E9E4FFC01F6
:102F8000808191814B81B9010E94CE2500000F9074
:102F90000F900F90DF91CF910895CF93DF9300D0E2
:102FA0001F92CDB7DEB79A8389836B8389819A811B
:102FB0008D5F9E4F0E941F019C0189819A818F5EC7
:102FC0009E4FFC01808191814B81B9010E94CE25E9
:102FD00000000F900F900F90DF91CF910895CF9345
:102FE000DF9300D01F92CDB7DEB79A8389836B83BE
:102FF00089819A81895F9E4F0E941F019C0189816E
:103000009A818F5E9E4FFC01808191814B81B90135
:103010000E94CE2500000F900F900F90DF91CF916E
:103020000895CF93DF9300D0CDB7DEB79A8389831D
:1030300089819A8181509F4F0E941F019C01898143
:103040009A81895E9E4FFC013183208300000F909E
:103050000F90DF91CF910895CF93DF9300D0CDB73C
:10306000DEB79A83898389819A8181509F4F0E941C
:103070001F019C0189819A818D5F9E4FB9010E9439
:10308000410100000F900F90DF91CF910895CF93F1
:10309000DF9300D0CDB7DEB79A83898389819A8187
:1030A00081509F4F0E941F019C0189819A81895FF5
:1030B0009E4FB9010E94410100000F900F90DF91D7
:1030C000CF910895CF93DF9300D0CDB7DEB79A8329
:1030D000898389819A818D5F9E4F0E941F019C0187
:1030E00089819A81895E9E4FFC0131832083000093
:1030F0000F900F90DF91CF910895CF93DF9300D081
:10310000CDB7DEB79A83898389819A818D5F9E4F7F
:103110000E941F019C0189819A8181509F4FB901B2
:103120000E94410100000F900F90DF91CF91089510
:10313000CF93DF9300D0CDB7DEB79A83898389819F
:103140009A818D5F9E4F0E941F019C0189819A8107
:10315000895F9E4FB9010E94410100000F900F90BE
:10316000DF91CF910895CF93DF9300D0CDB7DEB735
:103170009A83898389819A81895F9E4F0E941F016A
:103180009C0189819A81895E9E4FFC013183208355
:1031900000000F900F90DF91CF910895CF93DF93B0
:1031A00000D0CDB7DEB79A83898389819A81895F00
:1031B0009E4F0E941F019C0189819A8181509F4FDF
:1031C000B9010E94410100000F900F90DF91CF9153
:1031D0000895CF93DF9300D0CDB7DEB79A8389836C
:1031E00089819A81895F9E4F0E941F019C0189817C
:1031F0009A818D5F9E4FB9010E94410100000F909E
:103200000F90DF91CF910895CF93DF9300D0CDB78A
:10321000DEB79A83898389819A81895E9E4FFC01FA
:103220002081318189819A8181509F4FB9010E940B
:10323000410100000F900F90DF91CF910895CF933F
:10324000DF9300D0CDB7DEB79A83898389819A81D5
:10325000895E9E4FFC012081318189819A818D5F39
:103260009E4FB9010E94410100000F900F90DF9125
:10327000CF910895CF93DF9300D0CDB7DEB79A8377
:10328000898389819A81895E9E4FFC0120813181E9
:1032900089819A81895F9E4FB9010E944101000096
:1032A0000F900F90DF91CF910895CF93DF9300D0CF
:1032B00000D0CDB7DEB79A8389836B834C839B8123
:1032C0008C81981741F489819A818F5D9E4F41E0EE
:1032D00063E00E9484019B818C81891740F489817D
:1032E0009A818F5D9E4F41E061E00E9484019B8145
:1032F0008C81981740F489819A818F5D9E4F41E0BF
:1033000062E00E94840100000F900F900F900F90D8
:10331000DF91CF910895CF93DF9300D000D0CDB748
:10332000DEB79A8389836B834C839B818C8198174A
:1033300041F489819A818F5D9E4F41E063E00E9454
:1033400084019B818C81891740F489819A818F5DEA
:103350009E4F41E061E00E9484019B818C8198171F
:1033600040F489819A818F5D9E4F41E062E00E9426
:10337000840100000F900F900F900F90DF91CF917C
:103380000895CF93DF9300D01F92CDB7DEB79A8315
:1033900089836B838B81882F90E02B81222F30E0F3
:1033A00049815A81240F351FF9012081222F30E0F5
:1033B00035952795422F29813A81820F931FFC0171
:1033C000408300000F900F900F90DF91CF910895F0
:1033D000CF93DF9300D01F92CDB7DEB79A83898356
:1033E0006B838B81882F90E02B81222F30E04981E5
:1033F0005A81240F351FF9012081422F440F298162
:103400003A81820F931FFC01408300000F900F90C0
:103410000F90DF91CF910895CF93DF9300D000D02C
:10342000CDB7DEB79A8389837C836B8389819A8148
:103430008F5D9E4F63E00E946601982F81E091307E
:1034400009F080E0882339F02B813C8189819A81C1
:10345000B9010E94411E00000F900F900F900F9035
:10346000DF91CF910895CF93DF9300D000D0CDB7F7
:10347000DEB79A8389837C836B8389819A818F5D90
:103480009E4F63E00E946601982F81E0913009F021
:1034900080E0882381F089819A81875E9E4FFC01BC
:1034A000208131818B819C81280F391F89819A81EC
:1034B000B9010E94411E00000F900F900F900F90D5
:1034C000DF91CF910895CF93DF9300D000D0CDB797
:1034D000DEB79A8389837C836B8389819A818F5D30
:1034E0009E4F63E00E946601982F81E0913009F0C1
:1034F00080E0882381F089819A81875E9E4FFC015C
:10350000208131818B819C81281B390B89819A8193
:10351000B9010E94411E00000F900F900F900F9074
:10352000DF91CF910895CF93DF9300D000D0CDB736
:10353000DEB79A8389837C836B8389819A818F5DCF
:103540009E4F63E00E9466018823A1F489819A81DD
:103550008F5D9E4F61E00E946601813049F0898154
:103560009A818F5D9E4F62E00E946601813011F466
:1035700081E001C080E0882339F02B813C81898182
:103580009A81B9010E94411E00000F900F900F9088
:103590000F90DF91CF910895CF93DF9300D000D0AB
:1035A000CDB7DEB79A8389837C836B8389819A81C7
:1035B0008F5D9E4F63E00E9466018823A1F489819C
:1035C0009A818F5D9E4F61E00E946601813049F0D3
:1035D00089819A818F5D9E4F62E00E9466018130F1
:1035E00011F481E001C080E0882381F089819A8113
:1035F000875E9E4FFC01208131818B819C81280F49
:10360000391F89819A81B9010E94411E00000F90E3
:103610000F900F900F90DF91CF910895CF93DF938C
:1036200000D000D0CDB7DEB79A8389837C836B83CB
:1036300089819A818F5D9E4F63E00E946601882395
:10364000A1F489819A818F5D9E4F61E00E9466019D
:10365000813049F089819A818F5D9E4F62E00E949E
:103660006601813011F481E001C080E0882381F09F
:1036700089819A81875E9E4FFC01208131818B81F7
:103680009C81281B390B89819A81B9010E94411EB6
:1036900000000F900F900F900F90DF91CF91089541
:1036A000CF93DF9300D000D0CDB7DEB79A83898364
:1036B0007C836B8389819A818F5D9E4F63E00E943A
:1036C0006601882349F489819A818F5D9E4F61E06C
:1036D0000E946601882311F081E001C080E0882308
:1036E00039F02B813C8189819A81B9010E94411E68
:1036F00000000F900F900F900F90DF91CF910895E1
:10370000CF93DF9300D000D0CDB7DEB79A83898303
:103710007C836B8389819A818F5D9E4F63E00E94D9
:103720006601882349F489819A818F5D9E4F61E00B
:103730000E946601882311F081E001C080E08823A7
:1037400081F089819A81875E9E4FFC0120813181C1
:103750008B819C81280F391F89819A81B9010E9430
:10376000411E00000F900F900F900F90DF91CF91AE
:103770000895CF93DF9300D000D0CDB7DEB79A8302
:1037800089837C836B8389819A818F5D9E4F63E0FF
:103790000E946601882349F489819A818F5D9E4F3A
:1037A00061E00E946601882311F081E001C080E0A1
:1037B000882381F089819A81875E9E4FFC01208158
:1037C00031818B819C81281B390B89819A81B901B8
:1037D0000E94411E00000F900F900F900F90DF91FC
:1037E000CF910895CF93DF9300D000D0CDB7DEB74F
:1037F0009A8389837C836B8389819A818F5D9E4FB5
:1038000063E00E946601882349F489819A818F5D73
:103810009E4F62E00E946601882311F081E001C0A2
:1038200080E0882339F02B813C8189819A81B9011C
:103830000E94411E00000F900F900F900F90DF919B
:10384000CF910895CF93DF9300D000D0CDB7DEB7EE
:103850009A8389837C836B8389819A818F5D9E4F54
:1038600063E00E946601882349F489819A818F5D13
:103870009E4F62E00E946601882311F081E001C042
:1038800080E0882381F089819A81875E9E4FFC01C8
:10389000208131818B819C81280F391F89819A81F8
:1038A000B9010E94411E00000F900F900F900F90E1
:1038B000DF91CF910895CF93DF9300D000D0CDB7A3
:1038C000DEB79A8389837C836B8389819A818F5D3C
:1038D0009E4F63E00E946601882349F489819A81A2
:1038E0008F5D9E4F62E00E946601882311F081E0A7
:1038F00001C080E0882381F089819A81875E9E4F94
:10390000FC01208131818B819C81281B390B8981AD
:103910009A81B9010E94411E00000F900F900F90F4
:103920000F90DF91CF910895CF93DF9300D000D017
:10393000CDB7DEB79A8389837C836B8389819A8133
:103940008F5D9E4F63E00E946601882359F4898150
:103950009A818F5D9E4F61E00E946601882311F07D
:1039600081E001C080E0882339F02B813C8189818E
:103970009A81B9010E94411E00000F900F900F9094
:103980000F90DF91CF910895CF93DF9300D000D0B7
:10399000CDB7DEB79A8389837C836B8389819A81D3
:1039A0008F5D9E4F63E00E946601882359F48981F0
:1039B0009A818F5D9E4F61E00E946601882311F01D
:1039C00081E001C080E0882381F089819A81875E4F
:1039D0009E4FFC01208131818B819C81280F391FF2
:1039E00089819A81B9010E94411E00000F900F90B9
:1039F0000F900F90DF91CF910895CF93DF9300D078
:103A000000D0CDB7DEB79A8389837C836B838981AD
:103A10009A818F5D9E4F63E00E946601882359F46E
:103A200089819A818F5D9E4F61E00E9466018823A3
:103A300011F081E001C080E0882381F089819A81C2
:103A4000875E9E4FFC01208131818B819C81281BE8
:103A5000390B89819A81B9010E94411E00000F90A3
:103A60000F900F900F90DF91CF910895CF93DF9338
:103A700000D000D0CDB7DEB79A8389837C836B8377
:103A800089819A818F5D9E4F63E00E946601882341
:103A900059F489819A818F5D9E4F62E00E94660190
:103AA000882311F081E001C080E0882339F02B8168
:103AB0003C8189819A81B9010E94411E00000F90CA
:103AC0000F900F900F90DF91CF910895CF93DF93D8
:103AD00000D000D0CDB7DEB79A8389837C836B8317
:103AE00089819A818F5D9E4F63E00E9466018823E1
:103AF00059F489819A818F5D9E4F62E00E94660130
:103B0000882311F081E001C080E0882381F0898161
:103B10009A81875E9E4FFC01208131818B819C813F
:103B2000280F391F89819A81B9010E94411E000026
:103B30000F900F900F900F90DF91CF910895CF933A
:103B4000DF9300D000D0CDB7DEB79A8389837C8322
:103B50006B8389819A818F5D9E4F63E00E9466012D
:103B6000882359F489819A818F5D9E4F62E00E947B
:103B70006601882311F081E001C080E0882381F094
:103B800089819A81875E9E4FFC01208131818B81E2
:103B90009C81281B390B89819A81B9010E94411EA1
:103BA00000000F900F900F900F90DF91CF9108952C
:103BB000CF93DF9300D01F92CDB7DEB79A8389836E
:103BC0006B838B81882F90E029813A81820F931F2C
:103BD000FC01108200000F900F900F90DF91CF91A9
:103BE0000895CF93DF9300D0CDB7DEB79A83898352
:103BF000000000000F900F90DF91CF9108950F9378
:103C00001F93CF93DF9300D000D0CDB7DEB79A8358
:103C100089837C836B8389819A81895E9E4FFC01B5
:103C200080819181282F89819A81622F0E945C1E58
:103C30002B813C8189819A81B9010E94411E898131
:103C40009A810E94CA1E882F90E0182F0027898130
:103C50009A810E94CA1E882F90E0802B912B9C0194
:103C600089819A81875E9E4FFC0131832083000009
:103C70000F900F900F900F90DF91CF911F910F91A8
:103C80000895CF93DF9300D000D0CDB7DEB79A83ED
:103C900089837C836B8389819A81875E9E4F2B8188
:103CA0003C81FC013183208300000F900F900F9026
:103CB0000F90DF91CF910895CF93DF9300D01F92A3
:103CC000CDB7DEB79A8389836B838B81882F90E091
:103CD00029813A81820F931FFC01408189819A8159
:103CE000895E9E4FFC012081318189819A81815FAB
:103CF0009E4FFC0180819181B9010E94CE2589816E
:103D00009A81895E9E4FFC01808191819C012150A6
:103D1000310989819A81895E9E4FFC01318320831C
:103D200000000F900F900F90DF91CF910895CF93E7
:103D3000DF9300D01F92CDB7DEB79A8389836B8360
:103D400089819A81895E9E4FFC0120813181898120
:103D50009A81815F9E4FFC01808191814B81B901E5
:103D60000E94CE2589819A81895E9E4FFC018081C7
:103D700091819C012150310989819A81895E9E4FF0
:103D8000FC013183208300000F900F900F90DF9192
:103D9000CF910895CF93DF9300D01F92CDB7DEB7B8
:103DA0009B838A838A819B81895E9E4FFC018081EF
:103DB00091819C018A819B81815F9E4FFC01808162
:103DC0009181B9010E94AC2589838A819B81895E9A
:103DD0009E4FFC01808191819C012F5F3F4F8A8122
:103DE0009B81895E9E4FFC013183208389810F90E6
:103DF0000F900F90DF91CF9108950F931F93CF9362
:103E0000DF9300D01F92CDB7DEB79A8389836B838F
:103E10008B81082F10E089819A81895E9E4FFC0179
:103E2000808191819C0189819A81815F9E4FFC01F3
:103E300080819181B9010E94AC25282F89819A81C6
:103E4000800F911FFC01208389819A81895E9E4F9A
:103E5000FC01808191819C012F5F3F4F89819A8174
:103E6000895E9E4FFC013183208300000F900F90EC
:103E70000F90DF91CF911F910F910895CF93DF9312
:103E800000D01F92CDB7DEB79A8389836B838B8175
:103E9000882F90E02B81222F30E049815A81240F16
:103EA000351FF9012081222F30E022953295307F95
:103EB0003227207F3227622F2B81222F30E0498149
:103EC0005A81240F351FF9012081222F30E03595CA
:103ED0002795359527953595279535952795262B43
:103EE000422F29813A81820F931FFC0140830000F9
:103EF0000F900F900F90DF91CF910895CF93DF93A4
:103F0000CDB7DEB762970FB6F894DEBF0FBECDBF58
:103F10009A8B898B89899A89FC018081882309F091
:103F200085C089899A89FC018181882F90E09A83D4
:103F3000898380E090E0A0E8BFE38B839C83AD831E
:103F4000BE8320E030E04AE753E46B817C818D81C1
:103F50009E810E941F2BDC01CB018F839887A9874C
:103F6000BA8720E030E040E85FE36F81788589859B
:103F70009A850E94992A88232CF481E090E09C87FE
:103F80008B873EC020E03FEF4FE757E46F81788595
:103F900089859A850E941A2B181644F520E030E096
:103FA00040E251E46B817C818D819E810E941F2BB8
:103FB000DC01CB01BC01CD010E949E2ADC01CB01BA
:103FC0009C878B878B859C85892B21F189E190E0EB
:103FD0009E878D878D859E850197F1F79E878D87BA
:103FE0008B859C8501979C878B87ECCF6F8178852B
:103FF00089859A850E949E2ADC01CB019C878B874C
:104000008B859C85988B8F878F8598890197F1F791
:10401000988B8F8789819A8101979A838983898177
:104020009A81181619060CF080C083CF89899A8965
:10403000FC018081813011F589899A89FC01818197
:10404000882331F089899A89FC018281882331F49F
:1040500089899A8921E0FC01238367C089899A892B
:10406000FC01218189899A89FC018281289F202D68
:10407000112489899A89FC01238357C089899A89E7
:10408000FC018081823031F589899A89FC01828125
:10409000882351F489899A89FC01138289899A8934
:1040A00021E0FC01248341C089899A89FC01218196
:1040B00089899A89FC019281822F692F0E94B42BF1
:1040C000282F89899A89FC01238389899A89FC018F
:1040D00014822BC089899A89FC018081833011F474
:1040E00082E624C089899A89FC018081843011F498
:1040F00082E61CC089899A89FC018081853011F48F
:1041000082E614C089899A89FC018081863069F031
:1041100089899A89FC0180818F3F39F489899A893C
:1041200021E0FC01218385E601C080E062960FB6A4
:10413000F894DEBF0FBECDBFDF91CF910895CF932E
:10414000DF9300D01F92CDB7DEB79A8389836B834C
:1041500089819A818F5D9E4F0E94490200000F90D5
:104160000F900F90DF91CF910895CF93DF9300D000
:10417000CDB7DEB79A83898300000F900F90DF914F
:10418000CF910895CF93DF9300D000D0CDB7DEB7A5
:104190009C838B831A82198289819A818F3F910532
:1041A00070F42B813C8189819A81820F931FFC01DD
:1041B000108289819A8101969A838983EDCF0000CC
:1041C0000F900F900F900F90DF91CF910895CF93A4
:1041D000DF9300D0CDB7DEB79A83898389819A8136
:1041E000855F9E4FFC011182108289819A81835FD5
:1041F0009E4FFC011182108289819A81815F9E4FBE
:10420000FC011182108289819A818F5E9E4FFC0190
:104210001182108289819A818D5E9E4FFC011182EC
:10422000108289819A818B5E9E4FFC0111821082DF
:1042300000000F900F90DF91CF910895CF93DF93FF
:1042400000D0CDB7DEB79A83898300000F900F901E
:10425000DF91CF910895CF93DF9300D0CDB7DEB734
:104260009A83898300000F900F90DF91CF9108957A
:10427000CF93DF9300D000D000D0CDB7DEB79A83C4
:1042800089834B835C836D837E8329813A818B8113
:104290009C81AD81BE81F90184839583A683B78318
:1042A000000026960FB6F894DEBF0FBECDBFDF919B
:1042B000CF910895CF93DF9300D0CDB7DEB79A8327
:1042C000898389819A81FC0184819581A681B78146
:1042D0000196A11DB11D29813A81F90122853385FD
:1042E000AC01BD01C9010E944A248FEF0F900F90CD
:1042F000DF91CF910895CF93DF9300D0CDB7DEB794
:104300009A83898300000F900F90DF91CF910895D9
:10431000CF93DF9300D0CDB7DEB79A8389830000B7
:104320000F900F90DF91CF910895CF93DF9300D03E
:10433000CDB7DEB79A83898389E290E0FC01808162
:104340000F900F90DF91CF910895CF93DF9300D01E
:104350001F92CDB7DEB79A8389836B8388E290E0A2
:104360002B81FC01208300000F900F900F90DF91B4
:10437000CF910895CF93DF9300D01F92CDB7DEB7D2
:104380009A8389836B8381E290E02B81FC012083F7
:1043900000000F900F900F90DF91CF910895CF9371
:1043A000DF9300D01F92CDB7DEB79A8389836B83EA
:1043B00084E290E02B81FC01208300000F900F909D
:1043C0000F90DF91CF910895CF93DF9300D01F928C
:1043D000CDB7DEB79A8389836B8387E290E02B8128
:1043E000FC01208300000F900F900F90DF91CF9180
:1043F0000895CF93DF9300D01F92CDB7DEB79A8395
:1044000089836B838AE290E02B81FC01208300008A
:104410000F900F900F90DF91CF910895CF93DF937E
:1044200000D000D0CDB7DEB79A8389836B834C83ED
:104430008B81882369F08B81893050F48B812FEF39
:10444000280F89819A814C81622F0E94602230C09E
:104450008B818E3068F08B81863150F48B8123EF15
:10446000280F89819A814C81622F0E94602220C08E
:104470008B81863168F08B818E3150F48B812BEEED
:10448000280F89819A814C81622F0E94602210C07E
:104490008B81813268F08B81893250F48B8120EEE0
:1044A000280F89819A814C81622F0E94602200C06E
:1044B00000000F900F900F900F90DF91CF91089513
:1044C000CF93DF9300D000D0CDB7DEB79A83898336
:1044D0006B834C838C818823A9F082E290E022E2F6
:1044E00030E0F9012081622F2B81422F50E021E042
:1044F00030E002C0220F331F4A95E2F7262BFC0161
:10450000208315C082E290E022E230E0F9012081B0
:10451000622F2B81422F50E021E030E002C0220FB9
:10452000331F4A95E2F720952623FC0120830000E3
:104530000F900F900F900F90DF91CF910895CF9330
:10454000DF9300D0CDB7DEB79A83898300000F9048
:104550000F90DF91CF9108950F931F93CF93DF9327
:10456000CDB7DEB727970FB6F894DEBF0FBECDBF2D
:104570009A8389836B834C832D831F830E83898168
:104580009A812B81FC01208389819A812C81FC01F5
:10459000218389819A812D81FC01228389819A81DD
:1045A0002E813F81FC013487238789819A81FC0118
:1045B0001382FC011482FC011582FC011682FC01AD
:1045C0001782FC011086FC011186FC011286000096
:1045D00027960FB6F894DEBF0FBECDBFDF91CF9107
:1045E0001F910F910895CF93DF9300D000D0CDB7E6
:1045F000DEB79B838A836C8319828981883008F0B7
:104600004CC08C81882F90E02981222F30E047E038
:1046100050E0BA01621B730B9B0102C09595879510
:104620002A95E2F7019771F48A819B81FC01208130
:104630008A819B81FC018385948541E0622F0E94E1
:104640000E220DC08A819B81FC0120818A819B8181
:10465000FC018385948540E0622F0E940E228A81AE
:104660009B81FC0121818A819B81FC01838594854A
:1046700041E0622F0E940E228A819B81FC012181F0
:104680008A819B81FC018385948540E0622F0E9492
:104690000E2289818F5F8983B0CF8A819B81FC0143
:1046A00022818A819B81FC018385948541E0622F70
:1046B0000E940E228A819B81FC0122818A819B813A
:1046C000FC018385948540E0622F0E940E22000049
:1046D0000F900F900F900F90DF91CF910895CF938F
:1046E000DF93CDB7DEB728970FB6F894DEBF0FBEC5
:1046F000CDBF9E838D8378876F838F819885892F27
:1047000099278B838F818C8319828981803108F06E
:104710004CC08C81882F90E02981222F30E04FE01F
:1047200050E0BA01621B730B9B0102C095958795FF
:104730002A95E2F7019771F48D819E81FC01208119
:104740008D819E81FC018385948541E0622F0E94CA
:104750000E220DC08D819E81FC0120818D819E8164
:10476000FC018385948540E0622F0E940E228D819A
:104770009E81FC0121818D819E81FC018385948530
:1047800041E0622F0E940E228D819E81FC012181D9
:104790008D819E81FC018385948540E0622F0E947B
:1047A0000E2289818F5F8983B0CF1A828A818830F7
:1047B00008F04CC08B81882F90E02A81222F30E0B6
:1047C00047E050E0BA01621B730B9B0102C0959554
:1047D00087952A95E2F7019771F48D819E81FC01FE
:1047E00020818D819E81FC018385948541E0622F2B
:1047F0000E940E220DC08D819E81FC0120818D8141
:104800009E81FC018385948540E0622F0E940E22E8
:104810008D819E81FC0121818D819E81FC0183859A
:10482000948541E0622F0E940E228D819E81FC01C1
:1048300021818D819E81FC018385948540E0622FDA
:104840000E940E228A818F5F8A83B0CF8D819E81E4
:10485000FC0122818D819E81FC018385948541E04C
:10486000622F0E940E228D819E81FC0122818D810A
:104870009E81FC018385948540E0622F0E940E2278
:10488000000028960FB6F894DEBF0FBECDBFDF91B3
:10489000CF910895CF93DF93CDB7DEB727970FB6AB
:1048A000F894DEBF0FBECDBF9B838A834C835D83AC
:1048B0006E837F8319828981803208F04FC089819D
:1048C000882F90E02FE130E0281B390B8C819D81EF
:1048D000AE81BF8104C0B695A795979587952A9517
:1048E000D2F70197A105B10571F48A819B81FC0182
:1048F00020818A819B81FC018385948541E0622F20
:104900000E940E220DC08A819B81FC0120818A8138
:104910009B81FC018385948540E0622F0E940E22DA
:104920008A819B81FC0121818A819B81FC01838595
:10493000948541E0622F0E940E228A819B81FC01B6
:1049400021818A819B81FC018385948540E0622FCF
:104950000E940E2289818F5F8983ADCF8A819B81DE
:10496000FC0122818A819B81FC018385948541E041
:10497000622F0E940E228A819B81FC0122818A8102
:104980009B81FC018385948540E0622F0E940E226A
:10499000000027960FB6F894DEBF0FBECDBFDF91A3
:1049A000CF910895CF93DF9300D0CDB7DEB79A8330
:1049B000898300000F900F90DF91CF910895CF92DF
:1049C000DF92EF92FF920F931F93CF93DF93CDB7B8
:1049D000DEB72E970FB6F894DEBF0FBECDBF9A8319
:1049E00089837C836B835E834D83CF82D886E986FF
:1049F000FA860B871C872D873E8789819A812B81B8
:104A00003C81FC013583248389819A812D813E81FB
:104A1000FC01378326832F81388589819A81FC01A7
:104A20003383228389819A81FC01118210820000E4
:104A30002E960FB6F894DEBF0FBECDBFDF91CF919B
:104A40001F910F91FF90EF90DF90CF900895CF933B
:104A5000DF9300D000D0CDB7DEB79A8389837C8303
:104A60006B832B813C8189819A81FC0186819781AE
:104A7000B9010E946F2389819A81FC01848195810B
:104A80000E9495210F900F900F900F90DF91CF9182
:104A90000895CF93DF9300D0CDB7DEB79A83898393
:104AA00000000F900F90DF91CF910895EF92FF9249
:104AB0000F931F93CF93DF93CDB7DEB72B970FB62E
:104AC000F894DEBF0FBECDBF9A8389837C836B834E
:104AD0005E834D832F83E886F9860A871B87898149
:104AE0009A812B813C81FC013383228389819A81C5
:104AF0002D813E81FC013583248389819A812F8118
:104B0000FC01218329813A8188859985AA85BB8505
:104B1000F90180879187A287B38789819A81FC01F7
:104B2000108289819A81FC01218189819A81FC010D
:104B30008281938141E0622F0E940E2200002B9619
:104B40000FB6F894DEBF0FBECDBFDF91CF911F919E
:104B50000F91FF90EF900895CF93DF9300D000D096
:104B6000CDB7DEB79A8389837C836B832B813C81AD
:104B700089819A81FC0184819581B9010E946F230A
:104B800089819A81FC01828193810E9495210F90F5
:104B90000F900F900F90DF91CF910895CF93DF93F7
:104BA000CDB7DEB763970FB6F894DEBF0FBECDBFAB
:104BB000988B8F877A8B698B4B8B8F859889FC01BB
:104BC0008481958129893A89B9010E946F238F8553
:104BD0009889FC0186819781892B49F48F85988972
:104BE000FC01828193816B890E94A52108C08F8579
:104BF0009889FC01868197816B890E94F3228F85B9
:104C00009889FC0121818F859889FC01828193819B
:104C100040E0622F0E940E2280E090E0A0E8BFE317
:104C200089839A83AB83BC8320E030E04AE753E476
:104C300069817A818B819C810E941F2BDC01CB01D1
:104C40008D839E83AF83B88720E030E040E85FE348
:104C50006D817E818F8198850E94992A88232CF40A
:104C600081E090E09A8789873EC020E03FEF4FE7E0
:104C700057E46D817E818F8198850E941A2B1816CA
:104C800044F520E030E040E251E469817A818B8193
:104C90009C810E941F2BDC01CB01BC01CD010E9435
:104CA0009E2ADC01CB019A87898789859A85892B81
:104CB00021F189E190E09C878B878B859C8501970A
:104CC000F1F79C878B8789859A8501979A878987D1
:104CD000ECCF6D817E818F8198850E949E2ADC01B8
:104CE000CB019A87898789859A859E878D878D854F
:104CF0009E850197F1F79E878D878F859889FC01A6
:104D000021818F859889FC018281938141E0622F06
:104D10000E940E22000063960FB6F894DEBF0FBE0D
:104D2000CDBFDF91CF910895CF93DF9300D0CDB762
:104D3000DEB79A83898300000F900F90DF91CF91A7
:104D400008958F929F92AF92BF92CF92DF92EF928F
:104D5000FF920F931F93CF93DF93CDB7DEB760978A
:104D60000FB6F894DEBF0FBECDBF9A8389837C83D4
:104D70006B835E834D832F83088789869A86AB86F3
:104D8000BC86CD86DE86EF86F88A89859A85AB85D6
:104D9000BC85E981FA814D815E816B817C817C01DA
:104DA0008D012F81CF010E94562589819A81288506
:104DB000FC012487000060960FB6F894DEBF0FBE9A
:104DC000CDBFDF91CF911F910F91FF90EF90DF90BA
:104DD000CF90BF90AF909F908F900895CF93DF9327
:104DE00000D0CDB7DEB79A83898389819A810E94EA
:104DF000942600000F900F90DF91CF910895CF93EC
:104E0000DF93CDB7DEB727970FB6F894DEBF0FBE9E
:104E1000CDBF8F8385E391E09E838D838F8188232F
:104E200029F48DEA91E09A83898312C08F818130C1
:104E300029F485EB91E09A8389830AC08F818230BF
:104E400029F48DEB91E09A83898302C085E61DC029
:104E50001C821B828B819C818F3F9F41A8F42B81F8
:104E60003C8189819A81B9010E942725482F2B8195
:104E70003C818D819E81B9010E94CE258B819C81D0
:104E800001969C838B83E6CF84E727960FB6F89430
:104E9000DEBF0FBECDBFDF91CF910895CF93DF93DB
:104EA000CDB7DEB72E970FB6F894DEBF0FBECDBFDD
:104EB000198282E290E0FC0110826FEF86E091E0BF
:104EC0000E94BA216FEF86E091E00E94E42160E049
:104ED00086E091E00E94CF2160E086E091E00E94B0
:104EE000F92181E491E090931D0380931C0381EAF2
:104EF00091E090931F0380931E038DED91E09093BA
:104F00002103809320038DEE91E0909323038093FF
:104F100022038DEF91E0909325038093240381E396
:104F200093E00E945A21882F90E09D838C8381E337
:104F300093E00E945A21882F90E061E070E00E9487
:104F4000C62B9F838E838E819F8160E270E00E94DA
:104F50002D2D99878887288539858E819F81A90184
:104F6000481B590BCA010E94E22B9B878A871B8230
:104F70001A82288539858E819F81281B390B8A8169
:104F80009B8182179307B4F48A819B812A853B8594
:104F9000820F931F2A813B814E815F81240F351F31
:104FA000F9012081FC0120838A819B8101969B83EA
:104FB0008A83DFCF8A859B8568E970E00E94032D94
:104FC000892B31F48FE092E00E94CE03898345C0A3
:104FD0008A859B856CE970E00E94032D892B31F452
:104FE0008FE092E00E94CE03898337C08A859B853B
:104FF0006FE970E00E94032D892B79F18A859B85EA
:105000006CEA70E00E94032D892B39F58E819F8117
:1050100062EA70E00E940C2D892BF9F01E861D8635
:10502000CE010D96292F2F938F9381EB90E0892F3E
:105030008F9381EB90E08F938F818F938E818F93ED
:105040000E94382D0F900F900F900F900F900F909F
:105050008D859E850E94FF268C878981882331F16A
:1050600089818236E1F480910F028430F9F48091D5
:1050700010028823D9F0809110028A30B8F4809110
:105080001002882F90E0880F991F8E539F4FFC01CC
:105090008081918190931D0380931C0307C08981B7
:1050A000853621F48FE092E00E94C2208A859B859C
:1050B0000E947A2C8E819F810E947A2C30CF8F9211
:1050C0009F92AF92BF92CF92DF92EF92FF920F9397
:1050D0001F93CF93DF9300D000D0CDB7DEB79A8374
:1050E00089837C836B8389819A81019709F07FC1D1
:1050F0008B819C81019609F07AC186E091E00E9443
:10510000882106E011E026E247E268E287E091E0CC
:105110000E94AC2206E011E023E244E265E284E171
:1051200091E00E94AC220F2EF1E2EF2EF02D02E270
:1051300023E046E051E064E171E081E291E00E9409
:105140009800E12CF12C870121E047E051E066E076
:1051500071E089E291E00E945625E12C10E2F12EE7
:1051600000E010E021E047E051E066E071E085E317
:1051700091E00E945625E12C10E4F12E00E010E0B1
:1051800021E047E051E066E071E081E491E00E94B7
:105190005625E12C10E6F12E00E010E021E047E07A
:1051A00051E066E071E08DE491E00E945625E12C2B
:1051B00010E8F12E00E010E021E047E051E066E069
:1051C00071E089E591E00E945625E12C10EAF12E6C
:1051D00000E010E021E047E051E066E071E085E6A4
:1051E00091E00E945625E12C10ECF12E00E010E039
:1051F00021E047E051E066E071E081E791E00E9444
:105200005625E12C10EEF12E00E010E021E047E001
:1052100051E066E071E08DE791E00E945625E12CB7
:10522000F12C01E010E021E047E051E066E071E0A0
:1052300089E891E00E945625E12C10E2F12E01E070
:1052400010E021E047E051E066E071E085E991E09F
:105250000E945625E12C10E4F12E01E010E021E03F
:1052600047E051E066E071E081EA91E00E94562556
:10527000C12C0F2EF0E6DF2EF02DEE24E394F12C5E
:1052800000E010E020E030E047E051E066E071E04F
:105290008DEA91E00E94DF24C12C6894DD24D7F8C8
:1052A000EE24E394F12C00E010E020E030E047E051
:1052B00051E066E071E085EB91E00E94DF24C12CB3
:1052C0000F2EF0EADF2EF02DEE24E394F12C00E017
:1052D00010E020E030E047E051E066E071E08DEB67
:1052E00091E00E94DF24C12C0F2EF0ECDF2EF02D78
:1052F000EE24E394F12C00E010E020E030E047E001
:1053000051E066E071E085EC91E00E94DF24C12C61
:105310000F2EF0EEDF2EF02DEE24E394F12C00E0C2
:1053200010E020E030E047E051E066E071E08DEC15
:1053300091E00E94DF24C12CD12C6894EE24E1F886
:10534000F12C00E010E020E030E047E051E066E0C2
:1053500071E085ED91E00E94DF24812C912CA12C3D
:10536000B12CC12CD12CE12CF12C02E021E047E042
:1053700051E066E071E08DED91E00E94A126812C64
:105380006894992495F8A12CB12CC12CD12CE12C36
:10539000F12C02E021E047E051E066E071E08DEEA3
:1053A00091E00E94A126812C6894992496F8A12C62
:1053B000B12CC12CD12CE12CF12C02E021E047E0F2
:1053C00051E066E071E08DEF91E00E94A1268DE052
:1053D00092E00E941E218FE092E00E946B0241E069
:1053E00050E262E070E081E393E00E94382189811D
:1053F0009A81892B09F071C08B819C81019609F0FB
:105400006CC081E393E00E947B218FE092E00E94D8
:10541000E7208DE092E00E942B218DEF91E00E9429
:10542000EE268DEE91E00E94EE268DED91E00E9439
:10543000EE2685ED91E00E9449258DEC91E00E94D9
:10544000492585EC91E00E9449258DEB91E00E9471
:10545000492585EB91E00E9449258DEA91E00E9463
:10546000492581EA91E00E94942685E991E00E9415
:10547000942689E891E00E9494268DE791E00E94AD
:10548000942681E791E00E94942685E691E00E94AF
:10549000942689E591E00E9494268DE491E00E9493
:1054A000942681E491E00E94942685E391E00E9495
:1054B000942689E291E00E94942681E291E00E9484
:1054C000D60084E191E00E94D22487E091E00E941E
:1054D000D22486E091E00E949F2200000F900F905E
:1054E0000F900F90DF91CF911F910F91FF90EF9050
:1054F000DF90CF90BF90AF909F908F900895CF9303
:10550000DF93CDB7DEB76FEF7FEF81E090E00E94D1
:105510005F28DF91CF910895CF93DF93CDB7DEB7AA
:105520006FEF7FEF80E090E00E945F28DF91CF91E6
:1055300008950E94CD2A08F481E008950E94F92A76
:1055400088F09F5798F0B92F9927B751B0F0E1F044
:10555000660F771F881F991F1AF0BA95C9F714C0F4
:10556000B13091F00E94132BB1E008950C94132BED
:10557000672F782F8827B85F39F0B93FCCF386952D
:1055800077956795B395D9F73EF49095809570958A
:1055900061957F4F8F4F9F4F0895990F0008550FCA
:1055A000AA0BE0E8FEEF16161706E807F907C0F0A9
:1055B00012161306E407F50798F0621B730B840BB1
:1055C000950B39F40A2661F0232B242B252B21F48B
:1055D00008950A2609F4A140A6958FEF811D811D2B
:1055E000089557FD9058440F551F59F05F3F71F0D3
:1055F0004795880F97FB991F61F09F3F79F087953A
:105600000895121613061406551FF2CF4695F1DFC2
:1056100008C0161617061806991FF1CF8695710552
:10562000610508940895E894BB2766277727CB0186
:1056300097F908950E94CD2A08F48FEF08950E94EB
:10564000322B0C94A32B0E94952B38F00E949C2B9C
:1056500020F0952311F00C948C2B0C94922B112498
:105660000C94142B0E94F12A70F3959FC1F3950FAF
:1056700050E0551F629FF001729FBB27F00DB11DD6
:10568000639FAA27F00DB11DAA1F649F6627B00D66
:10569000A11D661F829F2227B00DA11D621F739F4F
:1056A000B00DA11D621F839FA00D611D221F749F5D
:1056B0003327A00D611D231F849F600D211D822FA4
:1056C000762F6A2F11249F5750409AF0F1F08823CB
:1056D0004AF0EE0FFF1FBB1F661F771F881F9150F8
:1056E0005040A9F79E3F510580F00C948C2B0C94F0
:1056F000142B5F3FE4F3983ED4F386957795679536
:10570000B795F795E7959F5FC1F7FE2B880F911D21
:105710009695879597F9089597F99F6780E870E0C7
:1057200060E008959FEF80EC089500240A94161617
:10573000170618060906089500240A94121613067F
:10574000140605060895092E0394000C11F488230D
:1057500052F0BB0F40F4BF2B11F460FF04C06F5F29
:105760007F4F8F4F9F4F0895991B79E004C0991F79
:10577000961708F0961B881F7A95C9F780950895AB
:10578000EE0FFF1F0590F491E02D09940F931F93E6
:10579000CF93DF93869F8001879F100D969F100DFA
:1057A0001124C8010E94E22BEC01009729F0A80106
:1057B00060E070E00E94262DCE01DF91CF911F9115
:1057C0000F9108950F931F93CF93DF93823091052C
:1057D00010F482E090E0E0914103F091420320E078
:1057E00030E0A0E0B0E0309719F1408151810281B2
:1057F000138148175907C8F08417950769F4109763
:1058000031F012960C93129713961C9327C00093B5
:1058100041031093420322C02115310519F04217AC
:10582000530718F49A01BD01EF01DF01F801DBCF46
:1058300021153105F9F0281B390B2430310580F48E
:105840008A819B816115710521F0FB01938382831D
:1058500004C09093420380934103FE01329644C0FA
:10586000FE01E20FF31F8193919322503109398396
:1058700028833AC020913F0330914003232B41F409
:1058800020910201309103013093400320933F03A4
:1058900020910001309101012115310541F42DB70E
:1058A0003EB74091040150910501241B350BE09156
:1058B0003F03F0914003E217F307A0F42E1B3F0BC8
:1058C0002817390778F0AC014E5F5F4F2417350772
:1058D00048F04E0F5F1F5093400340933F03819366
:1058E000919302C0E0E0F0E0CF01DF91CF911F91F2
:1058F0000F910895CF93DF93009709F481C0FC01C5
:10590000329713821282A0914103B0914203109703
:1059100081F420813181820F931F20913F033091C8
:1059200040032817390751F5F0934003E0933F03F4
:1059300067C0ED0120E030E0CE17DF0740F44A8178
:105940005B819E0141155105F1F0EA01F5CFD3834A
:10595000C28340815181840F951FC817D90759F41C
:1059600088819981840F951F0296918380838A8113
:105970009B81938382832115310529F4F09342039F
:10598000E09341033DC0E901FB83EA8349915991CA
:10599000C40FD51FEC17FD0761F480819181840F3E
:1059A000951F0296E90199838883828193819B8365
:1059B0008A83E0E0F0E012968D919C911397009716
:1059C00019F0FD01DC01F7CF8D919C9111979D019C
:1059D0002E5F3F4F820F931F20913F033091400372
:1059E0002817390769F4309729F41092420310926E
:1059F000410302C013821282B0934003A0933F037D
:105A0000DF91CF910895FB01DC018D910590801904
:105A10000110D9F3990B0895FB0155915523A9F075
:105A2000BF01DC014D9145174111E1F759F4CD015A
:105A30000590002049F04D9140154111C9F3FB013B
:105A40004111EFCF81E090E001970895DC0101C0A2
:105A50006D9341505040E0F70895FC018191861705
:105A600021F08823D9F7992708953197CF01089518
:105A7000AEE0B0E0EEE3FDE20C947C308DE08C8390
:105A80008B899C899A838983AE01495E5F4F6D89BA
:105A90007E89CE0101960E94ED2E2E96E2E00C94B6
:105AA000983020FD09C0FC0123FD05C022FF02C083
:105AB0007383628351834083089544FD17C046FD7C
:105AC00017C0AB01BC01DA01FB01AA0FBB1FEE1F1F
:105AD000FF1F1094D1F74A0F5B1F6E1F7F1FCB0172
