:100000000C9440000C9468000C9468000C946800F8
:100010000C9468000C9468000C9468000C946800C0
:100020000C9468000C9468000C9468000C946800B0
:100030000C9468000C9468000C9468000C946800A0
:100040000C9468000C9468000C9468000C94680090
:100050000C9468000C9468000C9468000C94680080
:100060000C9468000C9468000C9468000C94680070
:100070000C9468000C9468000C946800EE0D7E0FE0
:1000800011241FBECFEFD0E1DEBFCDBF11E0A0E055
:10009000B1E0E8EAF2E202C005900D92AE30B1079D
:1000A000D9F723E0AEE0B1E001C01D92AC39B20750
:1000B000E1F710E0CFE3D0E004C02197FE010E94F9
:1000C0000D10CE33D107C9F70E94C30D0C94471110
:1000D0000C940000EF920F93FC01738362835183B1
:1000E000408325830683E7820F91EF90089508955A
:1000F000CF93DF93EC01C55FDE4F2FEF3FE13983F4
:100100002883DC01A55EBE4FBC01615F7E4F119666
:100110007C936E939C01235E3E4F1897F901B18347
:10012000A083AC01415E5E4F26503109FA01318354
:1001300020834E5F5F4FFA01108247515109F90148
:10014000518340832E5F3F4FF901D183C0832151FA
:10015000310911963C932E9312962F5F3F4F2D93AA
:100160003C9323503109FB01318320833296895F10
:100170009E4F91838083DF91CF9108950F931F93BA
:10018000CF93DF93EC018B018A819B810E945E0DEE
:1001900041E0480FB8018A819B810E946C0DDF917C
:1001A000CF911F910F9108950F931F93CF93DF93DA
:1001B000EC018B018A819B810E945E0D4FEF480FFD
:1001C000B8018A819B810E946C0DDF91CF911F91B4
:1001D0000F9108951F93CF93DF93EC01162FBA016F
:1001E0008A819B810E945E0DC10FD11D8C87DF919A
:1001F000CF911F910895FC01E15FFE4FA281B38171
:100200004C9150E0542F44270190F081E02D208143
:10021000422B0E94EA000895FC01ED5EFE4FA28190
:10022000B3814C9150E0542F44270190F081E02D90
:100230002081422B0E94EA000895FC01E95EFE4FF6
:10024000A281B3814C9150E0542F44270190F0815A
:10025000E02D2081422B0E94EA000895FC01E60F68
:10026000F11DDC01AF5EBE4F0D90BC91A02D6C91D5
:1002700070E0762F6627DC01A15FBE4F0D90BC9128
:10028000A02D2C91622B4485FC01828193810E94D8
:100290006C0D0895FC01E60FF11DDC01AB5EBE4F55
:1002A0000D90BC91A02D6C9170E0762F6627DC013B
:1002B000AD5EBE4F0D90BC91A02D2C91622B44855C
:1002C000FC01828193810E946C0D0895FC01E60F70
:1002D000F11DDC01A75EBE4F0D90BC91A02D6C916D
:1002E00070E0762F6627DC01A95EBE4F0D90BC91B1
:1002F000A02D2C91622B4485FC01828193810E9468
:100300006C0D0895FC01828193810E946C0D08950B
:10031000FC01868197810E946C0D0895462FFC0197
:10032000E15FFE4FA281B3812C9130E0322F222772
:100330000190F081E02D5081B901652BFC0186818F
:1003400097810E946C0D0895462FFC01ED5EFE4FD3
:10035000A281B3812C9130E0322F22270190F081CD
:10036000E02D5081B901652BFC01868197810E94A7
:100370006C0D0895462FFC01E95EFE4FA281B3810A
:100380002C9130E0322F22270190F081E02D508116
:10039000B901652BFC01868197810E946C0D08953F
:1003A000CF93DF93DC01A55FBE4FFC01E15FFE4F01
:1003B000C281D3819881892F90E0982F882701905E
:1003C000F081E02D2081822B8D939C93DF91CF9142
:1003D0000895FC01E15FFE4FA281B3812C9130E0D2
:1003E000322F22270190F081E02D4081242BFC0147
:1003F000ED5EFE4FA281B3813C930190F081E02D30
:1004000020830895FC01E15FFE4FA281B3812C910E
:1004100030E0322F22270190F081E02D4081242B03
:10042000FC01E95EFE4FA281B3813C930190F08113
:10043000E02D20830895CF93DF93DC01A55FBE4FAD
:10044000FC01ED5EFE4FC281D3819881892F90E03F
:10045000982F88270190F081E02D2081822B8D93A9
:100460009C93DF91CF910895FC01ED5EFE4FA28138
:10047000B3812C9130E0322F22270190F081E02DC2
:100480004081242BFC01E15FFE4FA281B3813C93AC
:100490000190F081E02D20830895FC01ED5EFE4F78
:1004A000A281B3812C9130E0322F22270190F0817C
:1004B000E02D4081242BFC01E95EFE4FA281B38137
:1004C0003C930190F081E02D20830895CF93DF933A
:1004D000DC01A55FBE4FFC01E95EFE4FC281D38106
:1004E0009881892F90E0982F88270190F081E02D46
:1004F0002081822B8D939C93DF91CF910895FC01F5
:10050000E95EFE4FA281B3812C9130E0322F222789
:100510000190F081E02D4081242BFC01E15FFE4F32
:10052000A281B3813C930190F081E02D2083089556
:10053000FC01E95EFE4FA281B3812C9130E0322FA5
:1005400022270190F081E02D4081242BFC01ED5EFB
:10055000FE4FA281B3813C930190F081E02D208376
:100560000895FC01E55FFE4F208131813496A28120
:10057000B3813C930190F081E02D20830895FC012C
:10058000E55FFE4F208131813896A281B3813C9393
:100590000190F081E02D20830895FC01E55FFE4F7E
:1005A000208131813C96A281B3813C930190F081FE
:1005B000E02D20830895641307C0FC01EF5DFE4F1A
:1005C0008081886180830895461730F4FC01EF5DD7
:1005D000FE4F208122602083641730F4FC01EF5D20
:1005E000FE4F8081846080830895641307C0FC01FE
:1005F000EF5DFE4F8081886180830895461730F457
:10060000FC01EF5DFE4F208122602083641730F4EF
:10061000FC01EF5DFE4F8081846080830895FC01C2
:10062000EF5DFE4F208123FF03C0749771836083C9
:100630000895FC01EF5DFE4F208123FF07C07497F2
:1006400080819181680F791F718360830895FC0117
:10065000EF5DFE4F208123FF07C074978081918159
:10066000861B970B918380830895FC01EF5DFE4FFD
:10067000208130E0A90155954795559547955595A9
:10068000479540FD10C0A9015595479540FD06C00E
:10069000359527953595279520FF05C0FC01E35F2B
:1006A000FE4F718360830895FC01EF5DFE4F208152
:1006B00030E0A9015595479555954795559547952E
:1006C00040FD14C0A9015595479540FD06C03595DC
:1006D00027953595279520FF09C0FC01E35FFE4F64
:1006E00080819181680F791F718360830895FC0177
:1006F000EF5DFE4F208130E0A90155954795559556
:1007000047955595479540FD14C0A90155954795C6
:1007100040FD06C0359527953595279520FF09C0E2
:10072000FC01E35FFE4F80819181861B970B9183D3
:1007300080830895FC01EF5DFE4F208130E0A90128
:1007400055954795559547955595479535952795D1
:10075000242B352B20FF03C0749771836083089589
:10076000FC01EF5DFE4F208130E0A90155954795D2
:10077000559547955595479535952795242B352BB8
:1007800020FF07C0749780819181680F791F718362
:1007900060830895FC01EF5DFE4F208130E0A901E8
:1007A0005595479555954795559547953595279571
:1007B000242B352B20FF07C0749780819181861BE5
:1007C000970B918380830895FC01EF5DFE4F20819C
:1007D00030E0A9015595479555954795559547950D
:1007E0003595279535952795242B352B20FF03C06C
:1007F0007497718360830895FC01EF5DFE4F208143
:1008000030E0A901559547955595479555954795DC
:100810003595279535952795242B352B20FF07C037
:10082000749780819181680F791F71836083089527
:10083000FC01EF5DFE4F208130E0A9015595479501
:100840005595479555954795359527953595279510
:10085000242B352B20FF07C0749780819181861B44
:10086000970B918380830895FC01EF5DFE4F2081FB
:1008700030E0A9015595479555954795559547956C
:1008800040FD07C03595279520FF03C074977183FD
:1008900060830895FC01EF5DFE4F208130E0A901E7
:1008A00055954795559547955595479540FD0BC0EE
:1008B0003595279520FF07C0749780819181680F37
:1008C000791F718360830895FC01EF5DFE4F2081E5
:1008D00030E0A9015595479555954795559547950C
:1008E00040FD0BC03595279520FF07C07497808188
:1008F0009181861B970B918380830895FC01EF5DA6
:10090000FE4F208130E0A9015595479555954795B3
:100910005595479540FD09C03595279535952795FF
:1009200020FF03C07497718360830895FC01EF5D1D
:10093000FE4F208130E0A901559547955595479583
:100940005595479540FD0DC03595279535952795CB
:1009500020FF07C0749780819181680F791F718390
:1009600060830895FC01EF5DFE4F208130E0A90116
:1009700055954795559547955595479540FD0DC01B
:10098000359527953595279520FF07C07497808169
:100990009181861B970B918380830895CF93DF937A
:1009A000FC01E60FF11DEC01C55FDE4F6881798126
:1009B0004485FC01848195810E946C0D8881998118
:1009C000019799838883DF91CF910895CF93DF9327
:1009D000462FEC01C55FDE4F68817981FC0184817F
:1009E00095810E946C0D88819981019799838883F4
:1009F000DF91CF910895CF93DF93EC01C55FDE4F78
:100A000068817981FC01848195810E945E0D288135
:100A100039812F5F3F4F39832883DF91CF9108952C
:100A2000EF92FF920F931F93CF93DF938C01EB0113
:100A3000FC01E55FFE4F60810E94CE04780183EFE8
:100A4000E81A8EEFF80AF701D183C083C8010E942B
:100A5000FB04C82FC8010E94FB042C2F30E0322F6A
:100A60002227282BF70131832083DF91CF911F911B
:100A70000F91FF90EF900895FF920F931F93CF93E4
:100A8000DF93EC01F62E8C01055F1E4FF8016081AB
:100A900071818C819D810E945E0DCF0DD11D8C874F
:100AA000F80180819181019691838083DF91CF91BC
:100AB0001F910F91FF900895FC01E60FF11D9485A1
:100AC000929594870895FC01648561110DC0858518
:100AD00090E0E9EFF0E03197F1F700C000000197F6
:100AE00018161906B4F327C0613081F48585882370
:100AF00019F09685911104C081E0878760E01BC0E2
:100B0000899F802D1124878760E015C0623071F4C1
:100B10006685611104C0178681E0808B0CC08585D5
:100B20000E9401108787108A60E005C0633011F0D1
:100B300060E001C062E6862F0895CF92DF92EF92C7
:100B4000FF920F931F93CF93DF938C01FC01E35F20
:100B5000FE4F11821082EF017C014FEDE41A4EEF3F
:100B6000F40A68817981F801808191810E945E0D8B
:100B7000811107C0C8010E946305823609F0F7C5DC
:100B8000FCC5813091F4688179816F5F7F4F7983F3
:100B90006883F801808191810E945E0DF801E80F61
:100BA000F11D84858F5F8487E2C5823009F56881F5
:100BB00079816F5F7F4FF801808191810E945E0D86
:100BC000D82E688179816E5F7F4FF8018081918195
:100BD0000E945E0D6D2D70E0762F6627682BC80190
:100BE0000E94BE0088819981029699838883BFC53F
:100BF0008330A9F4688179816F5F7F4FF80180812C
:100C000091810E945E0DF801E80FF11D84858150ED
:100C1000848788819981019699838883A8C58430C7
:100C200009F5688179816F5F7F4FF801808191813B
:100C30000E945E0DD82E688179816E5F7F4FF8012A
:100C4000808191810E945E0D6D2D70E0762F662768
:100C5000682BC8010E94D4008881998102969983EB
:100C6000888385C5853009F5688179816F5F7F4FFD
:100C7000F801808191810E945E0DD82E6881798172
:100C80006E5F7F4FF801808191810E945E0DF801B7
:100C9000E80FF11D8485F801ED0DF11D8487888131
:100CA000998102969983888362C5863061F568814F
:100CB00079816F5F7F4FF801808191810E945E0D85
:100CC000C82E688179816E5F7F4FF80180819181A4
:100CD0000E945E0DD82E688179816D5F7F4FF8018B
:100CE000808191810E945E0D4D2D50E0542F44274C
:100CF000482B6C2DC8010E94EA00888199810396D7
:100D00009983888334C58730E9F4688179816F5F7E
:100D10007F4FF801808191810E945E0DD82E6881FD
:100D200079816E5F7F4FF801808191810E945E0D15
:100D3000F801ED0DF11D84878881998102969983D0
:100D4000888315C5883099F4688179816F5F7F4FFA
:100D5000F801808191810E945E0D682FC8010E9478
:100D60002E018881998101969983888300C58930F5
:100D700099F4688179816F5F7F4FF801808191815B
:100D80000E945E0D682FC8010E944A0188819981E6
:100D9000019699838883EBC48A3099F468817981BC
:100DA0006F5F7F4FF801808191810E945E0D682FF7
:100DB000C8010E9466018881998101969983888380
:100DC000D6C48B3051F5688179816E5F7F4FF80111
:100DD000808191810E945E0DC82E688179816D5F4E
:100DE0007F4FF801808191810E945E0DD82E68812D
:100DF00079816F5F7F4FF801808191810E945E0D44
:100E00006D2D70E07C29482FC8010E9482018881E5
:100E10009981039699838883AAC48C3051F568819F
:100E200079816E5F7F4FF801808191810E945E0D14
:100E3000C82E688179816D5F7F4FF8018081918133
:100E40000E945E0DD82E688179816F5F7F4FF80117
:100E5000808191810E945E0D6D2D70E07C29482F6C
:100E6000C8010E94880188819981039699838883AB
:100E70007EC48D3099F4688179816F5F7F4FF8016E
:100E8000808191810E945E0D682FC8010E948E01B1
:100E90008881998101969983888369C48E3099F4F9
:100EA000688179816F5F7F4FF801808191810E9415
:100EB0005E0D682FC8010E94A40188819981019666
:100EC0009983888354C48F3099F4688179816F5FE6
:100ED0007F4FF801808191810E945E0D682FC801CB
:100EE0000E94BA01888199810196998388833FC4C1
:100EF000803121F4C8010E94D00139C4813121F42C
:100F0000C8010E94E90133C4823121F4C8010E9462
:100F100002022DC4833121F4C8010E941B0227C4A0
:100F2000843121F4C8010E94340221C4853121F4A6
:100F3000C8010E944D021BC4863121F4C8010E94E1
:100F4000660215C4873121F4C8010E947F020FC4D4
:100F5000883121F4C8010E94980209C4893121F422
:100F6000C8010E94B10203C48A3121F4C8010E9461
:100F7000BF02FDC38B3121F4C8010E94CD02F7C32B
:100F80008C31F1F4688179816F5F7F4FF801808146
:100F900091810E945E0DD82E688179816E5F7F4FAE
:100FA000F801808191810E945E0D482F6D2DC8014E
:100FB0000E94DB0288819981029699838883D7C336
:100FC0008D31F1F4688179816F5F7F4FF801808105
:100FD00091810E945E0DD82E688179816E5F7F4F6E
:100FE000F801808191810E945E0D482F6D2DC8010E
:100FF0000E94F50288819981029699838883B7C3FC
:101000008E31B9F4688179816F5F7F4FF8018081FB
:1010100091810E945E0DF801E80FF11D848590E03A
:10102000959587958487888199810196998388838E
:101030009EC38F31A9F4688179816F5F7F4FF8017A
:10104000808191810E945E0DF801E80FF11D848579
:10105000880F84878881998101969983888387C3C3
:101060008032E9F4688179816F5F7F4FF801808178
:1010700091810E945E0DD82E688179816E5F7F4FCD
:10108000F801808191810E945E0D2D2D30E0322F7C
:101090002227B901682BC8010E940F0368C381325F
:1010A00009F5688179816F5F7F4FF80180819181B7
:1010B0000E945E0DD82E688179816E5F7F4FF801A6
:1010C000808191810E945E0D2D2D30E0322F2227EC
:1010D000282B88819981B901680F791FC8010E9466
:1010E000190345C3823201F5688179816F5F7F4FB3
:1010F000F801808191810E945E0DD82E68817981EE
:101100006E5F7F4FF801808191810E945E0D2D2DD1
:1011100030E0322F2227282B68817981621B730BE4
:10112000C8010E94270323C38332E9F468817981CF
:101130006F5F7F4FF801808191810E945E0DD82EF4
:10114000688179816E5F7F4FF801808191810E9473
:101150005E0D2D2D30E0322F2227B901682BC801FA
:101160000E94350304C3843209F5688179816F5F79
:101170007F4FF801808191810E945E0DD82E688199
:1011800079816E5F7F4FF801808191810E945E0DB1
:101190002D2D30E0322F2227282B88819981B9010B
:1011A000680F791FC8010E945403E1C2853201F51E
:1011B000688179816F5F7F4FF801808191810E9402
:1011C0005E0DD82E688179816E5F7F4FF801808136
:1011D00091810E945E0D2D2D30E0322F2227282B89
:1011E00068817981621B730BC8010E947703BFC2BB
:1011F0008632E9F4688179816F5F7F4FF8018081E1
:1012000091810E945E0DD82E688179816E5F7F4F3B
:10121000F801808191810E945E0D2D2D30E0322FEA
:101220002227B901682BC8010E949A03A0C2873205
:1012300009F5688179816F5F7F4FF8018081918125
:101240000E945E0DD82E688179816E5F7F4FF80114
:10125000808191810E945E0D2D2D30E0322F22275A
:10126000282B88819981B901680F791FC8010E94D4
:10127000B0037DC2883201F5688179816F5F7F4F4D
:10128000F801808191810E945E0DD82E688179815C
:101290006E5F7F4FF801808191810E945E0D2D2D40
:1012A00030E0322F2227282B68817981621B730B53
:1012B000C8010E94CA035BC28932E9F4688179815E
:1012C0006F5F7F4FF801808191810E945E0DD82E63
:1012D000688179816E5F7F4FF801808191810E94E2
:1012E0005E0D2D2D30E0322F2227B901682BC80169
:1012F0000E94E4033CC28A3209F5688179816F5FFC
:101300007F4FF801808191810E945E0DD82E688107
:1013100079816E5F7F4FF801808191810E945E0D1F
:101320002D2D30E0322F2227282B88819981B90179
:10133000680F791FC8010E94FC0319C28B3201F5A6
:10134000688179816F5F7F4FF801808191810E9470
:101350005E0DD82E688179816E5F7F4FF8018081A4
:1013600091810E945E0D2D2D30E0322F2227282BF7
:1013700068817981621B730BC8010E941804F7C150
:101380008C32E9F4688179816F5F7F4FF801808149
:1013900091810E945E0DD82E688179816E5F7F4FAA
:1013A000F801808191810E945E0D2D2D30E0322F59
:1013B0002227B901682BC8010E943404D8C18D329C
:1013C00009F5688179816F5F7F4FF8018081918194
:1013D0000E945E0DD82E688179816E5F7F4FF80183
:1013E000808191810E945E0D2D2D30E0322F2227C9
:1013F000282B88819981B901680F791FC8010E9443
:101400004A04B5C18E3201F5688179816F5F7F4FE3
:10141000F801808191810E945E0DD82E68817981CA
:101420006E5F7F4FF801808191810E945E0D2D2DAE
:1014300030E0322F2227282B68817981621B730BC1
:10144000C8010E94640493C18F32E9F468817981F4
:101450006F5F7F4FF801808191810E945E0DD82ED1
:10146000688179816E5F7F4FF801808191810E9450
:101470005E0D2D2D30E0322F2227B901682BC801D7
:101480000E947E0474C1803309F5688179816F5FA1
:101490007F4FF801808191810E945E0DD82E688176
:1014A00079816E5F7F4FF801808191810E945E0D8E
:1014B0002D2D30E0322F2227282B88819981B901E8
:1014C000680F791FC8010E94960451C1813301F54C
:1014D000688179816F5F7F4FF801808191810E94DF
:1014E0005E0DD82E688179816E5F7F4FF801808113
:1014F00091810E945E0D2D2D30E0322F2227282B66
:1015000068817981621B730BC8010E94B2042FC1EC
:10151000823399F4688179816F5F7F4FF801808110
:1015200091810E945E0DF801E80FF11D14868881FB
:1015300099810196998388831AC1833389F46881DC
:1015400079816F5F7F4FF801808191810E945E0DEC
:10155000F70110828881998101969983888307C158
:10156000843399F4688179816F5F7F4FF8018081BE
:1015700091810E945E0D682FC8010E945C058881E0
:101580009981019699838883F2C0853399F46881A3
:1015900079816F5F7F4FF801808191810E945E0D9C
:1015A000682FC8010E943C05888199810196998322
:1015B0008883DDC0863399F4688179816F5F7F4FBE
:1015C000F801808191810E945E0D682FC8010E9400
:1015D000CE0488819981019699838883C8C0873316
:1015E00041F5688179816F5F7F4FF801808191813A
:1015F0000E945E0DE82FF0E0EE0FFF1FE00FF11FDD
:10160000E55EFE4F0190F081E02DA281B3816C91E7
:1016100070E0762F66270190F081E02D8081682BA5
:10162000C8010E94CE04888199810196998388839C
:101630009EC0883399F4688179816F5F7F4FF8018C
:10164000808191810E945E0D682FC8010E94E6048E
:101650008881998101969983888389C0893399F417
:10166000688179816F5F7F4FF801808191810E944D
:101670005E0D682FC8010E94FB0088819981019648
:101680009983888374C08A3399F4688179816F5F04
:101690007F4FF801808191810E945E0D682FC80103
:1016A0000E940C01888199810196998388835FC08B
:1016B0008B3399F4688179816F5F7F4FF801808166
:1016C00091810E945E0D682FC8010E941D018881D2
:1016D00099810196998388834AC08C3309F447C065
:1016E0008D33F1F4688179816F5F7F4FF8018081DC
:1016F00091810E945E0DD82E688179816E5F7F4F47
:10170000F801808191810E945E0D2D2D30E0322FF5
:101710002227A901482BCA0102969983888327C0F2
:101720008E3311F5688179816F5F7F4FF801808179
:1017300091810E945E0DD82E688179816E5F7F4F06
:10174000F801808191810E945E0D2D2D30E0322FB5
:101750002227B901682BC8010E9410058881998150
:1017600002969983888303C08F3F09F40000888123
:101770009981019699838883F4C982E6DF91CF919C
:101780001F910F91FF90EF90DF90CF9008950895F3
:1017900008950895FC011082118212821382089527
:1017A0000895089589B1089568B9089561B90895B3
:1017B00064B9089567B908956AB90895613031F43C
:1017C000442311F0109A089510980895623031F46E
:1017D000442311F0119A089511980895633031F45B
:1017E000442311F0129A089512980895643031F448
:1017F000442311F0139A089513980895653031F435
:10180000442311F0149A089514980895663031F421
:10181000442311F0159A089515980895673031F40E
:10182000442311F0169A089516980895683029F403
:10183000442311F0179A0895179808959C019FEF7B
:10184000960F983028F4692FC9010E94DE0B089585
:1018500082EF860F883028F46D50C9010E94DE0B9C
:1018600008958AEE860F883028F46551C9010E94D8
:10187000DE0B08958FED860F883020F46052C90189
:101880000E94DE0B089508950F931F93FC0160835F
:101890004183228314870387138214821582168260
:1018A00017821086118612861F910F910895EF926C
:1018B000FF920F931F93CF93DF93EC0107E010E0AB
:1018C000E62EF12CC701002E02C0959587950A944B
:1018D000E2F7019739F441E068818B859C850E948D
:1018E0001E0C06C040E068818B859C850E941E0C02
:1018F00041E069818B859C850E941E0C40E06981D6
:101900008B859C850E941E0C01501109D8F641E080
:101910006A818B859C850E941E0C40E06A818B85C4
:101920009C850E941E0CDF91CF911F910F91FF901B
:10193000EF900895CF92DF92EF92FF920F931F9353
:10194000CF93DF93EC01E72EFF240FE010E06B0153
:10195000DD24C601002E02C0959587950A94E2F712
:10196000019739F441E068818B859C850E941E0CAB
:1019700006C040E068818B859C850E941E0C41E07A
:1019800069818B859C850E941E0C40E069818B8556
:101990009C850E941E0C01501109D8F607E010E04A
:1019A000C701002E02C0959587950A94E2F701972A
:1019B00039F441E068818B859C850E941E0C06C02D
:1019C00040E068818B859C850E941E0C41E0698106
:1019D0008B859C850E941E0C40E069818B859C85CF
:1019E0000E941E0C01501109D8F641E06A818B85D6
:1019F0009C850E941E0C40E06A818B859C850E941C
:101A00001E0CDF91CF911F910F91FF90EF90DF900F
:101A1000CF9008950895AF92BF92CF92DF92FF9238
:101A20000F931F93CF93DF93EC018B016A01F22E8A
:101A30000E94350D1D830C83DF82CE82FA86AA8236
:101A4000BB821986188641E06F2DC8010E941E0CCA
:101A5000DF91CF911F910F91FF90DF90CF90BF90BA
:101A6000AF9008950E94440D08950895CF92DF929B
:101A7000FC017583648357834683C282D3821182BB
:101A80001082DF90CF9008950895EF92FF920F9308
:101A90001F93FC01CB0173836283558344832183AD
:101AA000E086F18602871387108241E0622F0E9450
:101AB0001E0C1F910F91FF90EF900895CF93DF932D
:101AC000EC018C819D810E949A0C8A819B810E94ED
:101AD000D20BDF91CF9108951F93CF93DF93EC0149
:101AE000142F8C819D810E949A0C8E819F8100977A
:101AF00031F4612F8A819B810E94D40B03C0612F36
:101B00000E94570C40E069818A819B810E941E0CD3
:101B100089EF90E00197F1F700C0000041E0698192
:101B20008A819B810E941E0CDF91CF911F910895A5
:101B300008957F928F929F92AF92BF92CF92DF9241
:101B4000EF92FF920F931F93CF93DF93CDB7DEB742
:101B50006C01702EE82CF92C0A2D1B2D0E94450DCE
:101B6000F6017486DF91CF911F910F91FF90EF9056
:101B7000DF90CF90BF90AF909F908F907F9008950F
:101B80000E94980D08956FEF87E993E00E94D60BAD
:101B90006FEF87E993E00E94DA0B60E087E993E05A
:101BA0000E94D80B60E087E993E00E94DC0B81E59E
:101BB00093E090931501809314016AE071E086E050
:101BC00091E00E943411892B21F082E191E00E9482
:101BD0009D0586E091E00E94AB10EFCF8F929F921F
:101BE000AF92BF92CF92DF92EF92FF920F931F932B
:101BF00087E993E00E94D10B07E913E026E247E270
:101C000068E28AE893E00E94440C23E244E265E241
:101C10008DE793E00E94440C0F2EF1E2EF2EF02DA1
:101C200002E223E047E953E06DE773E085E793E0E4
:101C30000E946A00E12CF12C870121E04AE853E080
:101C400067E973E089E693E00E94450DE12C10E21C
:101C5000F12E00E010E021E04AE853E067E973E08C
:101C60008DE593E00E94450DE12C10E4F12E00E09B
:101C700010E021E04AE853E067E973E081E593E092
:101C80000E94450DE12C10E6F12E00E010E021E06D
:101C90004AE853E067E973E085E493E00E94450D6C
:101CA000E12C10E8F12E00E010E021E04AE853E0DA
:101CB00067E973E089E393E00E94450DC12C0F2E84
:101CC000F0EADF2EF02DE12CF12C00E010E020E016
:101CD00030E04AE853E067E973E081E393E00E9473
:101CE000360D0F2EF0ECDF2EF02D20E030E04AE82C
:101CF00053E067E973E089E293E00E94360D0F2E0E
:101D0000F0EEDF2EF02D20E030E04AE853E067E906
:101D100073E081E293E00E94360DD12CEE24E3942F
:101D200020E030E04AE853E067E973E089E193E0BE
:101D30000E94360D6894DD24D5F820E030E04AE8B2
:101D400053E067E973E081E193E00E94360D689407
:101D5000DD24D6F820E030E04AE853E067E973E09C
:101D600089E093E00E94360DA12C0F2EF0E6BF2EE5
:101D7000F02DCC24C394D12CE12C21E04AE853E08F
:101D800067E973E08EEF92E00E940B0D6894BB242C
:101D9000B7F821E04AE853E067E973E083EF92E0A7
:101DA0000E940B0D0F2EF0EABF2EF02D21E04AE825
:101DB00053E067E973E088EE92E00E940B0D0F2E6E
:101DC000F0ECBF2EF02D21E04AE853E067E973E024
:101DD0008DED92E00E940B0D0F2EF0EEBF2EF02D38
:101DE00021E04AE853E067E973E082ED92E00E9467
:101DF0000B0D812C912CB12CC12C02E021E04AE882
:101E000053E067E973E082EC92E00E94990D6894D8
:101E1000992495F821E04AE853E067E973E082EB02
:101E200092E00E94990D6894992496F821E04AE87E
:101E300053E067E973E082EA92E00E94990D8CE03A
:101E4000E9E6F3E0A6E6B2E001900D928A95E1F7AB
:101E50008CE0EDE5F3E0A2E7B2E001900D928A9507
:101E6000E1F78CE0E1E5F3E0AEE7B2E001900D923E
:101E70008A95E1F78CE0E5E4F3E0AAE8B2E00190AE
:101E80000D928A95E1F78CE0E9E3F3E0A6E9B2E090
:101E900001900D928A95E1F780E1E2ECF2E0A6E391
:101EA000B2E001900D928A95E1F780E1E2EBF2E079
:101EB000A6E4B2E001900D928A95E1F780E1E2EAB2
:101EC000F2E0A6E5B2E001900D928A95E1F784E395
:101ED00092E00E94C80B82E191E00E9478008EE0BF
:101EE00091E00E94CA0B1F910F91FF90EF90DF903D
:101EF000CF90BF90AF909F908F900895CF93DF9336
:101F00008EE091E00E94D00B82E191E00E94C70B2D
:101F100084E392E00E94C90B86E592E00E94C00D26
:101F200086E492E00E94C00D86E392E00E94C00D1C
:101F3000C2EAD2E02C97CE010E94980D82E0C6360C
:101F4000D807C1F782EA92E00E94C00D82EB92E0CE
:101F50000E94C00D82EC92E00E94C00D82ED92E0E2
:101F60000E94320D8DED92E00E94320D88EE92E0DB
:101F70000E94320D83EF92E00E94320D8EEF92E0CC
:101F80000E94320D89E093E00E94440D81E193E0CC
:101F90000E94440D89E193E00E94440D81E293E0A8
:101FA0000E94440D89E293E00E94440D81E393E096
:101FB0000E94440D89E393E00E94980D85E493E02C
:101FC0000E94980D81E593E00E94980D8DE593E0C5
:101FD0000E94980D89E693E00E94980D85E793E0B2
:101FE0000E9477008DE793E00E940A0D8AE893E053
:101FF0000E940A0D87E993E00E94430CDF91CF9184
:102000000895991B79E004C0991F961708F0961B54
:10201000881F7A95C9F780950895EE0FFF1F0590E8
:10202000F491E02D09940F931F93CF93DF938230A7
:10203000910510F482E090E0E0919A03F0919B0307
:1020400020E030E0A0E0B0E0309719F1408151810C
:102050000281138148175907C8F08417950769F45E
:10206000109731F012960C93129713961C9327C079
:1020700000939A0310939B0322C02115310519F098
:102080004217530718F49A01BD01EF01DF01F8016F
:10209000DBCF21153105F9F0281B390B2430310530
:1020A00080F48A819B816115710521F0FB01938386
:1020B000828304C090939B0380939A03FE0132961F
:1020C00044C0FE01E20FF31F819391932250310926
:1020D000398328833AC02091980330919903232BA8
:1020E00041F4209102013091030130939903209330
:1020F000980320910001309101012115310541F42F
:102100002DB73EB74091040150910501241B350BBA
:10211000E0919803F0919903E217F307A0F42E1BC6
:102120003F0B2817390778F0AC014E5F5F4F24173B
:10213000350748F04E0F5F1F509399034093980363
:102140008193919302C0E0E0F0E0CF01DF91CF9165
:102150001F910F910895CF93DF93009709F481C0E9
:10216000FC01329713821282A0919A03B0919B03D3
:10217000109781F420813181820F931F2091980361
:10218000309199032817390751F5F0939903E0939B
:10219000980367C0ED0120E030E0CE17DF0740F480
:1021A0004A815B819E0141155105F1F0EA01F5CFAD
:1021B000D383C28340815181840F951FC817D907EB
:1021C00059F488819981840F951F029691838083A9
:1021D0008A819B81938382832115310529F4F093B1
:1021E0009B03E0939A033DC0E901FB83EA83499195
:1021F0005991C40FD51FEC17FD0761F480819181BF
:10220000840F951F0296E9019983888382819381C7
:102210009B838A83E0E0F0E012968D919C91139766
:10222000009719F0FD01DC01F7CF8D919C9111977A
:102230009D012E5F3F4F820F931F20919803309195
:1022400099032817390769F4309729F410929B03F2
:1022500010929A0302C013821282B0939903A09342
:102260009803DF91CF910895FB01DC018D918134BA
:102270001CF08B350CF4805E659161341CF06B357D
:102280000CF4605E861B611189F3990B089510E0D0
:10229000CFE3D0E004C0FE010E940D102196C034AF
:0822A000D107C9F7F894FFCF44
:0E22A80000009C03200072756E0072756E00BF
:00000001FF
