:100000000C9440000C945D000C945D000C945D0019
:100010000C945D000C945D000C945D000C945D00EC
:100020000C945D000C945D000C945D000C945D00DC
:100030000C945D000C945D000C945D000C945D00CC
:100040000C945D000C945D000C945D000C945D00BC
:100050000C945D000C945D000C945D000C945D00AC
:100060000C945D000C945D000C945D000C945D009C
:100070000C945D000C945D000C945D008703EF040C
:1000800011241FBECFEFD0E1DEBFCDBF23E0A0E043
:10009000B1E001C01D92A13AB207E1F710E0CFE351
:1000A000D0E004C02197FE010E948005CE33D10725
:1000B000C9F70E9465030C9486050C940000FC01AE
:1000C000168217821086DC01A85FBE4F8FEF8C93DB
:1000D0001996CF018A5F9E4F11969C938E9312962C
:1000E000019611969C938E931697039711969C9365
:1000F0008E931296019611969C938E931697039762
:1001000011969C938E931296ED5FFE4FED93FC93A8
:100110000895FC01E60FF11D91859F5F9187089579
:100120000000089508950895089508950895089584
:1001300068B9089561B9089567B90895613031F4D7
:10014000442311F0109A089510980895623031F404
:10015000442311F0119A089511980895633031F4F1
:10016000442311F0129A089512980895643031F4DE
:10017000442311F0139A089513980895653031F4CB
:10018000442311F0149A089514980895663031F4B8
:10019000442311F0159A089515980895673031F4A5
:1001A000442311F0169A089516980895683029F49A
:1001B000442311F0179A0895179808959C019FEF12
:1001C000960F983028F4692FC9010E949E00089567
:1001D00082EF860F883028F46D50C9010E949E007E
:1001E00008958AEE860F883028F46551C9010E946F
:1001F0009E0008958FED860F883020F46052C9016B
:100200000E949E00089508950F931F93FC01608340
:1002100041832283148703871382148215821682F6
:1002200017821086118612861F910F910895EF9202
:10023000FF920F931F93CF93DF93EC0107E010E041
:10024000E62EF12CC701002E02C0959587950A94E1
:10025000E2F7019739F441E068818B859C850E9423
:10026000DE0006C040E068818B859C850E94DE0030
:1002700041E069818B859C850E94DE0040E06981B8
:100280008B859C850E94DE0001501109D8F641E063
:100290006A818B859C850E94DE0040E06A818B85A7
:1002A0009C850E94DE00DF91CF911F910F91FF90FE
:1002B000EF9008957F928F929F92AF92BF92CF92CC
:1002C000DF92EF92FF920F931F93CF93DF93EC0196
:1002D000702E822E932EA42EB52EC62ED72E689465
:1002E000EE24E6F8F12C272D312F482D592D6A2DBB
:1002F0007B2D8C2D9D2D0E2D0E945805A1E00E9476
:10030000740539F441E068818B859C850E94DE008C
:1003100006C040E068818B859C850E94DE0041E03C
:1003200069818B859C850E94DE0040E069818B8518
:100330009C850E94DE0081E0E81AF108A1F641E008
:100340006A818B859C850E94DE0040E06A818B85F6
:100350009C850E94DE00DF91CF911F910F91FF904D
:10036000EF90DF90CF90BF90AF909F908F907F9055
:10037000089508958F929F92AF92BF92CF92DF928D
:10038000EF92FF920F93CF93DF93CDB7DEB7FC01CF
:10039000CB01602F948383835683458330872783E3
:1003A000028381869286A386B486C586D686E78632
:1003B000F08A1182108241E00E94DE00DF91CF912D
:1003C0000F91FF90EF90DF90CF90BF90AF909F90F4
:1003D0008F9008950895CF92DF92EF92FF920F933E
:1003E0001F93FC01718B608B538B428BC086D1862F
:1003F000E286F38604871587268737871082118265
:100400001282138214821582168217821F910F9115
:10041000FF90EF90DF90CF90089508958F929F9274
:10042000AF92BF92CF92DF92EF92FF920F93CF9352
:10043000DF93CDB7DEB7FC01CB01602F93838283BE
:100440005583448337832683018380869186A286E1
:10045000B386C486D586E686F786108241E00E9480
:10046000DE00DF91CF910F91FF90EF90DF90CF9062
:10047000BF90AF909F908F900895EF920F931F932E
:10048000CF93DF93EC018C819D810E945A018E8174
:100490009F81009731F46E2D8A819B810E94980084
:1004A00003C06E2D0E94170140E069818A819B8103
:1004B0000E94DE0089EF90E00197F1F700C0000094
:1004C00041E069818A819B810E94DE00DF91CF91AA
:1004D0001F910F91EF90089508958F929F92AF9280
:1004E000BF92CF92DF92EF92FF920F93CF93DF9361
:1004F000CDB7DEB70E940E02DF91CF910F91FF9032
:10050000EF90DF90CF90BF90AF909F908F90089525
:100510000E946C0208956F927F928F929F92AF9289
:10052000BF92CF92DF92EF92FF920F931F93CF93E0
:10053000DF93C22ED32EF42ED52FC62FB72FF82F30
:10054000E92FE02E2F3F0FE33007410551056105EC
:1005500071058105910509F068F4022F132F242FEE
:10056000352F462F572F682F792F86E793E00E946B
:100570003D029CC03054410951096109710981094A
:100580009109132F2F3F0FE33007410551056105F6
:1005900071058105910509F060F4022F242F352F94
:1005A000462F572F682F792F86E693E00E943D0251
:1005B0007DC02C2D3D2D4F2D5D2F6C2F7B2F8F2F30
:1005C0009E2F30584109510961097109810991092A
:1005D000132F2F3F0FE330074105510561057105CA
:1005E0008105910509F060F4022F242F352F462F45
:1005F000572F682F792F86E593E00E943D0256C061
:100600002C2D3D2D4F2D5D2F6C2F7B2F8F2F9E2F4F
:10061000305C410951096109710981099109132F60
:100620002F3F0FE330074105510561057105810535
:10063000910509F060F4022F242F352F462F572FF4
:10064000682F792F86E493E00E943D022FC02C2D65
:100650003D2D4F2D5D2F6C2F7B2F8F2F9E2F2F5FCA
:100660003F4F410951096109710981099109A1E0CF
:100670000E94740509F0D0F42C2D3D2D4F2D5D2FD7
:100680006C2F7B2F8F2F9E2F4150510961097109CB
:1006900081099109022F132F242F352F462F572F11
:1006A000682F792F86E393E00E943D02DF91CF917E
:1006B0001F910F91FF90EF90DF90CF90BF90AF9080
:1006C0009F908F907F906F9008956FEF80EA93E0F6
:1006D0000E949A006FEF80EA93E00E949C0082E003
:1006E00091E00E94900069E082E091E00E94890020
:1006F00083B1811183B10FEF20E030E040E050E0A2
:1007000060E070E080E090E00E948B02ECCF8F927E
:100710009F92AF92BF92CF92DF92EF92FF920F9390
:100720001F93CF93DF93CDB7DEB763970FB6F894DF
:10073000DEBF0FBECDBF80EA93E00E94970000EAC3
:1007400013E026E247E268E283E993E00E940401B5
:1007500023E244E265E286E893E00E940401812CF2
:10076000912CA12CB12CC12CD12CE12CF12C02E22A
:1007700026E833E043E953E060EA73E086E793E07C
:100780000E940E026894992496F826E833E043E923
:1007900053E060EA73E086E693E00E940E026894FC
:1007A000992497F826E833E043E953E060EA73E0E0
:1007B00086E593E00E940E020F2EF0EC9F2EF02DA6
:1007C00026E833E043E953E060EA73E086E493E02F
:1007D0000E940E02912CAA24A39426E833E043E958
:1007E00053E060EA73E0CE0101960E946D0280E161
:1007F000FE013196A6E3B3E001900D928A95E1F7F0
:10080000CE0101960E94880280E1E6E7F3E0A6EEC1
:10081000B2E001900D928A95E1F780E1E6E6F3E01F
:10082000A6EFB2E001900D928A95E1F780E1E6E54E
:10083000F3E0A6E0B3E001900D928A95E1F780E144
:10084000E6E4F3E0A6E1B3E001900D928A95E1F7CA
:1008500080E1E6E3F3E0A6E2B3E001900D928A9531
:10086000E1F76894DD24D6F8EE24E39400E010E08C
:1008700020E030E043E953E060EA73E082ED92E08B
:100880000E94EB016894DD24D7F820E030E043E9D2
:1008900053E060EA73E08EEB92E00E94EB01D12C12
:1008A0000F2EFCE1EF2EF02D20E030E043E953E085
:1008B00060EA73E08AEA92E00E94EB016894EE2419
:1008C000E1F820E030E043E953E060EA73E086E9D4
:1008D00092E00E94EB016894DD24D6F820E030E03D
:1008E00043E953E060EA73E082E892E00E94EB01A2
:1008F0006894DD24D7F820E030E043E953E060EA73
:1009000073E08EE692E00E94EB010F2EF0EC9F2E3A
:10091000F02D6894AA24A1F8D12CE12C02E226E85B
:1009200033E043E953E060EA73E08DE592E00E9432
:10093000BA01912C0F2EF3E0AF2EF02D26E833E014
:1009400043E953E060EA73E08CE492E00E94BA016C
:100950006894992496F826E833E043E953E060EA86
:1009600073E08BE392E00E94BA016894992497F8AF
:1009700026E833E043E953E060EA73E08AE292E07C
:100980000E94BA010F2EF0EC9F2EF02D26E833E0E6
:1009900043E953E060EA73E089E192E00E94BA0122
:1009A00087E192E00E94930082E091E00E945F0064
:1009B00080E091E00E94950063960FB6F894DEBF48
:1009C0000FBECDBFDF91CF911F910F91FF90EF90A0
:1009D000DF90CF90BF90AF909F908F900895CF936E
:1009E000DF9380E091E00E94960082E091E00E9417
:1009F000920087E192E00E94940089E192E00E94D7
:100A0000EA018AE292E00E94EA018BE392E00E940E
:100A1000EA018CE492E00E94EA018DE592E00E94F6
:100A2000EA018EE692E00E940D0282E892E00E94C6
:100A30000D0286E992E00E940D028AEA92E00E948D
:100A40000D028EEB92E00E940D0282ED92E00E9478
:100A50000D02C6E3D3E06097CE010E946C0282E0F3
:100A6000C63ED807C1F786E393E00E946C0286E495
:100A700093E00E946C0286E593E00E946C0286E699
:100A800093E00E946C0286E793E00E946C0286E885
:100A900093E00E94B90183E993E00E94B90180EAE2
:100AA00093E00E940301DF91CF91089597FB10F826
:100AB000169400080F93083098F00850232F342F15
:100AC000452F562F672F782F892F902DF4CF05941F
:100AD0009795879577956795579547953795279576
:100AE0000A95AAF70F9108950024A7FD00942A17EC
:100AF0003005400550056005700580059005089596
:100B0000EE0FFF1F0590F491E02D099410E0CFE364
:100B1000D0E004C0FE010E9480052196C034D107B8
:060B2000C9F7F894FFCFB5
:00000001FF
