:100000000C9440000C945D000C945D000C945D0019
:100010000C945D000C945D000C945D000C945D00EC
:100020000C945D000C945D000C945D000C945D00DC
:100030000C945D000C945D000C945D000C945D00CC
:100040000C945D000C945D000C945D000C945D00BC
:100050000C945D000C945D000C945D000C945D00AC
:100060000C945D000C945D000C945D000C945D009C
:100070000C945D000C945D000C945D003D03A7049E
:1000800011241FBECFEFD0E1DEBFCDBF23E0A0E043
:10009000B1E001C01D92AF34B207E1F710E0CFE349
:1000A000D0E004C02197FE010E941A05CE33D1078B
:1000B000C9F70E94E5020C9420050C940000FC0195
:1000C000738362835183408308950895FC01E55F43
:1000D000FE4F2FEF3FE131832083709610823497DB
:1000E0009C01275F3E4F3183208332962F5F3F4F25
:1000F0003183208336972350310931832083329610
:100100002F5F3F4F3183208336972350310931834E
:10011000208332968A5F9E4F918380830895FC01ED
:10012000E60FF11D94859F5F94870895860F911DBA
:10013000FC0144870895CF93DF93DC01A55FBE4F98
:10014000FC01E15FFE4FC281D3819881892F90E04D
:10015000982F88270190F081E02D2081822B8D93AC
:100160009C93DF91CF910895CF93DF93DC01A55F3E
:10017000BE4FFC01ED5EFE4FC281D3819881892F75
:1001800090E0982F88270190F081E02D2081822B2C
:100190008D939C93DF91CF910895641307C0FC0168
:1001A000E55EFE4F8081886180830895461738F4AC
:1001B000FC01E55EFE4F80818260808308956417B4
:1001C00030F4FC01E55EFE4F8081846080830895F9
:1001D000CF93DF93FC01E60FF11DEC01C55FDE4F0D
:1001E000688179814485FC01848195810E948E0219
:1001F00088819981019799838883DF91CF910895B0
:10020000089508950895089568B9089561B9089505
:1002100064B9089567B908956AB90895613031F4F1
:10022000442311F0109A089510980895623031F423
:10023000442311F0119A089511980895633031F410
:10024000442311F0129A089512980895643031F4FD
:10025000442311F0139A089513980895653031F4EA
:10026000442311F0149A089514980895663031F4D7
:10027000442311F0159A089515980895673031F4C4
:10028000442311F0169A089516980895683029F4B9
:10029000442311F0179A0895179808959C019FEF31
:1002A000960F983028F4692FC9010E940E01089515
:1002B00082EF860F883028F46D50C9010E940E012C
:1002C00008958AEE860F883028F46551C9010E948E
:1002D0000E0108958FED860F883020F46052C90119
:1002E0000E940E01089508950F931F93FC016083EF
:1002F0004183228314870387138214821582168216
:1003000017821086118612861F910F910895EF9221
:10031000FF920F931F93CF93DF93EC0107E010E060
:10032000E62EF12CC701002E02C0959587950A9400
:10033000E2F7019739F441E068818B859C850E9442
:100340004E0106C040E068818B859C850E944E016D
:1003500041E069818B859C850E944E0140E0698166
:100360008B859C850E944E0101501109D8F641E011
:100370006A818B859C850E944E0140E06A818B8555
:100380009C850E944E01DF91CF911F910F91FF90AC
:10039000EF900895CF92DF92EF92FF920F931F9309
:1003A000CF93DF93EC01E72EFF240FE010E06B0109
:1003B000DD24C601002E02C0959587950A94E2F7C8
:1003C000019739F441E068818B859C850E944E013C
:1003D00006C040E068818B859C850E944E0141E00B
:1003E00069818B859C850E944E0140E069818B85E7
:1003F0009C850E944E0101501109D8F607E010E0DB
:10040000C701002E02C0959587950A94E2F70197DF
:1004100039F441E068818B859C850E944E0106C0BD
:1004200040E068818B859C850E944E0141E0698196
:100430008B859C850E944E0140E069818B859C855F
:100440000E944E0101501109D8F641E06A818B8566
:100450009C850E944E0140E06A818B859C850E94AC
:100460004E01DF91CF911F910F91FF90EF90DF90A0
:10047000CF9008950895AF92BF92CF92DF92FF92EE
:100480000F931F93CF93DF93EC018B016A01F22E40
:100490000E9465021D830C83DF82CE82FA86AA82C7
:1004A000BB821986188641E06F2DC8010E944E015B
:1004B000DF91CF911F910F91FF90DF90CF90BF9070
:1004C000AF9008950E94740208950895CF92DF922C
:1004D000FC017583648357834683C282D382118271
:1004E0001082DF90CF9008950895EF92FF920F93BE
:1004F0001F93FC01CB017383628355834483218363
:10050000E086F18602871387108241E0622F0E9405
:100510004E011F910F91FF90EF9008951F93CF937D
:10052000DF93EC01142F8C819D810E94CA018E8182
:100530009F81009731F4612F8A819B810E94040181
:1005400003C0612F0E94870140E069818A819B81FD
:100550000E944E0189EF90E00197F1F700C0000082
:1005600041E069818A819B810E944E01DF91CF9198
:100570001F91089508957F928F929F92AF92BF929C
:10058000CF92DF92EF92FF920F931F93CF93DF935F
:10059000CDB7DEB76C01702EE82CF92C0A2D1B2D7F
:1005A0000E947502F6017486DF91CF911F910F9121
:1005B000FF90EF90DF90CF90BF90AF909F908F9083
:1005C0007F9008950E94BA0208956FEF8EE493E041
:1005D0000E9406016FEF8EE493E00E940A0160E042
:1005E0008EE493E00E94080160E08EE493E00E94B4
:1005F0000C01E0E0F1E089E093E09383828381EFF6
:1006000092E0958384838AE792E09783868391873B
:1006100080878AE592E09387828769E080E091E0B5
:100620000E948F004AE065E080E091E00E94960021
:1006300045E069E080E091E00E94CD00C0E041E447
:100640006C2F80E091E00E949600CF5FCF3FB9F71A
:100650004AE060E080E091E00E94960060E080E087
:1006600091E00E94E80080E091E00E94B40080E008
:1006700091E00E949B0083B1D0CF8F929F92AF9266
:10068000BF92CF92DF92EF92FF920F931F938EE46F
:1006900093E00E9403010EE413E026E247E268E2E1
:1006A00081E493E00E94740123E244E265E284E382
:1006B00093E00E947401A80164E373E08DE293E08B
:1006C0000E945F00E12CF12C870121E041E453E01E
:1006D0006EE473E081E293E00E947502E12C10E287
:1006E000F12E00E010E021E041E453E06EE473E01D
:1006F00085E193E00E947502E12C10E4F12E00E008
:1007000010E021E041E453E06EE473E089E093E01F
:100710000E947502E12C10E6F12E00E010E021E0CD
:1007200041E453E06EE473E08DEF92E00E947502C5
:10073000E12C10E8F12E00E010E021E041E453E06C
:100740006EE473E081EF92E00E947502C12C0F2EDF
:10075000F0EADF2EF02DE12CF12C00E010E020E09B
:1007600030E041E453E06EE473E089EE92E00E94F1
:1007700066020F2EF0ECDF2EF02D20E030E041E499
:1007800053E06EE473E081EE92E00E9466020F2E69
:10079000F0EEDF2EF02D20E030E041E453E06EE497
:1007A00073E089ED92E00E946602D12CEE24E3947E
:1007B00020E030E041E453E06EE473E081ED92E04C
:1007C0000E9466026894DD24D5F820E030E041E420
:1007D00053E06EE473E089EC92E00E946602689454
:1007E000DD24D6F820E030E041E453E06EE473E02D
:1007F00081EC92E00E946602A12C0F2EF0E6BF2E43
:10080000F02DCC24C394D12CE12C21E041E453E021
:100810006EE473E086EB92E00E943B026894BB2496
:10082000B7F821E041E453E06EE473E08BEA92E034
:100830000E943B020F2EF0EABF2EF02D21E041E492
:1008400053E06EE473E080EA92E00E943B020F2ED8
:10085000F0ECBF2EF02D21E041E453E06EE473E0B4
:1008600085E992E00E943B020F2EF0EEBF2EF02DA4
:1008700021E041E453E06EE473E08AE892E00E94F4
:100880003B02812C912CB12CC12C02E021E041E4EF
:1008900053E06EE473E08AE792E00E94BB02689442
:1008A000992495F821E041E453E06EE473E08AE690
:1008B00092E00E94BB026894992496F821E041E4FA
:1008C00053E06EE473E08AE592E00E94BB028CE0A4
:1008D000E1E2F3E0AEE1B2E001900D928A95E1F73A
:1008E0008CE0E5E1F3E0AAE2B2E001900D928A9596
:1008F000E1F78CE0E9E0F3E0A6E3B2E001900D92CD
:100900008A95E1F78CE0EDEFF2E0A2E4B2E001902D
:100910000D928A95E1F78CE0E1EFF2E0AEE4B2E00F
:1009200001900D928A95E1F78CE192E00E9401011D
:1009300080E091E00E9466001F910F91FF90EF9080
:10094000DF90CF90BF90AF909F908F900895CF93FE
:10095000DF9380E091E00E9400018CE192E00E9430
:100960000201CAE5D2E02C97CE010E94BA0282E0D1
:10097000CE31D807C1F78AE592E00E94E2028AE60A
:1009800092E00E94E2028AE792E00E94E2028AE894
:1009900092E00E94620285E992E00E94620280EA8F
:1009A00092E00E9462028BEA92E00E94620286EB71
:1009B00092E00E94620281EC92E00E94740289EC53
:1009C00092E00E94740281ED92E00E94740289ED2F
:1009D00092E00E94740281EE92E00E94740289EE1D
:1009E00092E00E94740281EF92E00E94BA028DEFC1
:1009F00092E00E94BA0289E093E00E94BA0285E187
:100A000093E00E94BA0281E293E00E94BA028DE272
:100A100093E00E94650084E393E00E943A0281E43F
:100A200093E00E943A028EE493E00E947301DF910A
:100A3000CF910895EE0FFF1F0590F491E02D0994DA
:100A400010E0CFE3D0E004C0FE010E941A05219619
:0A0A5000C034D107C9F7F894FFCFB6
:00000001FF
