:100000000C9440000C945D000C945D000C945D0019
:100010000C945D000C945D000C945D000C945D00EC
:100020000C945D000C945D000C945D000C945D00DC
:100030000C945D000C945D000C945D000C945D00CC
:100040000C945D000C945D000C945D000C945D00BC
:100050000C945D000C945D000C945D000C945D00AC
:100060000C945D000C945D000C945D000C945D009C
:100070000C945D000C945D000C945D004A038104B7
:1000800011241FBECFEFD0E1DEBFCDBF22E0A0E044
:10009000B1E001C01D92AC33B207E1F710E0CFE34D
:1000A000D0E004C02197FE010E940005CE33D107A5
:1000B000C9F70E9431030C9406050C9400000895C2
:1000C000089508950895089568B9089561B9089547
:1000D00067B90895613031F4442311F0109A0895FE
:1000E00010980895623031F4442311F0119A089564
:1000F00011980895633031F4442311F0129A089551
:1001000012980895643031F4442311F0139A08953D
:1001100013980895653031F4442311F0149A08952A
:1001200014980895663031F4442311F0159A089517
:1001300015980895673031F4442311F0169A089504
:1001400016980895683029F4442311F0179A0895F9
:10015000179808959C019FEF960F983028F4692F07
:10016000C9010E946A00089582EF860F883028F442
:100170006D50C9010E946A0008958AEE860F88308A
:1001800028F46551C9010E946A0008958FED860F19
:10019000883020F46052C9010E946A0008950895D1
:1001A0000F931F93FC01608341832283148703878D
:1001B0001382148215821682178210861186128687
:1001C0001F910F910895EF92FF920F931F93CF937A
:1001D000DF93EC0107E010E0E62EF12CC701002EC2
:1001E00002C0959587950A94E2F7019739F441E0AA
:1001F00068818B859C850E94AA0006C040E06881CA
:100200008B859C850E94AA0041E069818B859C8535
:100210000E94AA0040E069818B859C850E94AA000B
:1002200001501109D8F641E06A818B859C850E94B6
:10023000AA0040E06A818B859C850E94AA00DF911C
:10024000CF911F910F91FF90EF9008957F928F9221
:100250009F92AF92BF92CF92DF92EF92FF920F9355
:100260001F93CF93DF93EC01702E822E932EA42E3A
:10027000B52EC62ED72E6894EE24E6F8F12C272D45
:10028000312F482D592D6A2D7B2D8C2D9D2D0E2D16
:100290000E94D804A1E00E94F40439F441E068818E
:1002A0008B859C850E94AA0006C040E068818B85F2
:1002B0009C850E94AA0041E069818B859C850E94F3
:1002C000AA0040E069818B859C850E94AA0081E09C
:1002D000E81AF108A1F641E06A818B859C850E94AD
:1002E000AA0040E06A818B859C850E94AA00DF916C
:1002F000CF911F910F91FF90EF90DF90CF90BF9023
:10030000AF909F908F907F90089508958F929F92C5
:10031000AF92BF92CF92DF92EF92FF920F93CF9363
:10032000DF93CDB7DEB7FC01CB01602F94838383CD
:100330005683458330872783028381869286A386EE
:10034000B486C586D686E786F08A1182108241E09F
:100350000E94AA00DF91CF910F91FF90EF90DF9064
:10036000CF90BF90AF909F908F9008950895CF92B7
:10037000DF92EF92FF920F931F93FC01718B608BC2
:10038000538B428BC086D186E286F386048715871D
:100390002687378710821182128213821482158277
:1003A000168217821F910F91FF90EF90DF90CF90F0
:1003B000089508958F929F92AF92BF92CF92DF924D
:1003C000EF92FF920F93CF93DF93CDB7DEB7FC018F
:1003D000CB01602F938382835583448337832683A5
:1003E000018380869186A286B386C486D586E686FA
:1003F000F786108241E00E94AA00DF91CF910F9111
:10040000FF90EF90DF90CF90BF90AF909F908F9034
:100410000895EF920F931F93CF93DF93EC018C819C
:100420009D810E9426018E819F81009731F46E2D5F
:100430008A819B810E94640003C06E2D0E94E300AC
:1004400040E069818A819B810E94AA0089EF90E047
:100450000197F1F700C0000041E069818A819B812A
:100460000E94AA00DF91CF911F910F91EF90089504
:1004700008958F929F92AF92BF92CF92DF92EF92A8
:10048000FF920F93CF93DF93CDB7DEB70E94DA01CF
:10049000DF91CF910F91FF90EF90DF90CF90BF90C1
:1004A000AF909F908F9008950E94380208956F92A8
:1004B0007F928F929F92AF92BF92CF92DF92EF92F4
:1004C000FF920F931F93CF93DF93C22ED32EF42E60
:1004D000D52FC62FB72FF82FE92FE02E2F3F0FE390
:1004E000300741055105610571058105910509F048
:1004F00068F4022F132F242F352F462F572F682FE4
:10050000792F81E192E00E9409029CC03054410998
:1005100051096109710981099109132F2F3F0FE3D7
:10052000300741055105610571058105910509F007
:1005300060F4022F242F352F462F572F682F792F45
:1005400081E092E00E9409027DC02C2D3D2D4F2DAF
:100550005D2F6C2F7B2F8F2F9E2F30584109510913
:100560006109710981099109132F2F3F0FE33007AA
:1005700041055105610571058105910509F060F49A
:10058000022F242F352F462F572F682F792F81EFD9
:1005900091E00E94090256C02C2D3D2D4F2D5D2F5C
:1005A0006C2F7B2F8F2F9E2F305C410951096109E1
:1005B000710981099109132F2F3F0FE3300741057E
:1005C0005105610571058105910509F060F4022F5F
:1005D000242F352F462F572F682F792F81EE91E04A
:1005E0000E9409022FC02C2D3D2D4F2D5D2F6C2F09
:1005F0007B2F8F2F9E2F2F5F3F4F4109510961099C
:10060000710981099109A1E00E94F40409F0D0F474
:100610002C2D3D2D4F2D5D2F6C2F7B2F8F2F9E2F3F
:10062000415051096109710981099109022F132F64
:10063000242F352F462F572F682F792F81ED91E0EA
:100640000E940902DF91CF911F910F91FF90EF90CF
:10065000DF90CF90BF90AF909F908F907F906F90E2
:1006600008956FEF8BE392E00E9466006FEF8BE3DB
:1006700092E00E94680083B1811183B10FEF20E006
:1006800030E040E050E060E070E080E090E00E9408
:100690005702F1CF8F929F92AF92BF92CF92DF928B
:1006A000EF92FF920F931F93CF93DF93CDB7DEB7F7
:1006B00060970FB6F894DEBF0FBECDBF8BE392E01C
:1006C0000E9463000BE312E026E247E268E28EE25A
:1006D00092E00E94D00023E244E265E281E292E0EF
:1006E0000E94D000812C912CA12CB12CC12CD12C9A
:1006F000E12CF12C02E221E232E04EE252E06BE327
:1007000072E081E192E00E94DA016894992496F8FF
:1007100021E232E04EE252E06BE372E081E092E0EF
:100720000E94DA016894992497F821E232E04EE2BF
:1007300052E06BE372E081EF91E00E94DA010F2E4C
:10074000F0EC9F2EF02D21E232E04EE252E06BE31E
:1007500072E081EE91E00E94DA01912CAA24A39428
:1007600021E232E04EE252E06BE372E0CE0101960C
:100770000E94390280E1FE013196A1EDB1E00190C5
:100780000D928A95E1F7CE0101960E945402689479
:10079000DD24D6F8EE24E39400E010E020E030E021
:1007A0004EE252E06BE372E08DEB91E00E94B70104
:1007B0006894DD24D7F820E030E04EE252E06BE3AD
:1007C00072E089EA91E00E94B701D12C0F2EFCE182
:1007D000EF2EF02D20E030E04EE252E06BE372E0CD
:1007E00085E991E00E94B7016894EE24E1F820E0E9
:1007F00030E04EE252E06BE372E081E891E00E946B
:10080000B7016894DD24D6F820E030E04EE252E0F3
:100810006BE372E08DE691E00E94B7016894DD24FD
:10082000D7F820E030E04EE252E06BE372E089E579
:1008300091E00E94B7010F2EF0EC9F2EF02D6894EE
:10084000AA24A1F8D12CE12C02E221E232E04EE20E
:1008500052E06BE372E088E491E00E948601912C03
:100860000F2EF3E0AF2EF02D21E232E04EE252E007
:100870006BE372E087E391E00E948601689499241B
:1008800096F821E232E04EE252E06BE372E086E25B
:1008900091E00E9486016894992497F821E232E061
:1008A0004EE252E06BE372E085E191E00E94860146
:1008B0000F2EF0EC9F2EF02D21E232E04EE252E0BE
:1008C0006BE372E084E091E00E94860182E091E0B7
:1008D0000E945F0080E091E00E94610060960FB688
:1008E000F894DEBF0FBECDBFDF91CF911F910F9166
:1008F000FF90EF90DF90CF90BF90AF909F908F9040
:10090000089580E091E00E94620082E091E00E9400
:10091000600084E091E00E94B60185E191E00E94D0
:10092000B60186E291E00E94B60187E391E00E9461
:10093000B60188E491E00E94B60189E591E00E9449
:10094000D9018DE691E00E94D90181E891E00E94F1
:10095000D90185E991E00E94D90189EA91E00E94DC
:10096000D9018DEB91E00E94D90181ED91E00E94C7
:10097000380281EE91E00E94380281EF91E00E94FE
:10098000380281E092E00E94380281E192E00E9408
:10099000380281E292E00E9485018EE292E00E949C
:1009A00085018BE392E00E94CF00089597FB10F839
:1009B000169400080F93083098F00850232F342F16
:1009C000452F562F672F782F892F902DF4CF059420
:1009D0009795879577956795579547953795279577
:1009E0000A95AAF70F9108950024A7FD00942A17ED
:1009F0003005400550056005700580059005089597
:100A0000EE0FFF1F0590F491E02D099410E0CFE365
:100A1000D0E004C0FE010E9400052196C034D10739
:060A2000C9F7F894FFCFB6
:00000001FF
