S00A00006F732E7372656338
S11300000C9440000C945D000C945D000C945D0015
S11300100C945D000C945D000C945D000C945D00E8
S11300200C945D000C945D000C945D000C945D00D8
S11300300C945D000C945D000C945D000C945D00C8
S11300400C945D000C945D000C945D000C945D00B8
S11300500C945D000C945D000C945D000C945D00A8
S11300600C945D000C945D000C945D000C945D0098
S11300700C945D000C945D000C945D007204DF052B
S113008011241FBECFEFD0E1DEBFCDBF23E0A0E03F
S1130090B1E001C01D92A53BB207E1F710E0CFE348
S11300A0D0E004C02197FE010E948006CE33D10720
S11300B0C9F70E942C040C9486060C940000089541
S11300C00895FC01158616861786DC01A15FBE4FD4
S11300D08FEF9FE111969C938E9350961C921497E8
S11300E0CF01835F9E4F11969C938E931296019637
S11300F011969C938E931697039711969C938E93C7
S11301001296019611969C938E93169703971196C7
S11301109C938E931296E65FFE4FED93FC930895A5
S1130120FC01E60FF11D90899F5F908B0895860F67
S1130130911DFC01408B0895641307C0FC01E15E2E
S1130140FE4F8081886180830895461738F4FC014E
S1130150E15EFE4F8081826080830895641730F4ED
S1130160FC01E15EFE4F808184608083089500007D
S11301700895CF93DF93FC01E60FF11DEC01C15FFD
S1130180DE4F688179814089FC01858196810E94D6
S1130190CC0288819981019799838883DF91CF91DB
S11301A0089508950895089508950895089568B9DF
S11301B0089561B9089567B90895613031F444230D
S11301C011F0109A089510980895623031F4442380
S11301D011F0119A089511980895633031F444236D
S11301E011F0129A089512980895643031F444235A
S11301F011F0139A089513980895653031F4442347
S113020011F0149A089514980895663031F4442333
S113021011F0159A089515980895673031F4442320
S113022011F0169A089516980895683029F4442315
S113023011F0179A0895179808959C019FEF960F4F
S1130240983028F4692FC9010E94DD00089582EFD7
S1130250860F883028F46D50C9010E94DD0008958E
S11302608AEE860F883028F46551C9010E94DD00AA
S113027008958FED860F883020F46052C9010E94E2
S1130280DD00089508950F931F93FC01608341835B
S1130290228314870387138214821582168217829D
S11302A01086118612861F910F910895EF92FF9286
S11302B00F931F93CF93DF93EC0107E010E0E62E3A
S11302C0F12CC701002E02C0959587950A94E2F798
S11302D0019739F441E068818B859C850E941D015A
S11302E006C040E068818B859C850E941D0141E029
S11302F069818B859C850E941D0140E069818B8505
S11303009C850E941D0101501109D8F641E06A81C3
S11303108B859C850E941D0140E06A818B859C85AC
S11303200E941D01DF91CF911F910F91FF90EF90DB
S11303300895CF92DF92EF92FF920F931F93CF9382
S1130340DF93EC01E72EFF240FE010E06B01DD24C6
S1130350C601002E02C0959587950A94E2F701978D
S113036039F441E068818B859C850E941D0106C09B
S113037040E068818B859C850E941D0141E0698174
S11303808B859C850E941D0140E069818B859C853D
S11303900E941D0101501109D8F607E010E0C701C1
S11303A0002E02C0959587950A94E2F7019739F4D7
S11303B041E068818B859C850E941D0106C040E058
S11303C068818B859C850E941D0141E069818B8534
S11303D09C850E941D0140E069818B859C850E945B
S11303E01D0101501109D8F641E06A818B859C8575
S11303F00E941D0140E06A818B859C850E941D013D
S1130400DF91CF911F910F91FF90EF90DF90CF90EC
S113041008957F928F929F92AF92BF92CF92DF9274
S1130420EF92FF920F931F93CF93DF93EC01702E03
S1130430822E932EA42EB52EC62ED72E6894EE248B
S1130440E6F8F12C272D312F482D592D6A2D7B2DBF
S11304508C2D9D2D0E2D0E945806A1E00E9474063D
S113046039F441E068818B859C850E941D0106C09A
S113047040E068818B859C850E941D0141E0698173
S11304808B859C850E941D0140E069818B859C853C
S11304900E941D0181E0E81AF108A1F641E06A8199
S11304A08B859C850E941D0140E06A818B859C851B
S11304B00E941D01DF91CF911F910F91FF90EF904A
S11304C0DF90CF90BF90AF909F908F907F900895D2
S11304D00895AF92BF92CF92DF92EF92FF920F9363
S11304E01F93FC01CB01748363835683458322836A
S11304F0A186B286C386D486E586F6860787108BE6
S11305001182108241E0622F0E941D011F910F9100
S1130510FF90EF90DF90CF90BF90AF900895089533
S1130520CF92DF92EF92FF920F931F93FC01718B96
S1130530608B538B428BC086D186E286F386048718
S113054015872687378710821182128213821482BC
S11305501582168217821F910F91FF90EF90DF9002
S1130560CF9008950895EF92FF920F931F93FC018B
S1130570CB0173836283558344832183E086F186B0
S113058002871387108241E0622F0E941D011F9190
S11305900F91FF90EF9008951F93CF93DF93EC0199
S11305A0142F8C819D810E9499018E819F810097D7
S11305B031F4612F8A819B810E94D70003C0612F8F
S11305C00E94560140E069818A819B810E941D013D
S11305D089EF90E00197F1F700C0000041E06981E4
S11305E08A819B810E941D01DF91CF911F91089503
S11305F0EF920F931F93CF93DF93EC018C819D8136
S11306000E9409028E819F81009731F46E2D8A81A8
S11306109B810E94D70003C06E2D0E94560140E0CA
S113062069818A819B810E941D0189EF90E0019775
S1130630F1F700C0000041E069818A819B810E943A
S11306401D01DF91CF911F910F91EF9008950895AF
S11306507F928F929F92AF92BF92CF92DF92EF924E
S1130660FF920F931F93CF93DF93CDB7DEB76C0147
S1130670702EE82CF92C0A2D1B2D0E94B302F601D2
S11306807486DF91CF911F910F91FF90EF90DF90CF
S1130690CF90BF90AF909F908F907F9008950E94CD
S11306A0270308956F927F928F929F92AF92BF9289
S11306B0CF92DF92EF92FF920F931F93CF93DF932A
S11306C0C22ED32EF42ED52FC62FB72FF82FE92FF5
S11306D0E02E2F3F0FE330074105510561057105F9
S11306E08105910509F068F4022F132F242F352F6B
S11306F0462F572F682F792F8DE893E00E94F80238
S11307009CC0305441095109610971098109910959
S1130710132F2F3F0FE33007410551056105710584
S11307208105910509F060F4022F242F352F462FFF
S1130730572F682F792F81E893E00E94F8027DC03B
S11307402C2D3D2D4F2D5D2F6C2F7B2F8F2F9E2F0A
S11307503058410951096109710981099109132F1F
S11307602F3F0FE3300741055105610571058105F0
S1130770910509F060F4022F242F352F462F572FAF
S1130780682F792F85E793E00E94F80256C02C2D3C
S11307903D2D4F2D5D2F6C2F7B2F8F2F9E2F305C87
S11307A0410951096109710981099109132F2F3FE9
S11307B00FE3300741055105610571058105910578
S11307C009F060F4022F242F352F462F572F682F5E
S11307D0792F89E693E00E94F8022FC02C2D3D2D3D
S11307E04F2D5D2F6C2F7B2F8F2F9E2F2F5F3F4F11
S11307F0410951096109710981099109A1E00E9426
S1130800740609F0D0F42C2D3D2D4F2D5D2F6C2F47
S11308107B2F8F2F9E2F4150510961097109810946
S11308209109022F132F242F352F462F572F682F6E
S1130830792F8DE593E00E94F802DF91CF911F910B
S11308400F91FF90EF90DF90CF90BF90AF909F906B
S11308508F907F906F9008956FEF84EB93E00E94E8
S1130860D9006FEF84EB93E00E94DB0085E793E00F
S1130870909306018093050182E091E00E94B70005
S113088069E082E091E00E9490004AE065E082E045
S113089091E00E94970045E069E082E091E00E94C7
S11308A09C0041E46EEF82E091E00E9497004AE0F0
S11308B060E082E091E00E94970060E082E091E0D5
S11308C00E94B90083B18823D9F283B10FEF20E0ED
S11308D030E040E050E060E070E080E090E00E94B2
S11308E05203CECF8F929F92AF92BF92CF92DF925C
S11308F0EF92FF920F931F9384EB93E00E94D60034
S113090004EB13E026E247E268E287EA93E00E9400
S1130910430123E244E265E28AE993E00E94430151
S113092089E993E00E945F00E12CF12C870121E02A
S113093047EA53E064EB73E08DE893E00E94B3026E
S1130940E12C10E2F12E00E010E021E047EA53E050
S113095064EB73E081E893E00E94B302E12C10E4BD
S1130960F12E00E010E021E047EA53E064EB73E08D
S113097085E793E00E94B302E12C10E5F12E00E03C
S113098010E021E047EA53E064EB73E089E693E08A
S11309900E94B302E12C10E6F12E00E010E021E009
S11309A047EA53E064EB73E08DE593E00E94B30201
S11309B0812C912CA12CB12CC12CD12CE12CF12C0B
S11309C002E021E047EA53E064EB73E08DE493E056
S11309D00E9428036894992495F821E047EA53E09B
S11309E064EB73E08DE393E00E94280368949924F8
S11309F096F821E047EA53E064EB73E08DE293E07C
S1130A000E9428038CE0EDE8F3E0A1EFB2E001904E
S1130A100D928A95E1F78CE0E1E8F3E0ADEFB2E006
S1130A2001900D928A95E1F78CE0E5E7F3E0A9E007
S1130A30B3E001900D928A95E1F78CE0E9E6F3E0EA
S1130A40A5E1B3E001900D928A95E1F78CE0EDE524
S1130A50F3E0A1E2B3E001900D928A95E1F70F2E45
S1130A60F0E7DF2EF02D00E010E020E030E047EA70
S1130A7053E064EB73E08DED92E00E949002689481
S1130A80DD24D7F820E030E047EA53E064EB73E07C
S1130A9089EC92E00E9490020F2EF0E9DF2EF02DF7
S1130AA020E030E047EA53E064EB73E085EB92E04A
S1130AB00E9490020F2EF0EADF2EF02D20E030E0AD
S1130AC047EA53E064EB73E081EA92E00E9490020B
S1130AD00F2EF0EBDF2EF02D20E030E047EA53E05C
S1130AE064EB73E08DE892E00E9490020F2EF0EC2C
S1130AF0DF2EF02D20E030E047EA53E064EB73E0B2
S1130B0089E792E00E9490020F2EF0ECBF2EF02DA8
S1130B106894CC24C1F8D12C21E047EA53E064EB7B
S1130B2073E088E692E00E946902B12C0F2EF3E094
S1130B30CF2EF02D21E047EA53E064EB73E087E524
S1130B4092E00E9469026894BB24B6F821E047EA67
S1130B5053E064EB73E086E492E00E9469026894D7
S1130B60BB24B7F821E047EA53E064EB73E085E384
S1130B7092E00E9469020F2EF0ECBF2EF02D21E0CE
S1130B8047EA53E064EB73E084E292E00E94690276
S1130B9082E292E00E94D20082E091E00E94610031
S1130BA080E091E00E94D4001F910F91FF90EF909C
S1130BB0DF90CF90BF90AF909F908F900895CF9388
S1130BC0DF9380E091E00E94D50082E091E00E94F2
S1130BD0D10082E292E00E94D30084E292E00E947B
S1130BE08F0285E392E00E948F0286E492E00E94E5
S1130BF08F0287E592E00E948F0288E692E00E94CD
S1130C008F0289E792E00E94B2028DE892E00E948E
S1130C10B20281EA92E00E94B20285EB92E00E9465
S1130C20B20289EC92E00E94B2028DED92E00E9441
S1130C30B202CDE2D3E02C97CE010E94270382E0DA
S1130C40C13FD807C1F78DE293E00E944F038DE3C3
S1130C5093E00E944F038DE493E00E944F038DE5DF
S1130C6093E00E94270389E693E00E94270385E727
S1130C7093E00E94270381E893E00E9427038DE814
S1130C8093E00E94270389E993E00E9460008AE9C7
S1130C9093E00E94680287EA93E00E94680284EB72
S1130CA093E00E944201DF91CF91089597FB10F8E1
S1130CB0169400080F93083098F00850232F342F0F
S1130CC0452F562F672F782F892F902DF4CF059419
S1130CD09795879577956795579547953795279570
S1130CE00A95AAF70F9108950024A7FD00942A17E6
S1130CF03005400550056005700580059005089590
S1130D00EE0FFF1F0590F491E02D099410E0CFE35E
S1130D10D0E004C0FE010E9480062196C034D107B1
S1090D20C9F7F894FFCFAF
S9030000FC
