S00A00006F732E7372656338
S11300000C9440000C945D000C945D000C945D0015
S11300100C945D000C945D000C945D000C945D00E8
S11300200C945D000C945D000C945D000C945D00D8
S11300300C945D000C945D000C945D000C945D00C8
S11300400C945D000C945D000C945D000C945D00B8
S11300500C945D000C945D000C945D000C945D00A8
S11300600C945D000C945D000C945D000C945D0098
S11300700C945D000C945D000C945D00E10F211064
S113008011241FBECFEFD0E1DEBFCDBF22E0A0E040
S1130090B1E001C01D92A135B207E1F710E0CFE352
S11300A0D0E004C02197FE010E944A10CE33D1074C
S11300B0C9F70E94C80F0C9450100C940000CF9301
S11300C0DF93FC01E55FFE4F7183608332965183B9
S11300D0408332962FEF3FE13183208332961082A2
S11300E01182128213827297BC01695F7E4F9C0158
S11300F022503F4FDB012D933C93EC01C75FDE4F51
S1130100F983E88326972250310939832883275FAE
S11301103F4FAC0143505F4FD9014D935C932B503B
S1130120310931832083295F3F4F42505109D9015E
S11301304D935C932C5E3F4FD901ED93FC937896DD
S1130140D183C083329671836083DF91CF91089508
S1130150CF92DF92EF92FF92CF93DF936A017B01FC
S1130160EC01C55FDE4F888199810E94410F21E037
S1130170280FB701A601888199810E94230FDF917E
S1130180CF91FF90EF90DF90CF900895CF92DF92C0
S1130190EF92FF92CF93DF936A017B01EC01C55F7D
S11301A0DE4F888199810E94410F2FEF280FB701FC
S11301B0A601888199810E94230FDF91CF91FF903E
S11301C0EF90DF90CF9008951F93CF93DF93EC01CE
S11301D0162FBA01A901FC01E55FFE4F80819181D0
S11301E00E94410FC10FD11D8883DF91CF911F91D0
S11301F00895FC01E150FF4FA281B3812C9130E0BE
S1130200322F22270190F081E02D4081242B032EF0
S1130210000C440B550B0E94E4000895FC01ED5FB3
S1130220FE4FA281B3812C9130E0322F222701901E
S1130230F081E02D4081242B032E000C440B550B40
S11302400E94E4000895FC01E95FFE4FA281B3819E
S11302502C9130E0322F22270190F081E02D408153
S1130260242B032E000C440B550B0E94E40008952C
S1130270FC01E60FF11DDC01AF5FBE4F0D90BC9198
S1130280A02D4C9150E060E070E0762F652F542F44
S11302904427DC01A150BF4F0D90BC91A02D2C919F
S11302A0422BDC01A55FBE4F20818D919C910E9461
S11302B0230F0895FC01E60FF11DDC01AB5FBE4F77
S11302C00D90BC91A02D4C9150E060E070E0762F31
S11302D0652F542F4427DC01AD5FBE4F0D90BC91B8
S11302E0A02D2C91422BDC01A55FBE4F20818D9166
S11302F09C910E94230F0895FC01E60FF11DDC017F
S1130300A75FBE4F0D90BC91A02D4C9150E060E0D2
S113031070E0762F652F542F4427DC01A95FBE4F70
S11303200D90BC91A02D2C91422BDC01A55FBE4FFA
S113033020818D919C910E94230F0895855F9E4F8B
S1130340FC01808191810E94230F0895835F9E4F59
S1130350FC01808191810E94230F0895262FFC01C6
S1130360E150FF4FA281B3814C9150E0542F4427B8
S11303700190F081E02D3081432B052E000C660B9B
S1130380770BFC01E35FFE4F808191810E94230F74
S11303900895262FFC01ED5FFE4FA281B3814C919D
S11303A050E0542F44270190F081E02D3081432BFD
S11303B0052E000C660B770BFC01E35FFE4F80817A
S11303C091810E94230F0895262FFC01E95FFE4FBF
S11303D0A281B3814C9150E0542F44270190F081C5
S11303E0E02D3081432B052E000C660B770BFC01AE
S11303F0E35FFE4F808191810E94230F0895CF9384
S1130400DF93DC01A15FBE4FFC01E150FF4FC281CD
S1130410D3819881892F90E0982F88270190F081CB
S1130420E02D2081822B8D939C93DF91CF910895B1
S1130430FC01E150FF4FA281B3814C9150E0542F55
S113044044270190F081E02D2081422B052E000CE1
S1130450660B770BFC01ED5FFE4FA281B3815C93C9
S11304600190F081E02D40830895FC01E150FF4F9D
S1130470A281B3814C9150E0542F44270190F08124
S1130480E02D2081422B052E000C660B770BFC011E
S1130490E95FFE4FA281B3815C930190F081E02D6E
S11304A040830895CF93DF93DC01A15FBE4FFC012D
S11304B0ED5FFE4FC281D3819881892F90E0982F00
S11304C088270190F081E02D2081822B8D939C93CD
S11304D0DF91CF910895FC01ED5FFE4FA281B381BE
S11304E04C9150E0542F44270190F081E02D20815D
S11304F0422B052E000C660B770BFC01E150FF4FDD
S1130500A281B3815C930190F081E02D4083089532
S1130510FC01ED5FFE4FA281B3814C9150E0542F5A
S113052044270190F081E02D2081422B052E000C00
S1130530660B770BFC01E95FFE4FA281B3815C93EC
S11305400190F081E02D40830895CF93DF93DC0187
S1130550A15FBE4FFC01E95FFE4FC281D381988148
S1130560892F90E0982F88270190F081E02D208139
S1130570822B8D939C93DF91CF910895FC01E95FC9
S1130580FE4FA281B3814C9150E0542F4427019037
S1130590F081E02D2081422B052E000C660B770B99
S11305A0FC01E150FF4FA281B3815C930190F08183
S11305B0E02D40830895FC01E95FFE4FA281B381E1
S11305C04C9150E0542F44270190F081E02D20817C
S11305D0422B052E000C660B770BFC01ED5FFE4FE2
S11305E0A281B3815C930190F081E02D4083089552
S11305F0FC01E15FFE4F208131817097A281B381BC
S1130600A9015C930190F081E02D20830895FC0101
S1130610E15FFE4F208131813C97A281B381A90122
S11306205C930190F081E02D20830895FC01E15F4B
S1130630FE4F208131813897A281B381A9015C9357
S11306400190F081E02D20830895641307C0FC011C
S1130650E55EFE4F8081886080830895461730F4FC
S1130660FC01E55EFE4F208122602083641730F494
S1130670FC01E55EFE4F80818460808308956413ED
S113068007C0FC01E55EFE4F808188608083089589
S1130690461730F4FC01E55EFE4F20812260208382
S11306A0641730F4FC01E55EFE4F80818460808332
S11306B008951F93CF93DF93EC01162FBA01A9017C
S11306C0FC01E55FFE4F808191810E94410F8113FF
S11306D006C0C55EDE4F8881886088830FC081179D
S11306E030F4FE01E55EFE4F90819260908318170E
S11306F028F4C55EDE4F888184608883DF91CF91C2
S11307001F9108958F929F92AF92BF92EF92FF92A2
S11307100F931F93CF93DF93EC01480159017C01A0
S113072085EFE81A8EEFF80AF701808191810E9423
S1130730410F182FB501A401F701808191810E9416
S1130740410F181306C0C55EDE4F88818860888318
S11307500FC0811730F4FE01E55EFE4F9081926078
S11307609083181728F4C55EDE4F888184608883DF
S1130770DF91CF911F910F91FF90EF90BF90AF90B9
S11307809F908F900895FC01E55EFE4F208123FF2A
S113079005C03A9740835183628373830895FC01B3
S11307A0E55EFE4F208123FF0DC03A978081918141
S11307B0A281B381480F591F6A1F7B1F4083518355
S11307C0628373830895FC01E55EFE4F208123FF5D
S11307D00DC03A9780819181A281B381841B950BCE
S11307E0A60BB70B80839183A283B3830895FC0186
S11307F0E55EFE4F208130E0F901F595E795F5952A
S1130800E795F595E795E0FD12C0F901F595E795B3
S1130810E0FD06C0359527953595279520FF07C03F
S1130820FC01EF5EFE4F408351836283738308951E
S1130830FC01E55EFE4F208130E0F901F595E79576
S1130840F595E795F595E795E0FD1AC0F901F5955D
S1130850E795E0FD06C0359527953595279520FF4A
S11308600FC0FC01EF5EFE4F80819181A281B381B4
S1130870480F591F6A1F7B1F408351836283738310
S11308800895FC01E55EFE4F208130E0F901F59505
S1130890E795F595E795F595E795E0FD1AC0F9011B
S11308A0F595E795E0FD06C035952795359527958F
S11308B020FF0FC0FC01EF5EFE4F80819181A28179
S11308C0B381841B950BA60BB70B80839183A28302
S11308D0B3830895FC01E55EFE4F208130E0F90109
S11308E0F595E795F595E795F595E795359527956C
S11308F02E2B3F2B20FF07C0FC01EF5EFE4F4083F1
S11309005183628373830895FC01E55EFE4F208169
S113091030E0F901F595E795F595E795F595E795B7
S1130920359527952E2B3F2B20FF0FC0FC01EF5E42
S1130930FE4F80819181A281B381480F591F6A1FA4
S11309407B1F40835183628373830895FC01E55EBA
S1130950FE4F208130E0F901F595E795F595E7958F
S1130960F595E795359527952E2B3F2B20FF0FC046
S1130970FC01EF5EFE4F80819181A281B381841BD3
S1130980950BA60BB70B80839183A283B383089541
S1130990FC01E55EFE4F208130E0F901F595E79515
S11309A0F595E795F595E79535952795359527952B
S11309B02E2B3F2B20FF07C0FC01EF5EFE4F408330
S11309C05183628373830895FC01E55EFE4F2081A9
S11309D030E0F901F595E795F595E795F595E795F7
S11309E035952795359527952E2B3F2B20FF0FC046
S11309F0FC01EF5EFE4F80819181A281B381480F9B
S1130A00591F6A1F7B1F4083518362837383089538
S1130A10FC01E55EFE4F208130E0F901F595E79594
S1130A20F595E795F595E7953595279535952795AA
S1130A302E2B3F2B20FF0FC0FC01EF5EFE4F808169
S1130A409181A281B381841B950BA60BB70B808384
S1130A509183A283B3830895FC01E55EFE4F208158
S1130A6030E0F901F595E795F595E795F595E79566
S1130A70E0FD0BC03595279520FF07C0FC01EF5E14
S1130A80FE4F40835183628373830895FC01E55EC6
S1130A90FE4F208130E0F901F595E795F595E7954E
S1130AA0F595E795E0FD13C03595279520FF0FC018
S1130AB0FC01EF5EFE4F80819181A281B381480FDA
S1130AC0591F6A1F7B1F4083518362837383089578
S1130AD0FC01E55EFE4F208130E0F901F595E795D4
S1130AE0F595E795F595E795E0FD13C035952795C0
S1130AF020FF0FC0FC01EF5EFE4F80819181A28137
S1130B00B381841B950BA60BB70B80839183A283BF
S1130B10B3830895FC01E55EFE4F208130E0F901C6
S1130B20F595E795F595E795F595E795E0FD0DC005
S1130B30359527953595279520FF07C0FC01EF5E75
S1130B40FE4F40835183628373830895FC01E55E05
S1130B50FE4F208130E0F901F595E795F595E7958D
S1130B60F595E795E0FD15C03595279535952795BD
S1130B7020FF0FC0FC01EF5EFE4F80819181A281B6
S1130B80B381480F591F6A1F7B1F408351836283BF
S1130B9073830895FC01E55EFE4F208130E0F90186
S1130BA0F595E795F595E795F595E795E0FD15C07D
S1130BB0359527953595279520FF0FC0FC01EF5EED
S1130BC0FE4F80819181A281B381841B950BA60B7A
S1130BD0B70B80839183A283B3830895CF93DF936C
S1130BE0FC01E60FF11DEC01C15FDE4F4881598124
S1130BF060E070E0DC01A55FBE4F20818D919C9187
S1130C000E94230F88819981019799838883DF91BA
S1130C10CF910895CF92DF92EF92FF92CF93DF931B
S1130C20EC016A017B01FC01E15FFE4F60810E94DF
S1130C30EE05CF5EDE4FC882D982EA82FB82DF9165
S1130C40CF91FF90EF90DF90CF900895CF93DF93F3
S1130C50262FEC01C15FDE4F4881598160E070E0CE
S1130C60FC01E55FFE4F808191810E94230F888102
S1130C709981019799838883DF91CF910895CF93C8
S1130C80DF93EC01C15FDE4F4881598160E070E081
S1130C90FC01E55FFE4F808191810E94410F288114
S1130CA039812F5F3F4F39832883DF91CF91089596
S1130CB01F93CF93DF93EC01162F0E943F06C10FC1
S1130CC0D11D8883DF91CF911F910895FC01E60F18
S1130CD0F11D9081929590830895FC0160816111CA
S1130CE00DC0818190E0E9EFF0E03197F1F700C0A9
S1130CF00000019718161906B4F32FC0613081F46F
S1130D008181882319F09281911104C081E0838349
S1130D1060E023C0899F802D1124838360E01DC07F
S1130D20623071F46281611104C0138281E08483B2
S1130D3014C081810E943E108383148260E00DC040
S1130D408DEF860F833030F06F3F31F481E0818383
S1130D5065E603C062E601C060E0862F08951F9334
S1130D60CF93DF93EC010E943F06CE010E943F0621
S1130D70CE010E943F06CE010E943F06CE010E9492
S1130D803F06182FCE010E943F06CF5EDE4F212F73
S1130D9030E0322F2227A901482BCA01092E000C6A
S1130DA0AA0BBB0B88839983AA83BB83DF91CF9162
S1130DB01F9108954F925F926F927F92AF92BF926C
S1130DC0CF92DF92EF92FF920F931F93CF93DF9313
S1130DD06C01EC01CF5EDE4F7C0105EFE01A0EEFF3
S1130DE0F00A5C0115EEA11A1EEFB10A488159817F
S1130DF06A817B81F701808191810E94410F811179
S1130E000AC0C6010E946D06823609F459C78536A8
S1130E1009F041C74CC78130D9F4488159816A81AE
S1130E207B81F701808191810E94410FF601E80FD7
S1130E30F11D80818F5F808388819981AA81BB8124
S1130E400196A11DB11D88839983AA83BB8323C7FF
S1130E508230F1F4488159816A817B814F5F5F4F11
S1130E606F4F7F4FF701808191810E944F0FAB013B
S1130E70BC01C6010E94A80088819981AA81BB8116
S1130E800496A11DB11D88839983AA83BB8303C7DC
S1130E908330F9F4488159816A817B814F5F5F4FC8
S1130EA06F4F7F4FF701808191810E94410FF601BE
S1130EB0E80FF11D80818150808388819981AA8106
S1130EC0BB810196A11DB11D88839983AA83BB832D
S1130ED0E2C68430F1F4488159816A817B814F5F95
S1130EE05F4F6F4F7F4FF701808191810E944F0FB9
S1130EF0AB01BC01C6010E94C60088819981AA8108
S1130F00BB810496A11DB11D88839983AA83BB83E9
S1130F10C2C6853079F5488159816A817B814F5FEA
S1130F205F4F6F4F7F4FF701808191810E94410F86
S1130F30182F488159816A817B814E5F5F4F6F4FC3
S1130F407F4FF701808191810E94410FF601E80FE4
S1130F50F11D8081F601E10FF11D80838881998163
S1130F60AA81BB810296A11DB11D88839983AA839E
S1130F70BB8391C6863069F5488159816A817B813A
S1130F804F5F5F4F6F4F7F4FF701808191810E94C8
S1130F90410F182F488159816A817B814E5F5F4FD1
S1130FA06F4F7F4FF701808191810E944F0F9B010A
S1130FB0AC01612FC6010E94E40088819981AA8155
S1130FC0BB810596A11DB11D88839983AA83BB8328
S1130FD062C6873059F5488159816A817B814F5FA8
S1130FE05F4F6F4F7F4FF701808191810E94410FC6
S1130FF0182F488159816A817B814E5F5F4F6F4F03
S11310007F4FF701808191810E94410FF601E10F2A
S1131010F11D808388819981AA81BB810296A11DDB
S1131020B11D88839983AA83BB8335C68830E9F4CC
S1131030488159816A817B814F5F5F4F6F4F7F4F3A
S1131040F701808191810E94410F682FC6010E949F
S1131050380188819981AA81BB810196A11DB11DA6
S113106088839983AA83BB8316C68930E9F44881AF
S113107059816A817B814F5F5F4F6F4F7F4FF701CB
S1131080808191810E94410F682FC6010E945A01FC
S113109088819981AA81BB810196A11DB11D888394
S11310A09983AA83BB83F7C58A30E9F448815981BF
S11310B06A817B814F5F5F4F6F4F7F4FF701808164
S11310C091810E94410F682FC6010E947C01888192
S11310D09981AA81BB810196A11DB11D8883998341
S11310E0AA83BB83D8C58B3071F5488159816A8145
S11310F07B814F5F5F4F6F4F7F4FF70180819181FD
S11311000E944F0F2B013C01488159816A817B81E8
S11311104B5F5F4F6F4F7F4FF701808191810E943A
S1131120410F282FB301A201C6010E949E018881AC
S11311309981AA81BB810596A11DB11D88839983DC
S1131140AA83BB83A8C58C3071F5488159816A8113
S11311507B814F5F5F4F6F4F7F4FF701808191819C
S11311600E944F0F2B013C01488159816A817B8188
S11311704B5F5F4F6F4F7F4FF701808191810E94DA
S1131180410F282FB301A201C6010E94A601888144
S11311909981AA81BB810596A11DB11D888399837C
S11311A0AA83BB8378C58D30E9F4488159816A816B
S11311B07B814F5F5F4F6F4F7F4FF701808191813C
S11311C00E94410F682FC6010E94AE018881998157
S11311D0AA81BB810196A11DB11D88839983AA832D
S11311E0BB8359C58E30E9F4488159816A817B817A
S11311F04F5F5F4F6F4F7F4FF701808191810E9456
S1131200410F682FC6010E94C90188819981AA8172
S1131210BB810196A11DB11D88839983AA83BB83D9
S11312203AC58F30E9F4488159816A817B814F5FE7
S11312305F4F6F4F7F4FF701808191810E94410F73
S1131240682FC6010E94E40188819981AA81BB812B
S11312500196A11DB11D88839983AA83BB831BC5F5
S1131260803121F4C6010E94FF0115C5813121F4AA
S1131270C6010E9418020FC5823121F4C6010E94E2
S1131280350209C5833121F4C6010E94520203C507
S1131290843121F4C6010E946B02FDC4853121F41E
S11312A0C6010E948802F7C4863121F4C6010E9457
S11312B0A502F1C4873121F4C6010E94BE02EBC429
S11312C0883121F4C6010E94DB02E5C4893121F48E
S11312D0C6010E94F802DFC48A3121F4C6010E94CB
S11312E00703D9C48B3121F4C6010E941603D3C469
S11312F08C3161F5488159816A817B814F5F5F4FF1
S11313006F4F7F4FF701808191810E94410F182F09
S1131310488159816A817B814E5F5F4F6F4F7F4F58
S1131320F701808191810E94410F482F612FC601EE
S11313300E94250388819981AA81BB810296A11DFF
S1131340B11D88839983AA83BB83A5C48D3161F5BC
S1131350488159816A817B814F5F5F4F6F4F7F4F17
S1131360F701808191810E94410F182F4881598192
S11313706A817B814E5F5F4F6F4F7F4FF7018081A2
S113138091810E94410F482F612FC6010E943F03A3
S113139088819981AA81BB810296A11DB11D888390
S11313A09983AA83BB8377C48E3109F54881598117
S11313B06A817B814F5F5F4F6F4F7F4FF701808161
S11313C091810E94410FF601E80FF11D808190E0A8
S11313D095958795808388819981AA81BB8101969F
S11313E0A11DB11D88839983AA83BB8354C48F3103
S11313F0F9F4488159816A817B814F5F5F4F6F4F58
S11314007F4FF701808191810E94410FF601E80F1F
S1131410F11D8081880F808388819981AA81BB8195
S11314200196A11DB11D88839983AA83BB8333C40C
S11314308032D1F4488159816A817B81F7018081AE
S113144091810E944F0FAB01BC01C6010E94C303EE
S113145088819981AA81BB810496A11DB11D8883CD
S11314609983AA83BB8317C4813211F548815981BA
S11314706A817B81F701808191810E944F0F4880AE
S113148059806A807B80AB01BC01440D551D661DEB
S1131490771DC6010E94CF0388819981AA81BB81EF
S11314A00496A11DB11D88839983AA83BB83F3C3CA
S11314B0823221F5488159816A817B81F7018081DB
S11314C091810E944F0F488059806A807B809301EC
S11314D08201061B170B280B390BB901A801C601A1
S11314E00E94E30388819981AA81BB810496A11D8E
S11314F0B11D88839983AA83BB83CDC38332D1F47E
S1131500488159816A817B81F701808191810E94A0
S11315104F0FAB01BC01C6010E94F703888199817A
S1131520AA81BB810496A11DB11D88839983AA83D6
S1131530BB83B1C3843211F5488159816A817B81AF
S1131540F701808191810E944F0F488059806A8001
S11315507B80AB01BC01440D551D661D771DC60182
S11315600E94180488819981AA81BB810496A11DD7
S1131570B11D88839983AA83BB838DC3853221F5EA
S1131580488159816A817B81F701808191810E9420
S11315904F0F488059806A807B8093018201061B2B
S11315A0170B280B390BB901A801C6010E9441048D
S11315B088819981AA81BB810496A11DB11D88836C
S11315C09983AA83BB8367C38632D1F44881598146
S11315D06A817B81F701808191810E944F0FAB0169
S11315E0BC01C6010E946A0488819981AA81BB81D9
S11315F00496A11DB11D88839983AA83BB834BC321
S1131600873211F5488159816A817B81F701808194
S113161091810E944F0F488059806A807B80AB0182
S1131620BC01440D551D661D771DC6010E9484042E
S113163088819981AA81BB810496A11DB11D8883EB
S11316409983AA83BB8327C3883221F548815981B2
S11316506A817B81F701808191810E944F0F4880CC
S113166059806A807B8093018201061B170B280B2B
S1131670390BB901A801C6010E94A6048881998189
S1131680AA81BB810496A11DB11D88839983AA8375
S1131690BB8301C38932D1F4488159816A817B813A
S11316A0F701808191810E944F0FAB01BC01C601FB
S11316B00E94C80488819981AA81BB810496A11DD6
S11316C0B11D88839983AA83BB83E5C28A3211F54D
S11316D0488159816A817B81F701808191810E94CF
S11316E04F0F488059806A807B80AB01BC01440D58
S11316F0551D661D771DC6010E94E40488819981E9
S1131700AA81BB810496A11DB11D88839983AA83F4
S1131710BB83C1C28B3221F5488159816A817B81A7
S1131720F701808191810E944F0F488059806A801F
S11317307B8093018201061B170B280B390BB9011F
S1131740A801C6010E94080588819981AA81BB81EC
S11317500496A11DB11D88839983AA83BB839BC270
S11317608C32D1F4488159816A817B81F70180816F
S113177091810E944F0FAB01BC01C6010E942C0550
S113178088819981AA81BB810496A11DB11D88839A
S11317909983AA83BB837FC28D3211F54881598115
S11317A06A817B81F701808191810E944F0F48807B
S11317B059806A807B80AB01BC01440D551D661DB8
S11317C0771DC6010E94460588819981AA81BB8143
S11317D00496A11DB11D88839983AA83BB835BC230
S11317E08E3221F5488159816A817B81F70180819C
S11317F091810E944F0F488059806A807B809301B9
S11318008201061B170B280B390BB901A801C6016D
S11318100E94680588819981AA81BB810496A11DD3
S1131820B11D88839983AA83BB8335C28F32D1F4D7
S1131830488159816A817B81F701808191810E946D
S11318404F0FAB01BC01C6010E948A0588819981B2
S1131850AA81BB810496A11DB11D88839983AA83A3
S1131860BB8319C2803311F5488159816A817B8118
S1131870F701808191810E944F0F488059806A80CE
S11318807B80AB01BC01440D551D661D771DC6014F
S11318900E94A60588819981AA81BB810496A11D15
S11318A0B11D88839983AA83BB83F5C1813321F554
S11318B0488159816A817B81F701808191810E94ED
S11318C04F0F488059806A807B8093018201061BF8
S11318D0170B280B390BB901A801C6010E94CA05D0
S11318E088819981AA81BB810496A11DB11D888339
S11318F09983AA83BB83CFC18233E9F44881598198
S11319006A817B814F5F5F4F6F4F7F4FF70180810B
S113191091810E94410FF601E80FF11D1082888128
S11319209981AA81BB810196A11DB11D88839983E8
S1131930AA83BB83B0C1833319F4F5011082ABC110
S11319408433E9F4488159816A817B814F5F5F4F19
S11319506F4F7F4FF701808191810E94410F682F63
S1131960C6010E94660688819981AA81BB8101967D
S1131970A11DB11D88839983AA83BB838CC1853340
S1131980E9F4488159816A817B814F5F5F4F6F4FD2
S11319907F4FF701808191810E94410F682FC6011A
S11319A00E94580688819981AA81BB810196A11D54
S11319B0B11D88839983AA83BB836DC18633E9F4FF
S11319C0488159816A817B814F5F5F4F6F4F7F4FA1
S11319D0F701808191810E94410F682FC6010E9406
S11319E0EE0588819981AA81BB810196A11DB11D53
S11319F088839983AA83BB834EC18733B1F5488119
S1131A0059816A817B814F5F5F4F6F4F7F4FF70131
S1131A10808191810E94410FE82FF0E0EE0FFF1FBB
S1131A20EC0DFD1DEB5EFE4F0190F081E02DA281D7
S1131A30B3816C9170E0762F66270190F081E02DE0
S1131A408081682B072E000C880B990BC6010E941D
S1131A50EE0588819981AA81BB810196A11DB11DE2
S1131A6088839983AA83BB8316C18833E9F44881A8
S1131A7059816A817B814F5F5F4F6F4F7F4FF701C1
S1131A80808191810E94410F682FC6010E94260621
S1131A9088819981AA81BB810196A11DB11D88838A
S1131AA09983AA83BB83F7C08933E9F448815981B8
S1131AB06A817B814F5F5F4F6F4F7F4FF70180815A
S1131AC091810E94410F682FC6010E94F90088810C
S1131AD09981AA81BB810196A11DB11D8883998337
S1131AE0AA83BB83D8C08A33E9F4488159816A81C7
S1131AF07B814F5F5F4F6F4F7F4FF70180819181F3
S1131B000E94410F682FC6010E940E0188819981AD
S1131B10AA81BB810196A11DB11D88839983AA83E3
S1131B20BB83B9C08B33E9F4488159816A817B81D5
S1131B304F5F5F4F6F4F7F4FF701808191810E940C
S1131B40410F682FC6010E94230188819981AA81CF
S1131B50BB810196A11DB11D88839983AA83BB8390
S1131B609AC08C3321F4C6010E94AF0694C08D3311
S1131B7099F4488159816A817B81F701808191813F
S1131B800E944F0FDC01CB010496A11DB11D888377
S1131B909983AA83BB837FC08E33D1F44881598152
S1131BA06A817B81F701808191810E944F0FAB0193
S1131BB0BC01C6010E940A0688819981AA81BB8161
S1131BC00496A11DB11D88839983AA83BB8363C036
S1131BD08F3369F5488159816A817B814F5F5F4FFB
S1131BE06F4F7F4FF701808191810E94410F182F21
S1131BF0488159816A817B814E5F5F4F6F4F7F4F70
S1131C00F701808191810E944F0F9B01AC01612FEC
S1131C10C6010E94590388819981AA81BB810596D6
S1131C20A11DB11D88839983AA83BB8334C08034EA
S1131C3079F5488159816A817B814F5F5F4F6F4F8E
S1131C407F4FF701808191810E944F0F2B013C014E
S1131C50488159816A817B814B5F5F4F6F4F7F4F12
S1131C60F701808191810E944F0F8B019C01B30188
S1131C70A201C6010E94820388819981AA81BB8145
S1131C800896A11DB11D88839983AA83BB8303C0D1
S1131C908F3F09F4000088819981AA81BB81019654
S1131CA0A11DB11D88839983AA83BB839FC8F601B4
S1131CB0EF5EFE4F108211821282138285E601C00C
S1131CC082E6DF91CF911F910F91FF90EF90DF900B
S1131CD0CF90BF90AF907F906F905F904F9008959A
S1131CE00895089589B1089568B9089561B908956A
S1131CF064B9089567B908956AB90895442359F0F9
S1131D0022B181E090E002C0880F991F6A95E2F742
S1131D10822B82B9089522B181E090E002C0880F3D
S1131D20991F6A95E2F78095822382B908959C01F0
S1131D309FEF960F983028F4692FC9010E947E0EF8
S1131D40089582EF860F883028F46D50C9010E94EF
S1131D507E0E08958AEE860F883028F46551C901F5
S1131D600E947E0E08958FED860F883020F4605215
S1131D70C9010E947E0E089508950F931F93FC01DC
S1131D80608341832283148703871382148215821C
S1131D90168217821086118612861F910F9108955C
S1131DA0CF92DF92EF92FF920F931F93CF93DF9323
S1131DB0EC016A017B010FE110E0D701C601002E9E
S1131DC004C0B695A795979587950A94D2F701977D
S1131DD0A105B10539F441E068818B859C850E9499
S1131DE0970E06C040E068818B859C850E94970E03
S1131DF041E069818B859C850E94970E40E0698152
S1131E008B859C850E94970E01501109B0F641E024
S1131E106A818B859C850E94970E40E06A818B8540
S1131E209C850E94970EDF91CF911F910F91FF9097
S1131E30EF90DF90CF9008950895FC017183608343
S1131E405383428308951F93CF93DF93EC01122FA2
S1131E508A819B810E94D00E612F888199810E9482
S1131E60740E41E06885888199810E94970E40E054
S1131E706885888199810E94970EDF91CF911F9187
S1131E800895CF93DF93EC018A819B810E94D00E49
S1131E90888199810E94720EDF91CF9108954F92AB
S1131EA05F926F927F928F929F92AF92BF92CF92E6
S1131EB0DF92FF920F931F93CF93DF93EC014A01BC
S1131EC05B012A013B0183E0480E511C611C711C1B
S1131ED0B301A2018A819B810E94D00EB301A201A9
S1131EE0CE010E94410FF82E2401350182E0480EF4
S1131EF0511C611C711CB301A2018A819B810E9447
S1131F00D00EB301A201CE010E94410F182F24016B
S1131F1035018FEF481A580A680A780AB301A201FA
S1131F208A819B810E94D00EB301A201CE010E943E
S1131F30410F082FB501A4018A819B810E94D00E14
S1131F40B501A401CE010E94410F402F50E060E092
S1131F5070E0BA01552744275A016B01D82AD601EB
S1131F60C5018F29BC01CD01712BDF91CF911F9148
S1131F700F91FF90DF90CF90BF90AF909F908F9084
S1131F807F906F905F904F900895089508950895FD
S1131F906FEF80E592E00E94760E60EA80E592E0C1
S1131FA00E94780E6FEF80E592E00E947A0E60E066
S1131FB080E592E00E947C0E80E091E00E94DA06C7
S1131FC0FBCFEF920F931F9380E592E00E94710E76
S1131FD000E512E026E247E268E283E492E00E9430
S1131FE0BD0E23E244E265E286E392E00E94BD0E68
S1131FF06894EE24E3F806E026E040E552E066E368
S113200072E08EE292E00E94C60F43E452E060E583
S113201072E085E292E00E941D0F43E452E060E525
S113202072E08CE192E00E941D0F4CE152E065E207
S113203072E080E091E00E945F001F910F91EF90A9
S1132040089580E091E00E94700E8CE192E00E947D
S1132050C50F85E292E00E94C50F8EE292E00E94D5
S1132060C70F86E392E00E941C0F83E492E00E9473
S11320701C0F80E592E00E94BC0E0895991B79E044
S113208004C0991F961708F0961B881F7A95C9F704
S113209080950895EE0FFF1F0590F491E02D0994AB
S11320A010E0CFE3D0E004C0FE010E944A10219664
S10D20B0C034D107C9F7F894FFCF3C
S9030000FC
