S00A00006F732E7372656338
S11300000C9440000C945D000C945D000C945D0015
S11300100C945D000C945D000C945D000C945D00E8
S11300200C945D000C945D000C945D000C945D00D8
S11300300C945D000C945D000C945D000C945D00C8
S11300400C945D000C945D000C945D000C945D00B8
S11300500C945D000C945D000C945D000C945D00A8
S11300600C945D000C945D000C945D000C945D0098
S11300700C945D000C945D000C945D00F602600429
S113008011241FBECFEFD0E1DEBFCDBF23E0A0E03F
S1130090B1E001C01D92A335B207E1F710E0CFE350
S11300A0D0E004C02197FE010E94D304CE33D107CF
S11300B0C9F70E94B7020C94D9040C940000FC0107
S11300C0738362835183408308950895FC011586E8
S11300D016861786DC01A15FBE4F8FEF9FE1119654
S11300E09C938E9350961C921497CF01835F9E4FDE
S11300F011969C938E931296019611969C938E93CF
S11301001697039711969C938E93129601961196C7
S11301109C938E931697039711969C938E931296A5
S1130120E65FFE4FED93FC930895FC01E60FF11D8D
S113013090899F5F908B0895860F911DFC01408BE1
S11301400895641307C0FC01E15EFE4F808188615D
S113015080830895461738F4FC01E15EFE4F8081E8
S1130160826080830895641730F4FC01E15EFE4FE1
S1130170808184608083089500000895CF93DF9385
S1130180FC01E60FF11DEC01C15FDE4F688179814E
S11301904089FC01858196810E9460028881998151
S11301A0019799838883DF91CF91089508950895E5
S11301B00895089568B9089561B9089567B90895CF
S11301C0613031F4442311F0109A08951098089581
S11301D0623031F4442311F0119A0895119808956E
S11301E0633031F4442311F0129A0895129808955B
S11301F0643031F4442311F0139A08951398089548
S1130200653031F4442311F0149A08951498089534
S1130210663031F4442311F0159A08951598089521
S1130220673031F4442311F0169A0895169808950E
S1130230683029F4442311F0179A08951798089503
S11302409C019FEF960F983028F4692FC9010E94F2
S1130250E000089582EF860F883028F46D50C901BC
S11302600E94E00008958AEE860F883028F46551D4
S1130270C9010E94E00008958FED860F883020F4B4
S11302806052C9010E94E000089508950F931F93DE
S1130290FC016083418322831487038713821482C1
S11302A01582168217821086118612861F910F916D
S11302B00895EF92FF920F931F93CF93DF93EC0176
S11302C007E010E0E62EF12CC701002E02C0959540
S11302D087950A94E2F7019739F441E068818B85A8
S11302E09C850E94200106C040E068818B859C8526
S11302F00E94200141E069818B859C850E94200138
S113030040E069818B859C850E9420010150110980
S1130310D8F641E06A818B859C850E94200140E0EB
S11303206A818B859C850E942001DF91CF911F916A
S11303300F91FF90EF900895CF92DF92EF92FF928A
S11303400F931F93CF93DF93EC01E72EFF240FE06D
S113035010E06B01DD24C601002E02C0959587953F
S11303600A94E2F7019739F441E068818B859C8512
S11303700E94200106C040E068818B859C850E9414
S1130380200141E069818B859C850E94200140E029
S113039069818B859C850E94200101501109D8F642
S11303A007E010E0C701002E02C0959587950A94D6
S11303B0E2F7019739F441E068818B859C850E94BE
S11303C0200106C040E068818B859C850E94200145
S11303D041E069818B859C850E94200140E0698110
S11303E08B859C850E94200101501109D8F641E0BB
S11303F06A818B859C850E94200140E06A818B85FF
S11304009C850E942001DF91CF911F910F91FF9055
S1130410EF90DF90CF9008950895AF92BF92CF925E
S1130420DF92FF920F931F93CF93DF93EC018B0125
S11304306A01F22E0E9437021D830C83DF82CE8272
S1130440FA86AA82BB821986188641E06F2DC801FC
S11304500E942001DF91CF911F910F91FF90DF90B7
S1130460CF90BF90AF9008950E94460208950895DA
S1130470CF92DF92FC017583648357834683C282E3
S1130480D38211821082DF90CF9008950895EF9265
S1130490FF920F931F93FC01CB01738362835583F7
S11304A044832183E086F18602871387108241E02A
S11304B0622F0E9420011F910F91FF90EF900895E9
S11304C01F93CF93DF93EC01142F8C819D810E94A5
S11304D09C018E819F81009731F4612F8A819B81D9
S11304E00E94DA0003C0612F0E94590140E0698133
S11304F08A819B810E94200189EF90E00197F1F7A6
S113050000C0000041E069818A819B810E94200132
S1130510DF91CF911F91089508957F928F929F92BA
S1130520AF92BF92CF92DF92EF92FF920F931F93FD
S1130530CF93DF93CDB7DEB76C01702EE82CF92C86
S11305400A2D1B2D0E944702F6017486DF91CF917C
S11305501F910F91FF90EF90DF90CF90BF90AF90DD
S11305609F908F907F9008950E948C0208956FEF62
S113057082E593E00E94DC006FEF82E593E00E9445
S1130580DE00E0E0F1E08DE093E09483838385EF87
S113059092E096838583CF010E94BC0069E080E0ED
S11305A091E00E9495004AE065E080E091E00E94BD
S11305B09C0045E069E080E091E00E94A100C0E079
S11305C041E46C2F80E091E00E949C00CF5FCF3F1C
S11305D0B9F74AE060E080E091E00E949C0060E0AE
S11305E080E091E00E94BE0083B1D8CF8F929F92A9
S11305F0AF92BF92CF92DF92EF92FF920F931F932D
S113060082E593E00E94D90002E513E026E247E286
S113061068E285E493E00E94460123E244E265E255
S113062088E393E00E944601A80168E373E081E354
S113063093E00E945F00E12CF12C870121E045E466
S113064053E062E573E085E293E00E944702E12C07
S113065010E2F12E00E010E021E045E453E062E511
S113066073E089E193E00E944702E12C10E4F12E4B
S113067000E010E021E045E453E062E573E08DE042
S113068093E00E944702E12C10E6F12E00E010E016
S113069021E045E453E062E573E081E093E00E94E9
S11306A04702E12C10E8F12E00E010E021E045E4DF
S11306B053E062E573E085EF92E00E944702C12CAB
S11306C00F2EF0EADF2EF02DE12CF12C00E010E0EB
S11306D020E030E045E453E062E573E08DEE92E023
S11306E00E9438020F2EF0ECDF2EF02D20E030E0D7
S11306F045E453E062E573E085EE92E00E9438023F
S11307000F2EF0EEDF2EF02D20E030E045E453E034
S113071062E573E08DED92E00E943802D12CEE2464
S1130720E39420E030E045E453E062E573E085EDD6
S113073092E00E9438026894DD24D5F820E030E08D
S113074045E453E062E573E08DEC92E00E943802E8
S11307506894DD24D6F820E030E045E453E062E517
S113076073E085EC92E00E943802A12C0F2EF0E693
S1130770BF2EF02DCC24C394D12CE12C21E045E4F0
S113078053E062E573E08AEB92E00E940D02689404
S1130790BB24B7F821E045E453E062E573E08FEA57
S11307A092E00E940D020F2EF0EABF2EF02D21E000
S11307B045E453E062E573E084EA92E00E940D02AE
S11307C00F2EF0ECBF2EF02D21E045E453E062E55E
S11307D073E089E992E00E940D020F2EF0EEBF2E25
S11307E0F02D21E045E453E062E573E08EE892E009
S11307F00E940D02812C912CB12CC12C02E021E02D
S113080045E453E062E573E08EE792E00E948D02D6
S11308106894992495F821E045E453E062E573E097
S11308208EE692E00E948D026894992496F821E065
S113083045E453E062E573E08EE592E00E948D02A8
S11308408CE0E5E2F3E0A2E2B2E001900D928A9539
S1130850E1F78CE0E9E1F3E0AEE2B2E001900D9261
S11308608A95E1F78CE0EDE0F3E0AAE3B2E00190D1
S11308700D928A95E1F78CE0E1E0F3E0A6E4B2E0C2
S113088001900D928A95E1F78CE0E5EFF2E0A2E5A4
S1130890B2E001900D928A95E1F780E292E00E9425
S11308A0D70080E091E00E9466001F910F91FF90B5
S11308B0EF90DF90CF90BF90AF909F908F9008956E
S11308C0CF93DF9380E091E00E94D60080E292E033
S11308D00E94D800CEE5D2E02C97CE010E948C0273
S11308E082E0C232D807C1F78EE592E00E94B402DA
S11308F08EE692E00E94B4028EE792E00E94B40277
S11309008EE892E00E94340289E992E00E94340267
S113091084EA92E00E9434028FEA92E00E94340258
S11309208AEB92E00E94340285EC92E00E94460237
S11309308DEC92E00E94460285ED92E00E94460210
S11309408DED92E00E94460285EE92E00E944602FE
S11309508DEE92E00E94460285EF92E00E948C02A6
S113096081E093E00E948C028DE093E00E948C026F
S113097089E193E00E948C0285E293E00E948C025C
S113098081E393E00E94650088E393E00E940C02F7
S113099085E493E00E940C0282E593E00E94450105
S11309A0DF91CF910895EE0FFF1F0590F491E02D94
S11309B0099410E0CFE3D0E004C0FE010E94D30408
S10F09C02196C034D107C9F7F894FFCF8A
S9030000FC
