S00A00006F732E7372656338
S11300000C9440000C945D000C945D000C945D0015
S11300100C945D000C945D000C945D000C945D00E8
S11300200C945D000C945D000C945D000C945D00D8
S11300300C945D000C945D000C945D000C945D00C8
S11300400C945D000C945D000C945D000C945D00B8
S11300500C945D000C945D000C945D000C945D00A8
S11300600C945D000C945D000C945D000C945D0098
S11300700C945D000C945D000C945D00420CAC0D7E
S113008011241FBECFEFD0E1DEBFCDBF23E0A0E03F
S1130090B1E001C01D92AF34B207E1F710E0CFE345
S11300A0D0E004C02197FE010E942B0ECE33D1076D
S11300B0C9F70E94E00B0C94310E0C940000FC0173
S11300C0738362835183408308950895FC01E55F3F
S11300D0FE4F2FEF3FE131832083709610823497D7
S11300E09C01275F3E4F3183208332962F5F3F4F21
S11300F0318320833697235031093183208332960C
S11301002F5F3F4F3183208336972350310931834A
S1130110208332968A5F9E4F918380830895FC01E9
S1130120E60FF11D94859F5F948708950F931F93A5
S1130130CF93DF93EC018B018A819B810E947B0B1F
S113014041E0480FB8018A819B810E94890BDF91AD
S1130150CF911F910F9108950F931F93CF93DF9326
S1130160EC018B018A819B810E947B0B4FEF480F2E
S1130170B8018A819B810E94890BDF91CF911F91E5
S11301800F9108951F93CF93DF93EC01162FBA01BB
S11301908A819B810E947B0BC10FD11D8C87DF91CB
S11301A0CF911F910895860F911DFC0144870895F6
S11301B0FC01E60FF11DDC01AF5EBE4F0D90BC915A
S11301C0A02D6C9170E0762F6627DC01A15FBE4FF5
S11301D00D90BC91A02D2C91622B4485FC01828151
S11301E093810E94890B0895FC01E60FF11DDC0147
S11301F0AB5EBE4F0D90BC91A02D6C9170E0762F3C
S11302006627DC01AD5EBE4F0D90BC91A02D2C91F4
S1130210622B4485FC01828193810E94890B08959D
S1130220FC01E60FF11DDC01A75EBE4F0D90BC91F1
S1130230A02D6C9170E0762F6627DC01A95EBE4F7D
S11302400D90BC91A02D2C91622B4485FC018281E0
S113025093810E94890B0895FC01828193810E94FD
S1130260890B0895FC01868197810E94890B08956A
S1130270462FFC01E15FFE4FA281B3812C9130E057
S1130280322F22270190F081E02D5081B901652B96
S1130290FC01868197810E94890B0895462FFC01F9
S11302A0ED5EFE4FA281B3812C9130E0322F2227E4
S11302B00190F081E02D5081B901652BFC0186810C
S11302C097810E94890B0895462FFC01E95EFE4F39
S11302D0A281B3812C9130E0322F22270190F0814A
S11302E0E02D5081B901652BFC01868197810E9424
S11302F0890B0895CF93DF93DC01A55FBE4FFC010A
S1130300E15FFE4FC281D3819881892F90E0982FBD
S113031088270190F081E02D2081822B8D939C937E
S1130320DF91CF910895FC01E15FFE4FA281B3817B
S11303302C9130E0322F22270190F081E02D408172
S1130340242BFC01ED5EFE4FA281B3813C9301900E
S1130350F081E02D20830895FC01E15FFE4FA2812E
S1130360B3812C9130E0322F22270190F081E02DCF
S11303704081242BFC01E95EFE4FA281B3813C93B2
S11303800190F081E02D20830895CF93DF93DC0169
S1130390A55FBE4FFC01ED5EFE4FC281D381988103
S11303A0892F90E0982F88270190F081E02D2081FB
S11303B0822B8D939C93DF91CF910895FC01ED5E88
S11303C0FE4FA281B3812C9130E0322F222701907D
S11303D0F081E02D4081242BFC01E15FFE4FA281DE
S11303E0B3813C930190F081E02D20830895FC01BA
S11303F0ED5EFE4FA281B3812C9130E0322F222793
S11304000190F081E02D4081242BFC01E95EFE4F38
S1130410A281B3813C930190F081E02D2083089563
S1130420CF93DF93DC01A55FBE4FFC01E95EFE4F75
S1130430C281D3819881892F90E0982F88270190D9
S1130440F081E02D2081822B8D939C93DF91CF91BD
S11304500895FC01E95EFE4FA281B3812C9130E046
S1130460322F22270190F081E02D4081242BFC01C2
S1130470E15FFE4FA281B3813C930190F081E02DB6
S113048020830895FC01E95EFE4FA281B3812C9183
S113049030E0322F22270190F081E02D4081242B7F
S11304A0FC01ED5EFE4FA281B3813C930190F0818B
S11304B0E02D20830895FC01E55FFE4F208131810A
S11304C03496A281B3813C930190F081E02D208386
S11304D00895FC01E55FFE4F208131813896A281A9
S11304E0B3813C930190F081E02D20830895FC01B9
S11304F0E55FFE4F208131813C96A281B3813C931C
S11305000190F081E02D20830895641307C0FC015D
S1130510E55EFE4F8081886180830895461730F43C
S1130520FC01E55EFE4F208122602083641730F4D5
S1130530FC01E55EFE4F808184608083089564132E
S113054007C0FC01E55EFE4F8081886180830895C9
S1130550461730F4FC01E55EFE4F208122602083C3
S1130560641730F4FC01E55EFE4F80818460808373
S11305700895FC01E55EFE4F208123FF03C03E97F2
S1130580718360830895FC01E55EFE4F208123FFA3
S113059007C03E9780819181680F791F71836083C2
S11305A00895FC01E55EFE4F208123FF07C03E97BE
S11305B080819181861B970B918380830895FC0130
S11305C0E55EFE4F208130E0A9015595479555958C
S11305D047955595479540FD10C0A90155954795F8
S11305E040FD06C0359527953595279520FF05C014
S11305F0FC01E35FFE4F718360830895FC01E55EB7
S1130600FE4F208130E0A9015595479555954795B2
S11306105595479540FD14C0A9015595479540FD52
S113062006C0359527953595279520FF09C0FC010F
S1130630E35FFE4F80819181680F791F718360832E
S11306400895FC01E55EFE4F208130E0A901559537
S11306504795559547955595479540FD14C0A90173
S11306605595479540FD06C03595279535952795B1
S113067020FF09C0FC01E35FFE4F80819181861B4E
S1130680970B918380830895FC01E55EFE4F2081E2
S113069030E0A9015595479555954795559547954A
S11306A035952795242B352B20FF03C03E97718366
S11306B060830895FC01E55EFE4F208130E0A901CE
S11306C0559547955595479555954795359527954E
S11306D0242B352B20FF07C03E9780819181680F22
S11306E0791F718360830895FC01E55EFE4F2081CC
S11306F030E0A901559547955595479555954795EA
S113070035952795242B352B20FF07C03E978081F4
S11307109181861B970B918380830895FC01E55E8C
S1130720FE4F208130E0A901559547955595479591
S1130730559547953595279535952795242B352B34
S113074020FF03C03E97718360830895FC01E55E3A
S1130750FE4F208130E0A901559547955595479561
S1130760559547953595279535952795242B352B04
S113077020FF07C03E9780819181680F791F7183A4
S113078060830895FC01E55EFE4F208130E0A901FD
S1130790559547955595479555954795359527957D
S11307A035952795242B352B20FF07C03E97808154
S11307B09181861B970B918380830895FC01E55EEC
S11307C0FE4F208130E0A9015595479555954795F1
S11307D05595479540FD07C03595279520FF03C0E3
S11307E03E97718360830895FC01E55EFE4F20818E
S11307F030E0A901559547955595479555954795E9
S113080040FD0BC03595279520FF07C03E9780819A
S11308109181680F791F718360830895FC01E55EFF
S1130820FE4F208130E0A901559547955595479590
S11308305595479540FD0BC03595279520FF07C07A
S11308403E9780819181861B970B918380830895C5
S1130850FC01E55EFE4F208130E0A90155954795E6
S1130860559547955595479540FD09C0359527956C
S11308703595279520FF03C03E97718360830895C3
S1130880FC01E55EFE4F208130E0A90155954795B6
S1130890559547955595479540FD0DC03595279538
S11308A03595279520FF07C03E9780819181680F79
S11308B0791F718360830895FC01E55EFE4F2081FA
S11308C030E0A90155954795559547955595479518
S11308D040FD0DC0359527953595279520FF07C018
S11308E03E9780819181861B970B91838083089525
S11308F0CF93DF93FC01E60FF11DEC01C55FDE4FE2
S1130900688179814485FC01848195810E94890BE9
S113091088819981019799838883DF91CF91089584
S1130920FC01E60FF11D9485929594870895FC01CE
S1130930848581110DC0858590E0E9EFF0E0319761
S1130940F1F700C00000019718161906B4F31EC091
S1130950813071F48585882319F09685911103C03F
S113096081E0878713C0899F802D112487870EC05B
S1130970823061F46685611104C0178681E0808B42
S113098005C085850E941F0E8787108A80E0089520
S11309908C01FC01E35FFE4F11821082EF016C01B8
S11309A085EEC81A8EEFD80A68817981F8018081B2
S11309B091810E947B0B811104C0C8010E9497049D
S11309C004C5813091F4688179816F5F7F4F7983A9
S11309D06883F801808191810E947B0BF801E80F04
S11309E0F11D84858F5F8487F0C4823009F56881A6
S11309F079816F5F7F4FF801808191810E947B0B29
S1130A00F82E688179816E5F7F4FF8018081918132
S1130A100E947B0B6F2D70E0762F6627682BC80130
S1130A200E94960088819981029699838883CDC417
S1130A308330A9F4688179816F5F7F4FF8018081E9
S1130A4091810E947B0BF801E80FF11D8485815090
S1130A50848788819981019699838883B6C4843078
S1130A6009F5688179816F5F7F4FF80180819181F9
S1130A700E947B0BF82E688179816E5F7F4FF801AD
S1130A80808191810E947B0B6F2D70E0762F662709
S1130A90682BC8010E94AC008881998102969983D1
S1130AA0888393C4853009F5688179816F5F7F4FAE
S1130AB0F801808191810E947B0BF82E68817981F5
S1130AC06E5F7F4FF801808191810E947B0BF8015A
S1130AD0E80FF11D8485F801EF0DF11D84878881ED
S1130AE0998102969983888370C4863061F5688100
S1130AF079816F5F7F4FF801808191810E947B0B28
S1130B00E82E688179816E5F7F4FF8018081918141
S1130B100E947B0BF82E688179816D5F7F4FF8010D
S1130B20808191810E947B0B4F2D50E0542F4427EC
S1130B30482B6E2DC8010E94C200888199810496B9
S1130B409983888342C4873059F468816F5FC801F0
S1130B500E94D8008881998101969983888335C43D
S1130B60883059F468816F5FC8010E94F40088815D
S1130B70998101969983888328C4893059F46881BE
S1130B806F5FC8010E941001888199810196998341
S1130B9088831BC48A3051F5688179816F5F7F4FE8
S1130BA0F801808191810E947B0BE82E6881798114
S1130BB06E5F7F4FF801808191810E947B0BF82E3C
S1130BC0688179816D5F7F4FF801808191810E94F6
S1130BD07B0B6F2D70E07E29482FC8010E942C01E9
S1130BE088819981039699838883EFC38B3051F56B
S1130BF0688179816F5F7F4FF801808191810E94C4
S1130C007B0BE82E688179816E5F7F4FF8018081CC
S1130C1091810E947B0BF82E688179816D5F7F4FF3
S1130C20F801808191810E947B0B6F2D70E07E29F9
S1130C30482FC8010E9432018881998103969983C3
S1130C408883C3C38C3059F468816F5FC8010E94E4
S1130C50380188819981019699838883B6C38D3040
S1130C6059F468816F5FC8010E944E01888199819F
S1130C70019699838883A9C38E3059F468816F5F84
S1130C80C8010E94640188819981019699838883AF
S1130C909CC38F3021F4C8010E947A0196C380312D
S1130CA021F4C8010E94930190C3813121F4C80149
S1130CB00E94AC018AC3823121F4C8010E94C5019B
S1130CC084C3833121F4C8010E94DE017EC38431D0
S1130CD021F4C8010E94F70178C3853121F4C801C9
S1130CE00E94100272C3863121F4C8010E942902B5
S1130CF06CC3873121F4C8010E94420266C3883163
S1130D0021F4C8010E945B0260C3893121F4C80147
S1130D100E9469025AC38A3121F4C8010E947702F1
S1130D2054C38B31F1F4688179816F5F7F4FF8018F
S1130D30808191810E947B0BF82E688179816E5F9E
S1130D407F4FF801808191810E947B0B482F6F2D8A
S1130D50C8010E94850288819981029699838883BB
S1130D6034C38C31F1F4688179816F5F7F4FF8016E
S1130D70808191810E947B0BF82E688179816E5F5E
S1130D807F4FF801808191810E947B0B482F6F2D4A
S1130D90C8010E949F028881998102969983888361
S1130DA014C38D3179F4688179816F5F7F4FF801C5
S1130DB0808191810E947B0B88819981019699831E
S1130DC0888303C38E3179F4688179816F5F7F4FA3
S1130DD0F801808191810E947B0B88819981019621
S1130DE099838883F2C28F3111F5688179816F5FAD
S1130DF07F4FF801808191810E947B0BF82E6881DE
S1130E0079816E5F7F4FF801808191810E947B0B15
S1130E102F2D30E0322F2227B901682BC8010E9400
S1130E20B90288819981029699838883CEC28032DF
S1130E3031F5688179816F5F7F4FF80180819181FD
S1130E400E947B0BF82E688179816E5F7F4FF801D9
S1130E50808191810E947B0B2F2D30E0322F22273D
S1130E60282B88819981B901680F791FC8010E94D4
S1130E70C30288819981029699838883A6C28132AC
S1130E8029F5688179816F5F7F4FF80180819181B5
S1130E900E947B0BF82E688179816E5F7F4FF80189
S1130EA0808191810E947B0B2F2D30E0322F2227ED
S1130EB0282B68817981621B730BC8010E94D102BF
S1130EC0888199810296998388837FC2823211F541
S1130ED0688179816F5F7F4FF801808191810E94E1
S1130EE07B0BF82E688179816E5F7F4FF8018081DA
S1130EF091810E947B0B2F2D30E0322F2227B901E4
S1130F00682BC8010E94DF02888199810296998327
S1130F1088835BC2833231F5688179816F5F7F4F4B
S1130F20F801808191810E947B0BF82E6881798180
S1130F306E5F7F4FF801808191810E947B0B2F2D82
S1130F4030E0322F2227282B88819981B901680F3C
S1130F50791FC8010E94FE028881998102969983B3
S1130F60888333C2843229F5688179816F5F7F4F2A
S1130F70F801808191810E947B0BF82E6881798130
S1130F806E5F7F4FF801808191810E947B0B2F2D32
S1130F9030E0322F2227282B68817981621B730B62
S1130FA0C8010E94210388819981029699838883CC
S1130FB00CC2853211F5688179816F5F7F4FF8012A
S1130FC0808191810E947B0BF82E688179816E5F0C
S1130FD07F4FF801808191810E947B0B2F2D30E09F
S1130FE0322F2227B901682BC8010E94440388814B
S1130FF09981029699838883E8C1863231F56881A4
S113100079816F5F7F4FF801808191810E947B0B12
S1131010F82E688179816E5F7F4FF801808191811C
S11310200E947B0B2F2D30E0322F2227282B888122
S11310309981B901680F791FC8010E945A038881F8
S11310409981029699838883C0C1873229F5688182
S113105079816F5F7F4FF801808191810E947B0BC2
S1131060F82E688179816E5F7F4FF80180819181CC
S11310700E947B0B2F2D30E0322F2227282B6881F2
S11310807981621B730BC8010E9474038881998162
S113109002969983888399C1883211F56881798190
S11310A06F5F7F4FF801808191810E947B0BF82E46
S11310B0688179816E5F7F4FF801808191810E9400
S11310C07B0B2F2D30E0322F2227B901682BC8016A
S11310D00E948E038881998102969983888375C1C1
S11310E0893231F5688179816F5F7F4FF8018081A2
S11310F091810E947B0BF82E688179816E5F7F4F0E
S1131100F801808191810E947B0B2F2D30E0322FDA
S11311102227282B88819981B901680F791FC8017A
S11311200E94A603888199810296998388834DC180
S11311308A3229F5688179816F5F7F4FF801808158
S113114091810E947B0BF82E688179816E5F7F4FBD
S1131150F801808191810E947B0B2F2D30E0322F8A
S11311602227282B68817981621B730BC8010E9496
S1131170C2038881998102969983888326C18B3220
S113118011F5688179816F5F7F4FF80180819181CA
S11311900E947B0BF82E688179816E5F7F4FF80186
S11311A0808191810E947B0B2F2D30E0322F2227EA
S11311B0B901682BC8010E94DE03888199810296D7
S11311C09983888302C18C3231F5688179816F5F9C
S11311D07F4FF801808191810E947B0BF82E6881FA
S11311E079816E5F7F4FF801808191810E947B0B32
S11311F02F2D30E0322F2227282B88819981B901A5
S1131200680F791FC8010E94F403888199810296AE
S113121099838883DAC08D3229F5688179816F5F7B
S11312207F4FF801808191810E947B0BF82E6881A9
S113123079816E5F7F4FF801808191810E947B0BE1
S11312402F2D30E0322F2227282B68817981621BD1
S1131250730BC8010E940E048881998102969983B8
S11312608883B3C08E3211F5688179816F5F7F4FB7
S1131270F801808191810E947B0BF82E688179812D
S11312806E5F7F4FF801808191810E947B0B2F2D2F
S113129030E0322F2227B901682BC8010E942804AC
S11312A0888199810296998388838FC08F3231F522
S11312B0688179816F5F7F4FF801808191810E94FD
S11312C07B0BF82E688179816E5F7F4FF8018081F6
S11312D091810E947B0B2F2D30E0322F2227282B67
S11312E088819981B901680F791FC8010E9440045F
S11312F08881998102969983888367C0803329F510
S1131300688179816F5F7F4FF801808191810E94AC
S11313107B0BF82E688179816E5F7F4FF8018081A5
S113132091810E947B0B2F2D30E0322F2227282B16
S113133068817981621B730BC8010E945C048881F7
S1131340998102969983888340C0813399F4688196
S113135079816F5F7F4FF801808191810E947B0BBF
S1131360F801E80FF11D148688819981019699830B
S113137088832BC0823389F4688179816F5F7F4FC2
S1131380F801808191810E947B0BF6011082888193
S1131390998101969983888318C0833399F468816D
S11313A079816F5F7F4FF801808191810E947B0B6F
S11313B0682FC8010E9490048881998101969983BD
S11313C0888303C08F3F09F40000888199810196C6
S11313D099838883E9CA089508950895089589B181
S11313E0089568B9089561B9089564B9089567B90D
S11313F008956AB90895613031F4442311F0109AC4
S1131400089510980895623031F4442311F0119A2C
S1131410089511980895633031F4442311F0129A19
S1131420089512980895643031F4442311F0139A06
S1131430089513980895653031F4442311F0149AF3
S1131440089514980895663031F4442311F0159AE0
S1131450089515980895673031F4442311F0169ACD
S1131460089516980895683029F4442311F0179AC2
S11314700895179808959C019FEF960F983028F4CB
S1131480692FC9010E94FB09089582EF860F8830F5
S113149028F46D50C9010E94FB0908958AEE860F55
S11314A0883028F46551C9010E94FB0908958FED25
S11314B0860F883020F46052C9010E94FB09089508
S11314C008950F931F93FC01608341832283148743
S11314D0038713821482158216821782108611865E
S11314E012861F910F910895EF92FF920F931F930D
S11314F0CF93DF93EC0107E010E0E62EF12CC70157
S1131500002E02C0959587950A94E2F7019739F465
S113151041E068818B859C850E943B0A06C040E0BF
S113152068818B859C850E943B0A41E069818B859B
S11315309C850E943B0A40E069818B859C850E94C2
S11315403B0A01501109D8F641E06A818B859C85DC
S11315500E943B0A40E06A818B859C850E943B0A7D
S1131560DF91CF911F910F91FF90EF900895CF924B
S1131570DF92EF92FF920F931F93CF93DF93EC01CF
S1131580E72EFF240FE010E06B01DD24C601002EDE
S113159002C0959587950A94E2F7019739F441E0E2
S11315A068818B859C850E943B0A06C040E0688167
S11315B08B859C850E943B0A41E069818B859C85D3
S11315C00E943B0A40E069818B859C850E943B0A0E
S11315D001501109D8F607E010E0C701002E02C03F
S11315E0959587950A94E2F7019739F441E068816B
S11315F08B859C850E943B0A06C040E068818B85F0
S11316009C850E943B0A41E069818B859C850E94F0
S11316103B0A40E069818B859C850E943B0A01500E
S11316201109D8F641E06A818B859C850E943B0AAA
S113163040E06A818B859C850E943B0ADF91CF91B3
S11316401F910F91FF90EF90DF90CF900895089530
S1131650AF92BF92CF92DF92FF920F931F93CF93DB
S1131660DF93EC018B016A01F22E0E94520B1D8361
S11316700C83DF82CE82FA86AA82BB821986188600
S113168041E06F2DC8010E943B0ADF91CF911F9169
S11316900F91FF90DF90CF90BF90AF9008950E947C
S11316A0610B08950895CF92DF92FC0175836483E2
S11316B057834683C282D38211821082DF90CF90F7
S11316C008950895EF92FF920F931F93FC01CB01AD
S11316D073836283558344832183E086F186028782
S11316E01387108241E0622F0E943B0A1F910F91E1
S11316F0FF90EF900895CF93DF93EC018C819D814F
S11317000E94B70A8A819B810E94EF09DF91CF91E1
S113171008951F93CF93DF93EC01142F8C819D8147
S11317200E94B70A8E819F81009731F4612F8A81CC
S11317309B810E94F10903C0612F0E94740A40E05A
S113174069818A819B810E943B0A89EF90E001971D
S1131750F1F700C0000041E069818A819B810E9409
S11317603B0ADF91CF911F91089508957F928F9244
S11317709F92AF92BF92CF92DF92EF92FF920F931C
S11317801F93CF93DF93CDB7DEB76C01702EE82C97
S1131790F92C0A2D1B2D0E94620BF6017486DF9131
S11317A0CF911F910F91FF90EF90DF90CF90BF905A
S11317B0AF909F908F907F9008950E94B50B0895ED
S11317C06FEF8EE493E00E94F3096FEF8EE493E0F1
S11317D00E94F70960E08EE493E00E94F50960E05E
S11317E08EE493E00E94F909E0E0F1E089E093E0FF
S11317F09383828381EF92E0958384838AE792E0E6
S113180097838683918780878AE592E0938782878E
S113181069E080E091E00E948F0069E080E091E05F
S11318200E9490044AE065E080E091E00E94D300C9
S113183045E069E080E091E00E948502C0E041E477
S11318406C2F80E091E00E94D300CF5FCF3FB9F7C7
S11318504AE060E080E091E00E94D30060E080E034
S113186091E00E94780480E091E00E94C50180E04C
S113187091E00E947A011A9BCBCF80E091E00E9414
S1131880C804C6CF8F929F92AF92BF92CF92DF923D
S1131890EF92FF920F931F938EE493E00E94EE0960
S11318A00EE413E026E247E268E281E493E00E945A
S11318B0610A23E244E265E284E393E00E94610A60
S11318C0A80164E373E08DE293E00E945F00E12CE1
S11318D0F12C870121E041E453E06EE473E081E2FE
S11318E093E00E94620BE12C10E2F12E00E010E084
S11318F021E041E453E06EE473E085E193E00E946B
S1131900620BE12C10E4F12E00E010E021E041E450
S113191053E06EE473E089E093E00E94620BE12CF3
S113192010E6F12E00E010E021E041E453E06EE423
S113193073E08DEF92E00E94620BE12C10E8F12E2F
S113194000E010E021E041E453E06EE473E081EF55
S113195092E00E94620BC12C0F2EF0EADF2EF02DD4
S1131960E12CF12C00E010E020E030E041E453E011
S11319706EE473E089EE92E00E94530B0F2EF0ECBC
S1131980DF2EF02D20E030E041E453E06EE473E01C
S113199081EE92E00E94530B0F2EF0EEDF2EF02D1D
S11319A020E030E041E453E06EE473E089ED92E03E
S11319B00E94530BD12CEE24E39420E030E041E468
S11319C053E06EE473E081ED92E00E94530B68945F
S11319D0DD24D5F820E030E041E453E06EE473E028
S11319E089EC92E00E94530B6894DD24D6F820E041
S11319F030E041E453E06EE473E081EC92E00E9455
S1131A00530BA12C0F2EF0E6BF2EF02DCC24C39443
S1131A10D12CE12C21E041E453E06EE473E086EB49
S1131A2092E00E94280B6894BB24B7F821E041E4BB
S1131A3053E06EE473E08BEA92E00E94280B0F2ED1
S1131A40F0EABF2EF02D21E041E453E06EE473E0B0
S1131A5080EA92E00E94280B0F2EF0ECBF2EF02DAE
S1131A6021E041E453E06EE473E085E992E00E94F2
S1131A70280B0F2EF0EEBF2EF02D21E041E453E0B1
S1131A806EE473E08AE892E00E94280B812C912C8A
S1131A90B12CC12C02E021E041E453E06EE473E098
S1131AA08AE792E00E94B60B6894992495F821E0A5
S1131AB041E453E06EE473E08AE692E00E94B60BE0
S1131AC06894992496F821E041E453E06EE473E0CD
S1131AD08AE592E00E94B60B8CE0E1E2F3E0AEE12D
S1131AE0B2E001900D928A95E1F78CE0E5E1F3E034
S1131AF0AAE2B2E001900D928A95E1F78CE0E9E068
S1131B00F3E0A6E3B2E001900D928A95E1F78CE050
S1131B10EDEFF2E0A2E4B2E001900D928A95E1F7D4
S1131B208CE0E1EFF2E0AEE4B2E001900D928A9530
S1131B30E1F78CE192E00E94EC0980E091E00E94E0
S1131B4066001F910F91FF90EF90DF90CF90BF90B0
S1131B50AF909F908F900895CF93DF9380E091E0B2
S1131B600E94EB098CE192E00E94ED09CAE5D2E003
S1131B702C97CE010E94B50B82E0CE31D807C1F775
S1131B808AE592E00E94DD0B8AE692E00E94DD0B7A
S1131B908AE792E00E94DD0B8AE892E00E944F0BF4
S1131BA085E992E00E944F0B80EA92E00E944F0B7D
S1131BB08BEA92E00E944F0B86EB92E00E944F0B5F
S1131BC081EC92E00E94610B89EC92E00E94610B2F
S1131BD081ED92E00E94610B89ED92E00E94610B1D
S1131BE081EE92E00E94610B89EE92E00E94610B0B
S1131BF081EF92E00E94B50B8DEF92E00E94B50B4D
S1131C0089E093E00E94B50B85E193E00E94B50B57
S1131C1081E293E00E94B50B8DE293E00E9465009F
S1131C2084E393E00E94270B81E493E00E94270B56
S1131C308EE493E00E94600ADF91CF910895991B8E
S1131C4079E004C0991F961708F0961B881F7A95AF
S1131C50C9F780950895EE0FFF1F0590F491E02DCC
S1131C60099410E0CFE3D0E004C0FE010E942B0EE3
S10F1C702196C034D107C9F7F894FFCFC7
S9030000FC
