S00A00006F732E7372656338
S11300000C946F000C9497000C9497000C94970038
S11300100C9497000C9497000C9497000C94970000
S11300200C9497000C9497000C9497000C949700F0
S11300300C9497000C9497000C9497000C949700E0
S11300400C9497000C9497000C9497000C949700D0
S11300500C9497000C9497000C9497000C949700C0
S11300600C9497000C9497000C9497000C949700B0
S11300700C9497000C9497000C949700A501BE0172
S1130080D101E401F60109021C022F026364696EC6
S11300906F70737578585B002E2F0072756E006355
S11300A06172747269646765006C6F616400636493
S11300B0006C6F61642063617274726964676520A7
S11300C02564003B01470153015F016B0177018304
S11300D0018F019B01A701B30100B129BE2911249D
S11300E01FBECFEFD0E1DEBFCDBF11E0A0E0B1E095
S11300F0E4ECFFE502C005900D92A831B107D9F7F1
S113010023E0A8E1B1E001C01D92AD34B207E1F7EC
S113011010E0CEE6D0E004C02197FE010E94F22A4E
S1130120CD36D107C9F70E9496260C94D52F0C948E
S11301300000EF920F93CF93DF93CDB7DEB72997EB
S11301400FB6F894DEBF0FBECDBF9A8389837C833C
S11301506B835E834D832F830887E98689819A8127
S11301602B813C81FC013383228389819A812D81F7
S11301703E81FC013183208389819A812F81FC0196
S1130180258389819A812885FC01268389819A8126
S11301902985FC012783000029960FB6F894DEBF59
S11301A00FBECDBFDF91CF910F91EF900895CF9304
S11301B0DF9300D0CDB7DEB79A83898300000F9018
S11301C00F90DF91CF910895CF93DF9300D0CDB7F7
S11301D0DEB79A83898389819A81FC011182108216
S11301E089819A81FC011382128200000F900F9082
S11301F0DF91CF910895CF93DF9300D000D000D04A
S1130200CDB7DEB79A8389837C836B835E834D830A
S113021089819A812B813C81FC01318320838981EE
S11302209A812D813E81FC0133832283000026962E
S11302300FB6F894DEBF0FBECDBFDF91CF91089506
S1130240CF93DF9300D0CDB7DEB79A8389838981BA
S11302509A81FC0182819381FC018081882F90E046
S1130260382F222789819A81FC0180819181FC01A8
S11302708081882F90E0822B932B0F900F90DF9139
S1130280CF910895CF93DF9300D000D0CDB7DEB7E0
S11302909A8389837C836B8389819A81FC0182811F
S11302A093812B813C81232F3327FC012083898177
S11302B09A81FC01808191812B81FC0120830000C3
S11302C00F900F900F900F90DF91CF910895CF93DF
S11302D0DF9300D01F92CDB7DEB79A8389836B83F7
S11302E089819A81FC018081882F90E02B81222FC3
S11302F030E002C0959587952A95E2F781700F90BA
S11303000F900F90DF91CF910895CF93DF9300D09A
S113031000D0CDB7DEB79A8389836B834C838B81FE
S1130320882F90E0092E000CAA0BBB0B40E050E094
S113033027E030E0841B950B2817390708F4A2C086
S1130340825C9F4FFC010C94F22A8C81882359F023
S113035089819A81FC018081282F216089819A8179
S1130360FC0120838FC089819A81FC018081282F20
S11303702E7F89819A81FC01208384C08C8188230B
S113038059F089819A81FC018081282F226089811A
S11303909A81FC01208376C089819A81FC011082B4
S11303A071C08C81882359F089819A81FC018081F4
S11303B0282F246089819A81FC01208363C089816C
S11303C09A81FC0110825EC08C81882359F0898156
S11303D09A81FC018081282F286089819A81FC01FF
S11303E0208304C089819A81FC0110828C81882336
S11303F059F089819A81FC018081282F20618981AB
S11304009A81FC0120833EC089819A81FC0110827B
S113041039C08C81882359F089819A81FC018081BB
S1130420282F206289819A81FC0120832BC0898135
S11304309A81FC01108226C08C81882359F089811D
S11304409A81FC018081282F206489819A81FC0192
S1130450208318C089819A81FC01108213C08C8189
S1130460882359F089819A81FC018081282F206892
S113047089819A81FC01208304C089819A81FC01CD
S11304801082000000000F900F900F900F90DF91EA
S1130490CF910895CF93DF9300D0CDB7DEB79A8381
S11304A0898389819A81FC01108200000F900F904A
S11304B0DF91CF910895CF93DF9300D0CDB7DEB70E
S11304C09A83898389819A81FC01108200000F90AC
S11304D00F90DF91CF910895CF93DF93CDB7DEB71F
S11304E02E970FB6F894DEBF0FBECDBF9E878D87C3
S11304F08D859E8581509F4F0E94E4008D859E8549
S11305008D5F9E4F0E94E4008D859E85895F9E4F7E
S11305100E94E4008D859E859C0121503F4F8D856E
S11305209E85855E9E4FFC01318320838D859E854B
S11305309C012D5F3E4F8D859E85835E9E4FFC0101
S1130540318320838D859E859C01295F3E4F8D8557
S11305509E85815E9E4FFC01318320838D859E851F
S11305608F5D9E4F0E945B028D859E85895E9E4FA6
S11305702FEF3FE1FC01318320838D859E85875ECB
S11305809E4FFC01118210828D859E85AC014150E5
S11305905F4F8D859E859C0122503F4FCE01099669
S11305A0B9010E94FB008D859E859C01295F3E4F09
S11305B089859A85AB85BC85F90180839183A28363
S11305C0B3838D859E85AC0143505F4F8D859E8599
S11305D09C0124503F4FCE010596B9010E94FB00B7
S11305E08D859E859C012D5F3E4F8D819E81AF81BF
S11305F0B885F90180839183A283B3838D859E8519
S11306009C0125503F4F8D859E8586509F4FA901A3
S1130610BC01CE0101960E94FB008D859E859C0144
S113062021503F4F89819A81AB81BC81F90180833C
S11306309183A283B38300002E960FB6F894DEBF95
S11306400FBECDBFDF91CF910895CF93DF9300D03C
S11306501F92CDB7DEB79A8389836B838B81882FF2
S113066090E02B81222F30E049815A81240F351FDD
S1130670F901208141E0420F29813A81820F931FC1
S1130680FC01408300000F900F900F90DF91CF91F9
S11306900895CF93DF9300D000D01F92CDB7DEB77B
S11306A09B838A837D836C832C813D818A819B819A
S11306B0835F9E4FFC0180819181B9010E94F424E3
S11306C0898389818F5F89838A819B81835F9E4F20
S11306D0FC01808191812C813D814981B9010E9475
S11306E0162500000F900F900F900F900F90DF9140
S11306F0CF910895CF93DF9300D01F92CDB7DEB78B
S11307009A8389836B838B81882F90E02B81222F9E
S113071030E049815A81240F351FF90120814FEFC0
S1130720420F29813A81820F931FFC01408300000C
S11307300F900F900F90DF91CF910895CF93DF9397
S113074000D000D01F92CDB7DEB79B838A837D8310
S11307506C832C813D818A819B81835F9E4FFC0148
S113076080819181B9010E94F42489838981815017
S113077089838A819B81835F9E4FFC018081918163
S11307802C813D814981B9010E94162500000F90FA
S11307900F900F900F900F90DF91CF9108950F93CA
S11307A01F93CF93DF93CDB7DEB7C455D1090FB6EE
S11307B0F894DEBF0FBECDBF9E012D5A3F4FF90105
S11307C09183808319828981882311F00C94D11537
S11307D0CE018D5A9F4FFC0180819181875E9E4F8F
S11307E0FC01808191819C01CE018D5A9F4FFC01B7
S11307F080819181855F9E4FFC0180819181B90147
S11308000E94F4248A838A81882321F58E010E5A5A
S11308101F4FCE018D5A9F4FFC01808191810E9410
S11308207F1FF8018083CE018E5A9F4FFC01808187
S1130830823619F482E60C94DD15CE018E5A9F4F50
S1130840FC018081853611F00C94B61581E0898312
S11308500C94B6158A81813009F03FC0CE018D5ABF
S11308609F4FFC0180819181875E9E4FFC018081B6
S113087091819C012F5F3F4FCE018D5A9F4FFC0108
S113088080819181875E9E4FFC0131832083CE015C
S11308908D5A9F4FFC0180819181875E9E4FFC01A0
S11308A0808191819C01CE018D5A9F4FFC018081F2
S11308B09181855F9E4FFC0180819181B9010E94E5
S11308C0F4248B83CE018D5A9F4FFC01808191814A
S11308D06B810E9425030C94B6158A81823009F03D
S11308E066C0CE018D5A9F4FFC0180819181875E45
S11308F09E4FFC018081918101969C01CE018D5A0D
S11309009F4FFC0180819181855F9E4FFC01808116
S11309109181B9010E94F424882F90E0182F0027B8
S1130920CE018D5A9F4FFC0180819181875E9E4F3D
S1130930FC018081918102969C01CE018D5A9F4FCA
S1130940FC0180819181855F9E4FFC0180819181B2
S1130950B9010E94F424882F90E0802B912B9D8371
S11309608C832C813D81CE018D5A9F4FFC01808167
S11309709181B9010E944903CE018D5A9F4FFC0118
S113098080819181875E9E4FFC01808191819C01D1
S11309902E5F3F4FCE018D5A9F4FFC018081918184
S11309A0875E9E4FFC01318320830C94B6158A81A7
S11309B0833009F040C0CE018D5A9F4FFC018081E5
S11309C09181875E9E4FFC018081918101969C01FB
S11309D0CE018D5A9F4FFC0180819181855F9E4F8E
S11309E0FC0180819181B9010E94F4248E83CE019F
S11309F08D5A9F4FFC01808191816E810E947A0300
S1130A00CE018D5A9F4FFC0180819181875E9E4F5C
S1130A10FC01808191819C012F5F3F4FCE018D5A53
S1130A209F4FFC0180819181875E9E4FFC01318341
S1130A3020830C94B6158A81843009F066C0CE01F7
S1130A408D5A9F4FFC0180819181875E9E4FFC01EE
S1130A508081918101969C01CE018D5A9F4FFC01AA
S1130A6080819181855F9E4FFC0180819181B901D4
S1130A700E94F424882F90E0182F0027CE018D5A6D
S1130A809F4FFC0180819181875E9E4FFC01808194
S1130A90918102969C01CE018D5A9F4FFC01808169
S1130AA09181855F9E4FFC0180819181B9010E94F3
S1130AB0F424882F90E0802B912B98878F832F81AB
S1130AC03885CE018D5A9F4FFC0180819181B901F7
S1130AD00E949E03CE018D5A9F4FFC01808191811B
S1130AE0875E9E4FFC01808191819C012E5F3F4F68
S1130AF0CE018D5A9F4FFC0180819181875E9E4F6C
S1130B00FC01318320830C94B6158A81853009F069
S1130B105DC0CE018D5A9F4FFC0180819181875E1B
S1130B209E4FFC018081918101969C01CE018D5ADA
S1130B309F4FFC0180819181855F9E4FFC018081E4
S1130B409181B9010E94F4248987CE018D5A9F4F67
S1130B50FC0180819181875E9E4FFC01808191819F
S1130B6002969C01CE018D5A9F4FFC018081918198
S1130B70855F9E4FFC0180819181B9010E94F4241C
S1130B808A87CE018D5A9F4FFC01808191814A85CD
S1130B9069850E94E915CE018D5A9F4FFC01808121
S1130BA09181875E9E4FFC01808191819C012E5F23
S1130BB03F4FCE018D5A9F4FFC0180819181875E0A
S1130BC09E4FFC01318320830C94B6158A818630B4
S1130BD009F083C0CE018D5A9F4FFC018081918121
S1130BE0875E9E4FFC018081918101969C01CE011C
S1130BF08D5A9F4FFC0180819181855F9E4FFC013E
S1130C0080819181B9010E94F4248B87CE018D5A91
S1130C109F4FFC0180819181875E9E4FFC01808102
S1130C20918102969C01CE018D5A9F4FFC018081D7
S1130C309181855F9E4FFC0180819181B9010E9461
S1130C40F424882F90E0182F0027CE018D5A9F4F4F
S1130C50FC0180819181875E9E4FFC01808191819E
S1130C6003969C01CE018D5A9F4FFC018081918196
S1130C70855F9E4FFC0180819181B9010E94F4241B
S1130C80882F90E0802B912B9D878C872C853D8528
S1130C90CE018D5A9F4FFC0180819181A9016B8502
S1130CA00E940D16CE018D5A9F4FFC0180819181C7
S1130CB0875E9E4FFC01808191819C012D5F3F4F97
S1130CC0CE018D5A9F4FFC0180819181875E9E4F9A
S1130CD0FC01318320830C94B6158A81873009F096
S1130CE05DC0CE018D5A9F4FFC0180819181875E4A
S1130CF09E4FFC018081918101969C01CE018D5A09
S1130D009F4FFC0180819181855F9E4FFC01808112
S1130D109181B9010E94F4248E87CE018D5A9F4F90
S1130D20FC0180819181875E9E4FFC0180819181CD
S1130D3002969C01CE018D5A9F4FFC0180819181C6
S1130D40855F9E4FFC0180819181B9010E94F4244A
S1130D508F87CE018D5A9F4FFC01808191814F85F1
S1130D606E850E943C16CE018D5A9F4FFC018081F6
S1130D709181875E9E4FFC01808191819C012E5F51
S1130D803F4FCE018D5A9F4FFC0180819181875E38
S1130D909E4FFC01318320830C94B6158A818830E0
S1130DA009F040C0CE018D5A9F4FFC018081918192
S1130DB0875E9E4FFC018081918101969C01CE014A
S1130DC08D5A9F4FFC0180819181855F9E4FFC016C
S1130DD080819181B9010E94F424888BCE018D5ABF
S1130DE09F4FFC018081918168890E94AF16CE01DA
S1130DF08D5A9F4FFC0180819181875E9E4FFC013B
S1130E00808191819C012F5F3F4FCE018D5A9F4F6E
S1130E10FC0180819181875E9E4FFC013183208398
S1130E200C94B6158A81893009F040C0CE018D5AE0
S1130E309F4FFC0180819181875E9E4FFC018081E0
S1130E40918101969C01CE018D5A9F4FFC018081B6
S1130E509181855F9E4FFC0180819181B9010E943F
S1130E60F424898BCE018D5A9F4FFC01808191819E
S1130E7069890E94EC16CE018D5A9F4FFC01808136
S1130E809181875E9E4FFC01808191819C012F5F3F
S1130E903F4FCE018D5A9F4FFC0180819181875E27
S1130EA09E4FFC01318320830C94B6158A818A30CD
S1130EB009F040C0CE018D5A9F4FFC018081918181
S1130EC0875E9E4FFC018081918101969C01CE0139
S1130ED08D5A9F4FFC0180819181855F9E4FFC015B
S1130EE080819181B9010E94F4248A8BCE018D5AAC
S1130EF09F4FFC01808191816A890E942917CE014C
S1130F008D5A9F4FFC0180819181875E9E4FFC0129
S1130F10808191819C012F5F3F4FCE018D5A9F4F5D
S1130F20FC0180819181875E9E4FFC013183208387
S1130F300C94B6158A818B3009F083C0CE018D5A8A
S1130F409F4FFC0180819181875E9E4FFC018081CF
S1130F50918102969C01CE018D5A9F4FFC018081A4
S1130F609181855F9E4FFC0180819181B9010E942E
S1130F70F424882F90E0182F0027CE018D5A9F4F1C
S1130F80FC0180819181875E9E4FFC01808191816B
S1130F9003969C01CE018D5A9F4FFC018081918163
S1130FA0855F9E4FFC0180819181B9010E94F424E8
S1130FB0882F90E0802B912B9C8B8B8BCE018D5AAC
S1130FC09F4FFC0180819181875E9E4FFC0180814F
S1130FD0918101969C01CE018D5A9F4FFC01808125
S1130FE09181855F9E4FFC0180819181B9010E94AE
S1130FF0F4248D8B2B893C89CE018D5A9F4FFC01A3
S1131000808191814D89B9010E946617CE018D5A64
S11310109F4FFC0180819181875E9E4FFC018081FE
S113102091819C012D5F3F4FCE018D5A9F4FFC0152
S113103080819181875E9E4FFC01318320830C94D3
S1131040B6158A818C3009F083C0CE018D5A9F4F2A
S1131050FC0180819181875E9E4FFC01808191819A
S113106002969C01CE018D5A9F4FFC018081918193
S1131070855F9E4FFC0180819181B9010E94F42417
S1131080882F90E0182F0027CE018D5A9F4FFC0126
S113109080819181875E9E4FFC01808191810396BE
S11310A09C01CE018D5A9F4FFC0180819181855F07
S11310B09E4FFC0180819181B9010E94F424882F04
S11310C090E0802B912B9F8B8E8BCE018D5A9F4F5E
S11310D0FC0180819181875E9E4FFC01808191811A
S11310E001969C01CE018D5A9F4FFC018081918114
S11310F0855F9E4FFC0180819181B9010E94F42497
S1131100888F2E893F89CE018D5A9F4FFC018081A3
S11311109181488DB9010E948817CE018D5A9F4F45
S1131120FC0180819181875E9E4FFC0180819181C9
S11311309C012D5F3F4FCE018D5A9F4FFC01808152
S11311409181875E9E4FFC01318320830C94B615F8
S11311508A818D3009F040C0CE018D5A9F4FFC0129
S113116080819181875E9E4FFC01808191810196EF
S11311709C01CE018D5A9F4FFC0180819181855F36
S11311809E4FFC0180819181B9010E94F424898FD2
S1131190CE018D5A9F4FFC0180819181698D0E94FF
S11311A0AC17CE018D5A9F4FFC0180819181875EDF
S11311B09E4FFC01808191819C012F5F3F4FCE01A6
S11311C08D5A9F4FFC0180819181875E9E4FFC0167
S11311D0318320830C94B6158A818E3009F040C087
S11311E0CE018D5A9F4FFC0180819181875E9E4F75
S11311F0FC018081918101969C01CE018D5A9F4F03
S1131200FC0180819181855F9E4FFC0180819181E9
S1131210B9010E94F4248A8FCE018D5A9F4FFC019C
S1131220808191816A8D0E94CE17CE018D5A9F4F85
S1131230FC0180819181875E9E4FFC0180819181B8
S11312409C012F5F3F4FCE018D5A9F4FFC0180813F
S11312509181875E9E4FFC01318320830C94B615E7
S11312608A818F3009F040C0CE018D5A9F4FFC0116
S113127080819181875E9E4FFC01808191810196DE
S11312809C01CE018D5A9F4FFC0180819181855F25
S11312909E4FFC0180819181B9010E94F4248B8FBF
S11312A0CE018D5A9F4FFC01808191816B8D0E94EC
S11312B0F017CE018D5A9F4FFC0180819181875E8A
S11312C09E4FFC01808191819C012F5F3F4FCE0195
S11312D08D5A9F4FFC0180819181875E9E4FFC0156
S11312E0318320830C94B6158A81803151F4CE0168
S11312F08D5A9F4FFC01808191810E9412180C9499
S1131300B6158A81813151F4CE018D5A9F4FFC016B
S1131310808191810E942D180C94B6158A818231A6
S113132051F4CE018D5A9F4FFC01808191810E941E
S113133048180C94B6158A81833151F4CE018D5A24
S11313409F4FFC01808191810E9463180C94B61513
S11313508A81843151F4CE018D5A9F4FFC018081E2
S113136091810E947E180C94B6158A81853151F4BE
S1131370CE018D5A9F4FFC01808191810E94991862
S11313800C94B6158A81863151F4CE018D5A9F4F43
S1131390FC01808191810E94B4180C94B6158A8155
S11313A0873151F4CE018D5A9F4FFC018081918188
S11313B00E94CF180C94B6158A81883151F4CE015D
S11313C08D5A9F4FFC01808191810E94EA180C94F0
S11313D0B6158A81893151F4CE018D5A9F4FFC0193
S11313E0808191810E9405190C94B6158A818A31F5
S11313F051F4CE018D5A9F4FFC01808191810E944E
S113140020190C94B6158A818B3151F4CE018D5A72
S11314109F4FFC01808191810E943B190C94B61569
S11314208A818C3109F05DC0CE018D5A9F4FFC0139
S113143080819181875E9E4FFC018081918101961C
S11314409C01CE018D5A9F4FFC0180819181855F63
S11314509E4FFC0180819181B9010E94F4248C8FFC
S1131460CE018D5A9F4FFC0180819181875E9E4FF2
S1131470FC018081918102969C01CE018D5A9F4F7F
S1131480FC0180819181855F9E4FFC018081918167
S1131490B9010E94F4248D8FCE018D5A9F4FFC0117
S11314A0808191814D8D6C8D0E945619CE018D5A8B
S11314B09F4FFC0180819181875E9E4FFC0180815A
S11314C091819C012E5F3F4FCE018D5A9F4FFC01AD
S11314D080819181875E9E4FFC01318320830C942F
S11314E0B6158A818D3109F05DC0CE018D5A9F4FAA
S11314F0FC0180819181875E9E4FFC0180819181F6
S113150001969C01CE018D5A9F4FFC0180819181EF
S1131510855F9E4FFC0180819181B9010E94F42472
S11315208E8FCE018D5A9F4FFC0180819181875E01
S11315309E4FFC018081918102969C01CE018D5ABF
S11315409F4FFC0180819181855F9E4FFC018081CA
S11315509181B9010E94F4248F8FCE018D5A9F4F3F
S1131560FC01808191814F8D6E8D0E948C19CE017A
S11315708D5A9F4FFC0180819181875E9E4FFC01B3
S1131580808191819C012E5F3F4FCE018D5A9F4FE8
S1131590FC0180819181875E9E4FFC013183208311
S11315A00C94B6158A818E3109F040C0CE018D5A53
S11315B09F4FFC0180819181875E9E4FFC01808159
S11315C0918101969C01CE018D5A9F4FFC0180812F
S11315D09181855F9E4FFC0180819181B9010E94B8
S11315E0F424282FCE018D5A9F4FFC0180819181D4
S11315F0622F0E94C219CE018D5A9F4FFC01808137
S11316009181875E9E4FFC01808191819C012F5FB7
S11316103F4FCE018D5A9F4FFC0180819181875E9F
S11316209E4FFC01318320830C94B6158A818F313F
S113163009F040C0CE018D5A9F4FFC0180819181F9
S1131640875E9E4FFC018081918101969C01CE01B1
S11316508D5A9F4FFC0180819181855F9E4FFC01D3
S113166080819181B9010E94F424282FCE018D5AE2
S11316709F4FFC0180819181622F0E94E919CE0164
S11316808D5A9F4FFC0180819181875E9E4FFC01A2
S1131690808191819C012F5F3F4FCE018D5A9F4FD6
S11316A0FC0180819181875E9E4FFC013183208300
S11316B00C94B6158A81803209F04DC0CE018D5A42
S11316C09F4FFC0180819181875E9E4FFC01808148
S11316D0918101969C01CE018D5A9F4FFC0180811E
S11316E09181855F9E4FFC0180819181B9010E94A7
S11316F0F424882F90E0182F0027CE018D5A9F4F95
S1131700FC0180819181875E9E4FFC0180819181E3
S113171002969C01CE018D5A9F4FFC0180819181DC
S1131720855F9E4FFC0180819181B9010E94F42460
S1131730882F90E0802B912B99A388A328A139A10D
S1131740CE018D5A9F4FFC0180819181B9010E9485
S11317500D1A0C94B6158A81813209F05AC0CE0153
S11317608D5A9F4FFC0180819181875E9E4FFC01C1
S11317708081918101969C01CE018D5A9F4FFC017D
S113178080819181855F9E4FFC0180819181B901A7
S11317900E94F424882F90E0182F0027CE018D5A40
S11317A09F4FFC0180819181875E9E4FFC01808167
S11317B0918102969C01CE018D5A9F4FFC0180813C
S11317C09181855F9E4FFC0180819181B9010E94C6
S11317D0F424882F90E0802B912B9BA38AA3CE0125
S11317E08D5A9F4FFC0180819181875E9E4FFC0141
S11317F0208131818AA19BA1280F391FCE018D5AE6
S11318009F4FFC0180819181B9010E94341A0C948C
S1131810B6158A81823209F05AC0CE018D5A9F4F83
S1131820FC0180819181875E9E4FFC0180819181C2
S113183001969C01CE018D5A9F4FFC0180819181BC
S1131840855F9E4FFC0180819181B9010E94F4243F
S1131850882F90E0182F0027CE018D5A9F4FFC014E
S113186080819181875E9E4FFC01808191810296E7
S11318709C01CE018D5A9F4FFC0180819181855F2F
S11318809E4FFC0180819181B9010E94F424882F2C
S113189090E0802B912B9DA38CA3CE018D5A9F4F5A
S11318A0FC0180819181875E9E4FFC012081318102
S11318B08CA19DA1281B390BCE018D5A9F4FFC0191
S11318C080819181B9010E94641A0C94B6158A81B1
S11318D0833209F04DC0CE018D5A9F4FFC018081A7
S11318E09181875E9E4FFC018081918101969C01CC
S11318F0CE018D5A9F4FFC0180819181855F9E4F5F
S1131900FC0180819181B9010E94F424882F90E028
S1131910182F0027CE018D5A9F4FFC0180819181A1
S1131920875E9E4FFC018081918102969C01CE01CD
S11319308D5A9F4FFC0180819181855F9E4FFC01F0
S113194080819181B9010E94F424882F90E0802B3A
S1131950912B9FA38EA32EA13FA1CE018D5A9F4F01
S1131960FC0180819181B9010E94941A0C94B615EE
S11319708A81843209F05AC0CE018D5A9F4FFC01EE
S113198080819181875E9E4FFC01808191810196C7
S11319909C01CE018D5A9F4FFC0180819181855F0E
S11319A09E4FFC0180819181B9010E94F424882F0B
S11319B090E0182F0027CE018D5A9F4FFC018081A3
S11319C09181875E9E4FFC018081918102969C01EA
S11319D0CE018D5A9F4FFC0180819181855F9E4F7E
S11319E0FC0180819181B9010E94F424882F90E048
S11319F0802B912B99A788A7CE018D5A9F4FFC016C
S1131A0080819181875E9E4FFC012081318188A570
S1131A1099A5280F391FCE018D5A9F4FFC01808153
S1131A209181B9010E94CD1A0C94B6158A81853230
S1131A3009F05AC0CE018D5A9F4FFC0180819181DB
S1131A40875E9E4FFC018081918101969C01CE01AD
S1131A508D5A9F4FFC0180819181855F9E4FFC01CF
S1131A6080819181B9010E94F424882F90E0182F7D
S1131A700027CE018D5A9F4FFC0180819181875EA2
S1131A809E4FFC018081918102969C01CE018D5A6A
S1131A909F4FFC0180819181855F9E4FFC01808175
S1131AA09181B9010E94F424882F90E0802B912B1E
S1131AB09BA78AA7CE018D5A9F4FFC0180819181FB
S1131AC0875E9E4FFC01208131818AA59BA5281B3E
S1131AD0390BCE018D5A9F4FFC0180819181B90150
S1131AE00E940F1B0C94B6158A81863209F04DC0F2
S1131AF0CE018D5A9F4FFC0180819181875E9E4F5C
S1131B00FC018081918101969C01CE018D5A9F4FE9
S1131B10FC0180819181855F9E4FFC0180819181D0
S1131B20B9010E94F424882F90E0182F0027CE01D9
S1131B308D5A9F4FFC0180819181875E9E4FFC01ED
S1131B408081918102969C01CE018D5A9F4FFC01A8
S1131B5080819181855F9E4FFC0180819181B901D3
S1131B600E94F424882F90E0802B912B9DA78CA7B2
S1131B702CA53DA5CE018D5A9F4FFC0180819181FA
S1131B80B9010E94511B0C94B6158A81873209F061
S1131B9059C0CE018D5A9F4FFC0180819181875E8F
S1131BA09E4FFC018081918101969C01CE018D5A4A
S1131BB09F4FFC0180819181855F9E4FFC01808154
S1131BC09181B9010E94F424882F90E0182F0027F6
S1131BD0CE018D5A9F4FFC0180819181875E9E4F7B
S1131BE0FC018081918102969C01CE018D5A9F4F08
S1131BF0FC0180819181855F9E4FFC0180819181F0
S1131C00B9010E94F424882F90E0802B912B9FA788
S1131C108EA7CE018D5A9F4FFC0180819181875EF2
S1131C209E4FFC01208131818EA59FA5280F391F6D
S1131C30CE018D5A9F4FFC0180819181B9010E9490
S1131C40811B94C78A81883209F059C0CE018D5A0C
S1131C509F4FFC0180819181875E9E4FFC018081B2
S1131C60918101969C01CE018D5A9F4FFC01808188
S1131C709181855F9E4FFC0180819181B9010E9411
S1131C80F424882F90E0182F0027CE018D5A9F4FFF
S1131C90FC0180819181875E9E4FFC01808191814E
S1131CA002969C01CE018D5A9F4FFC018081918147
S1131CB0855F9E4FFC0180819181B9010E94F424CB
S1131CC0882F90E0802B912B99AB88ABCE018D5A55
S1131CD09F4FFC0180819181875E9E4FFC01208192
S1131CE0318188A999A9281B390BCE018D5A9F4FA0
S1131CF0FC0180819181B9010E94BA1B37C78A8196
S1131D00893209F04CC0CE018D5A9F4FFC0180816D
S1131D109181875E9E4FFC018081918101969C0197
S1131D20CE018D5A9F4FFC0180819181855F9E4F2A
S1131D30FC0180819181B9010E94F424882F90E0F4
S1131D40182F0027CE018D5A9F4FFC01808191816D
S1131D50875E9E4FFC018081918102969C01CE0199
S1131D608D5A9F4FFC0180819181855F9E4FFC01BC
S1131D7080819181B9010E94F424882F90E0802B06
S1131D80912B9BAB8AAB2AA93BA9CE018D5A9F4FBD
S1131D90FC0180819181B9010E94F31BE7C68A810D
S1131DA08A3209F059C0CE018D5A9F4FFC018081BF
S1131DB09181875E9E4FFC018081918101969C01F7
S1131DC0CE018D5A9F4FFC0180819181855F9E4F8A
S1131DD0FC0180819181B9010E94F424882F90E054
S1131DE0182F0027CE018D5A9F4FFC0180819181CD
S1131DF0875E9E4FFC018081918102969C01CE01F9
S1131E008D5A9F4FFC0180819181855F9E4FFC011B
S1131E1080819181B9010E94F424882F90E0802B65
S1131E20912B9DAB8CABCE018D5A9F4FFC018081D1
S1131E309181875E9E4FFC01208131818CA99DA9EF
S1131E40280F391FCE018D5A9F4FFC01808191814B
S1131E50B9010E94231C8AC68A818B3209F059C0B9
S1131E60CE018D5A9F4FFC0180819181875E9E4FE8
S1131E70FC018081918101969C01CE018D5A9F4F76
S1131E80FC0180819181855F9E4FFC01808191815D
S1131E90B9010E94F424882F90E0182F0027CE0166
S1131EA08D5A9F4FFC0180819181875E9E4FFC017A
S1131EB08081918102969C01CE018D5A9F4FFC0135
S1131EC080819181855F9E4FFC0180819181B90160
S1131ED00E94F424882F90E0802B912B9FAB8EAB33
S1131EE0CE018D5A9F4FFC0180819181875E9E4F68
S1131EF0FC01208131818EA99FA9281B390BCE01B9
S1131F008D5A9F4FFC0180819181B9010E945C1C14
S1131F102DC68A818C3209F04CC0CE018D5A9F4F58
S1131F20FC0180819181875E9E4FFC0180819181BB
S1131F3001969C01CE018D5A9F4FFC0180819181B5
S1131F40855F9E4FFC0180819181B9010E94F42438
S1131F50882F90E0182F0027CE018D5A9F4FFC0147
S1131F6080819181875E9E4FFC01808191810296E0
S1131F709C01CE018D5A9F4FFC0180819181855F28
S1131F809E4FFC0180819181B9010E94F424882F25
S1131F9090E0802B912B99AF88AF28AD39ADCE015D
S1131FA08D5A9F4FFC0180819181B9010E94951C3B
S1131FB0DDC58A818D3209F059C0CE018D5A9F4FFB
S1131FC0FC0180819181875E9E4FFC01808191811B
S1131FD001969C01CE018D5A9F4FFC018081918115
S1131FE0855F9E4FFC0180819181B9010E94F42498
S1131FF0882F90E0182F0027CE018D5A9F4FFC01A7
S113200080819181875E9E4FFC018081918102963F
S11320109C01CE018D5A9F4FFC0180819181855F87
S11320209E4FFC0180819181B9010E94F424882F84
S113203090E0802B912B9BAF8AAFCE018D5A9F4F9E
S1132040FC0180819181875E9E4FFC01208131815A
S11320508AAD9BAD280F391FCE018D5A9F4FFC01CD
S113206080819181B9010E94C51C80C58A818E320C
S113207009F059C0CE018D5A9F4FFC018081918196
S1132080875E9E4FFC018081918101969C01CE0167
S11320908D5A9F4FFC0180819181855F9E4FFC0189
S11320A080819181B9010E94F424882F90E0182F37
S11320B00027CE018D5A9F4FFC0180819181875E5C
S11320C09E4FFC018081918102969C01CE018D5A24
S11320D09F4FFC0180819181855F9E4FFC0180812F
S11320E09181B9010E94F424882F90E0802B912BD8
S11320F09DAF8CAFCE018D5A9F4FFC0180819181A1
S1132100875E9E4FFC01208131818CAD9DAD281BE3
S1132110390BCE018D5A9F4FFC0180819181B90109
S11321200E94FE1C23C58A818F3209F04CC0CE0167
S11321308D5A9F4FFC0180819181875E9E4FFC01E7
S11321408081918101969C01CE018D5A9F4FFC01A3
S113215080819181855F9E4FFC0180819181B901CD
S11321600E94F424882F90E0182F0027CE018D5A66
S11321709F4FFC0180819181875E9E4FFC0180818D
S1132180918102969C01CE018D5A9F4FFC01808162
S11321909181855F9E4FFC0180819181B9010E94EC
S11321A0F424882F90E0802B912B9FAF8EAF2EAD1F
S11321B03FADCE018D5A9F4FFC0180819181B901C1
S11321C00E94371DD3C48A81803309F062C0CE01D6
S11321D08D5A9F4FFC0180819181875E9E4FFC0147
S11321E08081918101969C01CE018D5A9F4FFC0103
S11321F080819181855F9E4FFC0180819181B9012D
S11322000E94F424882F90E0182F0027CE018D5AC5
S11322109F4FFC0180819181875E9E4FFC018081EC
S1132220918102969C01CE018D5A9F4FFC018081C1
S11322309181855F9E4FFC0180819181B9010E944B
S1132240F424882F90E09801282B392BCE01805C50
S11322509F4FFC0131832083CE018D5A9F4FFC0197
S113226080819181875E9E4FFC0120813181CE0166
S1132270805C9F4FFC0180819181280F391FCE0122
S11322808D5A9F4FFC0180819181B9010E94671D85
S11322906DC48A81813309F062C0CE018D5A9F4F8B
S11322A0FC0180819181875E9E4FFC018081918138
S11322B001969C01CE018D5A9F4FFC018081918132
S11322C0855F9E4FFC0180819181B9010E94F424B5
S11322D0882F90E0182F0027CE018D5A9F4FFC01C4
S11322E080819181875E9E4FFC018081918102965D
S11322F09C01CE018D5A9F4FFC0180819181855FA5
S11323009E4FFC0180819181B9010E94F424882FA1
S113231090E09801282B392BCE018E5B9F4FFC0156
S113232031832083CE018D5A9F4FFC01808191819E
S1132330875E9E4FFC0120813181CE018E5B9F4FD1
S1132340FC0180819181281B390BCE018D5A9F4F4E
S1132350FC0180819181B9010E94A01D07C48A817A
S1132360823309F048C0CE018D5A9F4FFC01808111
S11323709181875E9E4FFC018081918101969C0131
S1132380CE018D5A9F4FFC0180819181855F9E4FC4
S1132390FC01808191818E010C5B1F4FB9010E9469
S11323A0F424F8018083CE018C5B9F4F9E012D5A4B
S11323B03F4FF90120813181FC016081C9010E94F4
S11323C0D91DCE018D5A9F4FFC0180819181875E7A
S11323D09E4FFC01808191819C012F5F3F4FCE0174
S11323E08D5A9F4FFC0180819181875E9E4FFC0135
S11323F031832083BBC38A81833309F048C0CE0173
S11324008D5A9F4FFC0180819181875E9E4FFC0114
S11324108081918101969C01CE018D5A9F4FFC01D0
S113242080819181855F9E4FFC01808191818E0125
S11324300B5B1F4FB9010E94F424F8018083CE0185
S11324408B5B9F4F9E012D5A3F4FF90120813181B3
S1132450FC016081C9010E949E20CE018D5A9F4FCC
S1132460FC0180819181875E9E4FFC018081918176
S11324709C012F5F3F4FCE018D5A9F4FFC018081FD
S11324809181875E9E4FFC01318320836FC38A81D3
S1132490843309F048C0CE018D5A9F4FFC018081DE
S11324A09181875E9E4FFC018081918101969C0100
S11324B0CE018D5A9F4FFC0180819181855F9E4F93
S11324C0FC01808191818E010A5B1F4FB9010E943A
S11324D0F424F8018083CE018A5B9F4F9E012D5A1C
S11324E03F4FF90120813181FC016081C9010E94C3
S11324F03F1FCE018D5A9F4FFC0180819181875EE1
S11325009E4FFC01808191819C012F5F3F4FCE0142
S11325108D5A9F4FFC0180819181875E9E4FFC0103
S11325203183208323C38A81853309F048C0CE01D7
S11325308D5A9F4FFC0180819181875E9E4FFC01E3
S11325408081918101969C01CE018D5A9F4FFC019F
S113255080819181855F9E4FFC01808191818E01F4
S1132560095B1F4FB9010E94F424F8018083CE0156
S1132570895B9F4F9E012D5A3F4FF9012081318184
S1132580FC016081C9010E94FE1ECE018D5A9F4F3D
S1132590FC0180819181875E9E4FFC018081918145
S11325A09C012F5F3F4FCE018D5A9F4FFC018081CC
S11325B09181875E9E4FFC0131832083D7C28A813B
S11325C0863309F048C0CE018D5A9F4FFC018081AB
S11325D09181875E9E4FFC018081918101969C01CF
S11325E0CE018D5A9F4FFC0180819181855F9E4F62
S11325F0FC01808191818E01085B1F4FB9010E940B
S1132600F424F8018083CE01885B9F4F9E012D5AEC
S11326103F4FF90120813181FC016081C9010E9491
S11326205D1ECE018D5A9F4FFC0180819181875E92
S11326309E4FFC01808191819C012F5F3F4FCE0111
S11326408D5A9F4FFC0180819181875E9E4FFC01D2
S1132650318320838BC28A81873309F05CC0CE0129
S11326608D5A9F4FFC0180819181875E9E4FFC01B2
S11326708081918101969C01CE018D5A9F4FFC016E
S113268080819181855F9E4FFC01808191818E01C3
S1132690075B1F4FB9010E94F424F8018083CE0127
S11326A0875B9F4FFC018081882F90E09E012D5A0B
S11326B03F4FF90120813181880F991F820F931FA9
S11326C0855E9E4FFC01808191810E942001282F0C
S11326D0CE018D5A9F4FFC0180819181622F0E940F
S11326E05D1ECE018D5A9F4FFC0180819181875ED2
S11326F09E4FFC01808191819C012F5F3F4FCE0151
S11327008D5A9F4FFC0180819181875E9E4FFC0111
S1132710318320832BC28A81883309F048C0CE01DB
S11327208D5A9F4FFC0180819181875E9E4FFC01F1
S11327308081918101969C01CE018D5A9F4FFC01AD
S113274080819181855F9E4FFC01808191818E0102
S1132750065B1F4FB9010E94F424F8018083CE0167
S1132760865B9F4F9E012D5A3F4FF9012081318195
S1132770FC016081C9010E94981ECE018D5A9F4FB1
S1132780FC0180819181875E9E4FFC018081918153
S11327909C012F5F3F4FCE018D5A9F4FFC018081DA
S11327A09181875E9E4FFC0131832083DFC18A8142
S11327B0893309F048C0CE018D5A9F4FFC018081B6
S11327C09181875E9E4FFC018081918101969C01DD
S11327D0CE018D5A9F4FFC0180819181855F9E4F70
S11327E0FC01808191818E01055B1F4FB9010E941C
S11327F0F424F8018083CE01855B9F4F9E012D5AFE
S11328003F4FF90120813181FC016081C9010E949F
S11328105816CE018D5A9F4FFC0180819181875EAD
S11328209E4FFC01808191819C012F5F3F4FCE011F
S11328308D5A9F4FFC0180819181875E9E4FFC01E0
S11328403183208393C18A818A3309F048C0CE0141
S11328508D5A9F4FFC0180819181875E9E4FFC01C0
S11328608081918101969C01CE018D5A9F4FFC017C
S113287080819181855F9E4FFC01808191818E01D1
S1132880045B1F4FB9010E94F424F8018083CE0138
S1132890845B9F4F9E012D5A3F4FF9012081318166
S11328A0FC016081C9010E947516CE018D5A9F4FAB
S11328B0FC0180819181875E9E4FFC018081918122
S11328C09C012F5F3F4FCE018D5A9F4FFC018081A9
S11328D09181875E9E4FFC013183208347C18A81A9
S11328E08B3309F048C0CE018D5A9F4FFC01808183
S11328F09181875E9E4FFC018081918101969C01AC
S1132900CE018D5A9F4FFC0180819181855F9E4F3E
S1132910FC01808191818E01035B1F4FB9010E94EC
S1132920F424F8018083CE01835B9F4F9E012D5ACE
S11329303F4FF90120813181FC016081C9010E946E
S11329409216CE018D5A9F4FFC0180819181875E42
S11329509E4FFC01808191819C012F5F3F4FCE01EE
S11329608D5A9F4FFC0180819181875E9E4FFC01AF
S113297031832083FBC08A818C3349F4CE018D5A84
S11329809F4FFC01808191810E94B420EFC08A8115
S11329908D3309F06EC0CE018D5A9F4FFC018081AA
S11329A09181875E9E4FFC018081918101969C01FB
S11329B0CE018D5A9F4FFC0180819181855F9E4F8E
S11329C0FC0180819181B9010E94F424882F90E058
S11329D0182F0027CE018D5A9F4FFC0180819181D1
S11329E0875E9E4FFC018081918102969C01CE01FD
S11329F08D5A9F4FFC0180819181855F9E4FFC0120
S1132A0080819181B9010E94F424882F90E098017B
S1132A10282B392BCE01825B9F4FFC01318320830D
S1132A20CE01825B9F4FFC0120813181CE018D5A02
S1132A309F4FFC0180819181B9010E94421ECE0109
S1132A408D5A9F4FFC0180819181875E9E4FFC01CE
S1132A50808191819C012E5F3F4FCE018D5A9F4F03
S1132A60FC0180819181875E9E4FFC01318320832C
S1132A707DC08A818E3309F06EC0CE018D5A9F4F7E
S1132A80FC0180819181875E9E4FFC018081918150
S1132A9001969C01CE018D5A9F4FFC01808191814A
S1132AA0855F9E4FFC0180819181B9010E94F424CD
S1132AB0882F90E0182F0027CE018D5A9F4FFC01DC
S1132AC080819181875E9E4FFC0180819181029675
S1132AD09C01CE018D5A9F4FFC0180819181855FBD
S1132AE09E4FFC0180819181B9010E94F424882FBA
S1132AF090E09801282B392BCE01805B9F4FFC017D
S1132B0031832083CE01805B9F4FFC012081318182
S1132B10CE018D5A9F4FFC0180819181B9010E94A1
S1132B20001ECE018D5A9F4FFC0180819181875EEA
S1132B309E4FFC01808191819C012E5F3F4FCE010D
S1132B408D5A9F4FFC0180819181875E9E4FFC01CD
S1132B50318320830BC08A818F3F41F4CE018D5A8B
S1132B609F4FFC01808191810E94F21DCE018D5AFC
S1132B709F4FFC0180819181875E9E4FFC01808183
S1132B8091819C012F5F3F4FCE018D5A9F4FFC01D5
S1132B9080819181875E9E4FFC01318320830C9458
S1132BA0E303CE018D5A9F4FFC0180819181875EA2
S1132BB09E4FFC011182108285E6CC5ADF4F0FB67E
S1132BC0F894DEBF0FBECDBFDF91CF911F910F915F
S1132BD00895CF93DF9300D000D0CDB7DEB79A83AA
S1132BE089836B834C838B81882F90E02C81222FE7
S1132BF030E049815A81240F351FF9014081298130
S1132C003A81820F931FFC01408300000F900F90C4
S1132C100F900F90DF91CF9108950F931F93CF934F
S1132C20DF9300D000D01F92CDB7DEB79A8389839B
S1132C306B835D834C838B81082F10E02C813D8155
S1132C4089819A81835F9E4FFC0180819181B901C2
S1132C500E94F424282F89819A81800F911FFC01FE
S1132C60208300000F900F900F900F900F90DF9132
S1132C70CF911F910F910895CF93DF9300D000D08F
S1132C80CDB7DEB79A8389836B834C838B81882F7E
S1132C9090E029813A81820F931F2C81FC012083CB
S1132CA000000F900F900F900F90DF91CF91089537
S1132CB0CF93DF9300D01F92CDB7DEB79A83898379
S1132CC06B8389819A8181509F4F0E9420019C01CE
S1132CD089819A81A9016B810E940D1600000F90D1
S1132CE00F900F90DF91CF910895CF93DF9300D091
S1132CF01F92CDB7DEB79A8389836B8389819A81CA
S1132D008D5F9E4F0E9420019C0189819A81A901B7
S1132D106B810E940D1600000F900F900F90DF91B1
S1132D20CF910895CF93DF9300D01F92CDB7DEB734
S1132D309A8389836B8389819A81895F9E4F0E94DC
S1132D4020019C0189819A81A9016B810E940D1641
S1132D5000000F900F900F90DF91CF910895CF93C3
S1132D60DF9300D01F92CDB7DEB79A8389836B833C
S1132D708B81882F90E029813A81820F931FFC0177
S1132D80408189819A818F5F9E4FFC01808191816E
S1132D90FC018081882F90E0382F222789819A8135
S1132DA081509F4FFC0180819181FC018081882F9B
S1132DB090E0282B392B89819A81835F9E4FFC01F7
S1132DC080819181B9010E94162500000F900F9017
S1132DD00F90DF91CF910895CF93DF9300D01F928E
S1132DE0CDB7DEB79A8389836B838B81882F90E07C
S1132DF029813A81820F931FFC01408189819A8144
S1132E008B5F9E4FFC0180819181FC018081882F22
S1132E1090E0382F222789819A818D5F9E4FFC0193
S1132E2080819181FC018081882F90E0282B392BAF
S1132E3089819A81835F9E4FFC0180819181B901D0
S1132E400E94162500000F900F900F90DF91CF91F4
S1132E500895CF93DF9300D01F92CDB7DEB79A8346
S1132E6089836B838B81882F90E029813A81820F3B
S1132E70931FFC01408189819A81875F9E4FFC01E9
S1132E8080819181FC018081882F90E0382F222756
S1132E9089819A81895F9E4FFC0180819181FC0127
S1132EA08081882F90E0282B392B89819A81835F38
S1132EB09E4FFC0180819181B9010E94162500007A
S1132EC00F900F900F90DF91CF910895CF93DF93E0
S1132ED000D000D01F92CDB7DEB79A8389837C835C
S1132EE06B834D8389819A81835F9E4FFC0180812E
S1132EF091812B813C814D81B9010E9416250000EE
S1132F000F900F900F900F900F90DF91CF91089535
S1132F10CF93DF9300D000D01F92CDB7DEB79A8352
S1132F2089837C836B834D8389819A818F5E9E4FD5
S1132F30FC01808191819C018B819C814D81BC012C
S1132F40C9010E94162500000F900F900F900F905A
S1132F500F90DF91CF910895CF93DF9300D01F920C
S1132F60CDB7DEB79A8389836B8389819A81815037
S1132F709F4F0E9420019C0189819A818F5E9E4F00
S1132F80FC01808191814B81B9010E9416250000CA
S1132F900F900F900F90DF91CF910895CF93DF930F
S1132FA000D01F92CDB7DEB79A8389836B83898162
S1132FB09A818D5F9E4F0E9420019C0189819A8194
S1132FC08F5E9E4FFC01808191814B81B9010E94EB
S1132FD0162500000F900F900F90DF91CF91089568
S1132FE0CF93DF9300D01F92CDB7DEB79A83898346
S1132FF06B8389819A81895F9E4F0E9420019C0185
S113300089819A818F5E9E4FFC01808191814B81E1
S1133010B9010E94162500000F900F900F90DF91C8
S1133020CF910895CF93DF9300D0CDB7DEB79A83C5
S1133030898389819A8181509F4F0E9420019C013C
S113304089819A81895E9E4FFC013183208300002F
S11330500F900F90DF91CF910895CF93DF9300D01D
S1133060CDB7DEB79A83898389819A8181509F4F36
S11330700E9420019C0189819A818D5F9E4FB90134
S11330800E94420100000F900F90DF91CF910895AC
S1133090CF93DF9300D0CDB7DEB79A83898389813C
S11330A09A8181509F4F0E9420019C0189819A81BD
S11330B0895F9E4FB9010E94420100000F900F905A
S11330C0DF91CF910895CF93DF9300D0CDB7DEB7D2
S11330D09A83898389819A818D5F9E4F0E94200102
S11330E09C0189819A81895E9E4FFC0131832083F2
S11330F000000F900F90DF91CF910895CF93DF934D
S113310000D0CDB7DEB79A83898389819A818D5F98
S11331109E4F0E9420019C0189819A8181509F4F7A
S1133120B9010E94420100000F900F90DF91CF91EE
S11331300895CF93DF9300D0CDB7DEB79A83898308
S113314089819A818D5F9E4F0E9420019C01898113
S11331509A81895F9E4FB9010E94420100000F903D
S11331600F90DF91CF910895CF93DF9300D0CDB727
S1133170DEB79A83898389819A81895F9E4F0E94F1
S113318020019C0189819A81895E9E4FFC013183D3
S1133190208300000F900F90DF91CF910895CF937B
S11331A0DF9300D0CDB7DEB79A83898389819A8172
S11331B0895F9E4F0E9420019C0189819A818150E0
S11331C09F4FB9010E94420100000F900F90DF91C0
S11331D0CF910895CF93DF9300D0CDB7DEB79A8314
S11331E0898389819A81895F9E4F0E9420019C0175
S11331F089819A818D5F9E4FB9010E94420100002E
S11332000F900F90DF91CF910895CF93DF9300D06B
S1133210CDB7DEB79A83898389819A81895E9E4F6F
S1133220FC012081318189819A8181509F4FB901AC
S11332300E94420100000F900F90DF91CF910895FA
S1133240CF93DF9300D0CDB7DEB79A83898389818A
S11332509A81895E9E4FFC012081318189819A8106
S11332608D5F9E4FB9010E94420100000F900F90A4
S1133270DF91CF910895CF93DF9300D0CDB7DEB720
S11332809A83898389819A81895E9E4FFC0120817A
S1133290318189819A81895F9E4FB9010E944201DF
S11332A000000F900F90DF91CF910895CF93DF939B
S11332B000D000D0CDB7DEB79A8389836B834C836B
S11332C09B818C81981741F489819A818F5D9E4FEF
S11332D041E063E00E9485019B818C81891740F461
S11332E089819A818F5D9E4F41E061E00E94850152
S11332F09B818C81981740F489819A818F5D9E4FC0
S113330041E062E00E94850100000F900F900F9051
S11333100F90DF91CF910895CF93DF9300D000D029
S1133320CDB7DEB79A8389836B834C839B818C8171
S1133330981741F489819A818F5D9E4F41E063E043
S11333400E9485019B818C81891740F489819A812F
S11333508F5D9E4F41E061E00E9485019B818C81DD
S1133360981740F489819A818F5D9E4F41E062E015
S11333700E94850100000F900F900F900F90DF9135
S1133380CF910895CF93DF9300D01F92CDB7DEB7CE
S11333909A8389836B838B81882F90E02B81222FE2
S11333A030E049815A81240F351FF9012081222FF1
S11333B030E035952795422F29813A81820F931F5A
S11333C0FC01408300000F900F900F90DF91CF918C
S11333D00895CF93DF9300D01F92CDB7DEB79A83C1
S11333E089836B838B81882F90E02B81222F30E09F
S11333F049815A81240F351FF9012081422F440F3E
S113340029813A81820F931FFC01408300000F90B1
S11334100F900F90DF91CF910895CF93DF9300D059
S113342000D0CDB7DEB79A8389837C836B8389818F
S11334309A818F5D9E4F63E00E946701982F81E01F
S1133440913009F080E0882339F02B813C81898117
S11334509A81B9010E94421E00000F900F900F90B4
S11334600F90DF91CF910895CF93DF9300D000D0D8
S1133470CDB7DEB79A8389837C836B8389819A81F4
S11334808F5D9E4F63E00E946701982F81E0913029
S113349009F080E0882381F089819A81875E9E4FBC
S11334A0FC01208131818B819C81280F391F898106
S11334B09A81B9010E94421E00000F900F900F9054
S11334C00F90DF91CF910895CF93DF9300D000D078
S11334D0CDB7DEB79A8389837C836B8389819A8194
S11334E08F5D9E4F63E00E946701982F81E09130C9
S11334F009F080E0882381F089819A81875E9E4F5C
S1133500FC01208131818B819C81281B390B8981AD
S11335109A81B9010E94421E00000F900F900F90F3
S11335200F90DF91CF910895CF93DF9300D000D017
S1133530CDB7DEB79A8389837C836B8389819A8133
S11335408F5D9E4F63E00E9467018823A1F4898107
S11335509A818F5D9E4F61E00E946701813049F03E
S113356089819A818F5D9E4F62E00E94670181305C
S113357011F481E001C080E0882339F02B813C8183
S113358089819A81B9010E94421E00000F900F9018
S11335900F900F90DF91CF910895CF93DF9300D0D8
S11335A000D0CDB7DEB79A8389837C836B8389810E
S11335B09A818F5D9E4F63E00E9467018823A1F486
S11335C089819A818F5D9E4F61E00E9467018130FD
S11335D049F089819A818F5D9E4F62E00E94670164
S11335E0813011F481E001C080E0882381F0898179
S11335F09A81875E9E4FFC01208131818B819C8161
S1133600280F391F89819A81B9010E94421E000046
S11336100F900F900F900F90DF91CF910895CF935B
S1133620DF9300D000D0CDB7DEB79A8389837C8343
S11336306B8389819A818F5D9E4F63E00E9467014D
S11336408823A1F489819A818F5D9E4F61E00E9455
S11336506701813049F089819A818F5D9E4F62E0D4
S11336600E946701813011F481E001C080E0882369
S113367081F089819A81875E9E4FFC01208131818E
S11336808B819C81281B390B89819A81B9010E9405
S1133690421E00000F900F900F900F90DF91CF917A
S11336A00895CF93DF9300D000D0CDB7DEB79A83CF
S11336B089837C836B8389819A818F5D9E4F63E0CC
S11336C00E946701882349F489819A818F5D9E4F06
S11336D061E00E946701882311F081E001C080E06D
S11336E0882339F02B813C8189819A81B9010E9418
S11336F0421E00000F900F900F900F90DF91CF911A
S11337000895CF93DF9300D000D0CDB7DEB79A836E
S113371089837C836B8389819A818F5D9E4F63E06B
S11337200E946701882349F489819A818F5D9E4FA5
S113373061E00E946701882311F081E001C080E00C
S1133740882381F089819A81875E9E4FFC012081C4
S113375031818B819C81280F391F89819A81B9011C
S11337600E94421E00000F900F900F900F90DF9167
S1133770CF910895CF93DF9300D000D0CDB7DEB7BB
S11337809A8389837C836B8389819A818F5D9E4F21
S113379063E00E946701882349F489819A818F5DDF
S11337A09E4F61E00E946701882311F081E001C00F
S11337B080E0882381F089819A81875E9E4FFC0195
S11337C0208131818B819C81281B390B89819A81CD
S11337D0B9010E94421E00000F900F900F900F90AD
S11337E0DF91CF910895CF93DF9300D000D0CDB770
S11337F0DEB79A8389837C836B8389819A818F5D09
S11338009E4F63E00E946701882349F489819A816D
S11338108F5D9E4F62E00E946701882311F081E072
S113382001C080E0882339F02B813C8189819A8111
S1133830B9010E94421E00000F900F900F900F904C
S1133840DF91CF910895CF93DF9300D000D0CDB70F
S1133850DEB79A8389837C836B8389819A818F5DA8
S11338609E4F63E00E946701882349F489819A810D
S11338708F5D9E4F62E00E946701882311F081E012
S113388001C080E0882381F089819A81875E9E4F00
S1133890FC01208131818B819C81280F391F898112
S11338A09A81B9010E94421E00000F900F900F9060
S11338B00F90DF91CF910895CF93DF9300D000D084
S11338C0CDB7DEB79A8389837C836B8389819A81A0
S11338D08F5D9E4F63E00E946701882349F48981CC
S11338E09A818F5D9E4F62E00E946701882311F0E8
S11338F081E001C080E0882381F089819A81875E1C
S11339009E4FFC01208131818B819C81281B390BC6
S113391089819A81B9010E94421E00000F900F9084
S11339200F900F90DF91CF910895CF93DF9300D044
S113393000D0CDB7DEB79A8389837C836B8389817A
S11339409A818F5D9E4F63E00E946701882359F43A
S113395089819A818F5D9E4F61E00E94670188236F
S113396011F081E001C080E0882339F02B813C8193
S113397089819A81B9010E94421E00000F900F9024
S11339800F900F90DF91CF910895CF93DF9300D0E4
S113399000D0CDB7DEB79A8389837C836B8389811A
S11339A09A818F5D9E4F63E00E946701882359F4DA
S11339B089819A818F5D9E4F61E00E94670188230F
S11339C011F081E001C080E0882381F089819A812F
S11339D0875E9E4FFC01208131818B819C81280F61
S11339E0391F89819A81B9010E94421E00000F90FB
S11339F00F900F900F90DF91CF910895CF93DF93A5
S1133A0000D000D0CDB7DEB79A8389837C836B83E3
S1133A1089819A818F5D9E4F63E00E9467018823AC
S1133A2059F489819A818F5D9E4F61E00E946701FC
S1133A30882311F081E001C080E0882381F089812E
S1133A409A81875E9E4FFC01208131818B819C810C
S1133A50281B390B89819A81B9010E94421E0000FA
S1133A600F900F900F900F90DF91CF910895CF9307
S1133A70DF9300D000D0CDB7DEB79A8389837C83EF
S1133A806B8389819A818F5D9E4F63E00E946701F9
S1133A90882359F489819A818F5D9E4F62E00E9448
S1133AA06701882311F081E001C080E0882339F0A8
S1133AB02B813C8189819A81B9010E94421E0000B8
S1133AC00F900F900F900F90DF91CF910895CF93A7
S1133AD0DF9300D000D0CDB7DEB79A8389837C838F
S1133AE06B8389819A818F5D9E4F63E00E94670199
S1133AF0882359F489819A818F5D9E4F62E00E94E8
S1133B006701882311F081E001C080E0882381F0FF
S1133B1089819A81875E9E4FFC01208131818B814E
S1133B209C81280F391F89819A81B9010E94421E04
S1133B3000000F900F900F900F90DF91CF91089598
S1133B40CF93DF9300D000D0CDB7DEB79A838983BB
S1133B507C836B8389819A818F5D9E4F63E00E9491
S1133B606701882359F489819A818F5D9E4F62E0B1
S1133B700E946701882311F081E001C080E088235E
S1133B8081F089819A81875E9E4FFC012081318179
S1133B908B819C81281B390B89819A81B9010E94F0
S1133BA0421E00000F900F900F900F90DF91CF9165
S1133BB00895CF93DF9300D01F92CDB7DEB79A83D9
S1133BC089836B838B81882F90E029813A81820FCE
S1133BD0931FFC01108200000F900F900F90DF9153
S1133BE0CF910895CF93DF9300D0CDB7DEB79A83FA
S1133BF08983000000000F900F90DF91CF9108950A
S1133C000F931F93CF93DF9300D000D0CDB7DEB7CF
S1133C109A8389837C836B8389819A81895E9E4F91
S1133C20FC0180819181282F89819A81622F0E94D1
S1133C305D1E2B813C8189819A81B9010E94421EBB
S1133C4089819A810E94CB1E882F90E0182F00272B
S1133C5089819A810E94CB1E882F90E0802B912B22
S1133C609C0189819A81875E9E4FFC013183208368
S1133C7000000F900F900F900F90DF91CF911F9144
S1133C800F910895CF93DF9300D000D0CDB7DEB766
S1133C909A8389837C836B8389819A81875E9E4F13
S1133CA02B813C81FC013183208300000F900F9015
S1133CB00F900F90DF91CF910895CF93DF9300D0B1
S1133CC01F92CDB7DEB79A8389836B838B81882F4C
S1133CD090E029813A81820F931FFC014081898100
S1133CE09A81895E9E4FFC012081318189819A816C
S1133CF0815F9E4FFC0180819181B9010E9416254C
S1133D0089819A81895E9E4FFC01808191819C0109
S1133D102150310989819A81895E9E4FFC0131834A
S1133D20208300000F900F900F90DF91CF910895A2
S1133D30CF93DF9300D01F92CDB7DEB79A838983E8
S1133D406B8389819A81895E9E4FFC012081318138
S1133D5089819A81815F9E4FFC01808191814B8191
S1133D60B9010E94162589819A81895E9E4FFC01C2
S1133D70808191819C012150310989819A81895ED8
S1133D809E4FFC013183208300000F900F900F9011
S1133D90DF91CF910895CF93DF9300D01F92CDB7D9
S1133DA0DEB79B838A838A819B81895E9E4FFC0157
S1133DB0808191819C018A819B81815F9E4FFC015E
S1133DC080819181B9010E94F42489838A819B8135
S1133DD0895E9E4FFC01808191819C012F5F3F4F42
S1133DE08A819B81895E9E4FFC0131832083898176
S1133DF00F900F900F90DF91CF9108950F931F9321
S1133E00CF93DF9300D01F92CDB7DEB79A83898317
S1133E106B838B81082F10E089819A81895E9E4F84
S1133E20FC01808191819C0189819A81815F9E4FEF
S1133E30FC0180819181B9010E94F424282F898199
S1133E409A81800F911FFC01208389819A81895E68
S1133E509E4FFC01808191819C012F5F3F4F89819E
S1133E609A81895E9E4FFC013183208300000F906C
S1133E700F900F90DF91CF911F910F910895CF93E1
S1133E80DF9300D01F92CDB7DEB79A8389836B830B
S1133E908B81882F90E02B81222F30E049815A8139
S1133EA0240F351FF9012081222F30E0229532950D
S1133EB0307F3227207F3227622F2B81222F30E060
S1133EC049815A81240F351FF9012081222F30E0C6
S1133ED035952795359527953595279535952795C6
S1133EE0262B422F29813A81820F931FFC014083A4
S1133EF000000F900F900F90DF91CF910895CF9312
S1133F00DF93CDB7DEB762970FB6F894DEBF0FBE6E
S1133F10CDBF9A8B898B89899A89FC0180818823FA
S1133F2009F085C089899A89FC018181882F90E0F4
S1133F309A83898380E090E0A0E8BFE38B839C832D
S1133F40AD83BE8320E030E04AE753E46B817C819B
S1133F508D819E810E94512ADC01CB018F83988739
S1133F60A987BA8720E030E040E85FE36F81788575
S1133F7089859A850E94CB2988232CF481E090E0DE
S1133F809C878B873EC020E03FEF4FE757E46F816B
S1133F90788589859A850E944C2A181644F520E074
S1133FA030E040E251E46B817C818D819E810E94EE
S1133FB0512ADC01CB01BC01CD010E94D029DC01D6
S1133FC0CB019C878B878B859C85892B21F189E18B
S1133FD090E09E878D878D859E850197F1F79E875A
S1133FE08D878B859C8501979C878B87ECCF6F8110
S1133FF0788589859A850E94D029DC01CB019C872C
S11340008B878B859C85988B8F878F859889019763
S1134010F1F7988B8F8789819A8101979A83898395
S113402089819A81181619060CF07EC083CF89897C
S11340309A89FC018081813011F589899A89FC0172
S11340408181882331F089899A89FC0182818823BE
S113405031F489899A8921E0FC01238365C0898927
S11340609A89FC01218189899A89FC018281289F8E
S1134070202D112489899A89FC01238355C08989BB
S11340809A89FC018081823031F589899A89FC0101
S11340908281882351F489899A89FC011382898950
S11340A09A8921E0FC0124833FC089899A89FC0113
S11340B0218189899A89FC019281822F692F0E942A
S11340C0E62A282F89899A89FC01238389899A8978
S11340D0FC01148229C089899A89FC01808183307A
S11340E011F482E622C089899A89FC018081843096
S11340F011F482E61AC089899A89FC01808185308D
S113410099F089899A89FC018081863069F08989CE
S11341109A89FC0180818F3F39F489899A8921E049
S1134120FC01218385E601C080E062960FB6F89415
S1134130DEBF0FBECDBFDF91CF910895CF93DF9344
S113414000D01F92CDB7DEB79A8389836B838981B0
S11341509A818F5D9E4F0E944A0200000F900F903B
S11341600F90DF91CF910895CF93DF9300D0CDB717
S1134170DEB79A83898300000F900F90DF91CF916F
S11341800895CF93DF9300D000D0CDB7DEB79C83E2
S11341908B831A82198289819A818F3F910570F4E9
S11341A02B813C8189819A81820F931FFC011082AB
S11341B089819A8101969A838983EDCF00000F90BB
S11341C00F900F900F90DF91CF910895CF93DF93CD
S11341D000D0CDB7DEB79A83898389819A81855FC0
S11341E09E4FFC011182108289819A81835F9E4FC8
S11341F0FC011182108289819A81815F9E4FFC01AA
S11342001182108289819A818F5E9E4FFC011182F6
S1134210108289819A818D5E9E4FFC0111821082E9
S113422089819A818B5E9E4FFC011182108200006D
S11342300F900F90DF91CF910895CF93DF9300D02B
S1134240CDB7DEB79A83898300000F900F90DF917A
S1134250CF910895CF93DF9300D0CDB7DEB79A8383
S1134260898300000F900F90DF91CF910895CF9331
S1134270DF9300D0CDB7DEB79A83898389819A8191
S1134280FC01148215821682178200000F900F9091
S1134290DF91CF910895CF93DF9300D0CDB7DEB7F0
S11342A09A83898300000F900F90DF91CF91089536
S11342B0CF93DF9300D0CDB7DEB79A838983000014
S11342C00F900F90DF91CF910895CF93DF9300D09B
S11342D0CDB7DEB79A83898389E290E0FC018081BF
S11342E00F900F90DF91CF910895CF93DF9300D07B
S11342F01F92CDB7DEB79A8389836B8388E290E0FF
S11343002B81FC01208300000F900F900F90DF9110
S1134310CF910895CF93DF9300D01F92CDB7DEB72E
S11343209A8389836B8381E290E02B81FC01208353
S113433000000F900F900F90DF91CF910895CF93CD
S1134340DF9300D01F92CDB7DEB79A8389836B8346
S113435084E290E02B81FC01208300000F900F90F9
S11343600F90DF91CF910895CF93DF9300D01F92E8
S1134370CDB7DEB79A8389836B8387E290E02B8184
S1134380FC01208300000F900F900F90DF91CF91DC
S11343900895CF93DF9300D01F92CDB7DEB79A83F1
S11343A089836B838AE290E02B81FC0120830000E7
S11343B00F900F900F90DF91CF910895CF93DF93DB
S11343C000D000D0CDB7DEB79A8389836B834C834A
S11343D08B81882369F08B81893050F48B812FEF96
S11343E0280F89819A814C81622F0E94302230C02B
S11343F08B818E3068F08B81863150F48B8123EF72
S1134400280F89819A814C81622F0E94302220C01A
S11344108B81863168F08B818E3150F48B812BEE49
S1134420280F89819A814C81622F0E94302210C00A
S11344308B81813268F08B81893250F48B8120EE3C
S1134440280F89819A814C81622F0E94302200C0FA
S113445000000F900F900F900F90DF91CF9108956F
S1134460CF93DF9300D000D0CDB7DEB79A83898392
S11344706B834C838C818823A9F082E290E022E252
S113448030E0F9012081622F2B81422F50E021E09E
S113449030E002C0220F331F4A95E2F7262BFC01BD
S11344A0208315C082E290E022E230E0F90120810D
S11344B0622F2B81422F50E021E030E002C0220F16
S11344C0331F4A95E2F720952623FC012083000040
S11344D00F900F900F900F90DF91CF910895CF938D
S11344E0DF9300D0CDB7DEB79A83898300000F90A5
S11344F00F90DF91CF9108950F931F93CF93DF9384
S1134500CDB7DEB727970FB6F894DEBF0FBECDBF89
S11345109A8389836B834C832D831F830E838981C4
S11345209A812B81FC01208389819A812C81FC0151
S1134530218389819A812D81FC01228389819A8139
S11345402E813F81FC013487238789819A81FC0174
S11345501382FC011482FC011582FC011682FC0109
S11345601782FC011086FC011186FC0112860000F2
S113457027960FB6F894DEBF0FBECDBFDF91CF9163
S11345801F910F910895CF93DF9300D000D0CDB742
S1134590DEB79B838A836C8319828981883008F013
S11345A04CC08C81882F90E02981222F30E047E095
S11345B050E0BA01621B730B9B0102C0959587956D
S11345C02A95E2F7019771F48A819B81FC0120818D
S11345D08A819B81FC018385948541E0622F0E943E
S11345E0DE210DC08A819B81FC0120818A819B810F
S11345F0FC018385948540E0622F0E94DE218A813C
S11346009B81FC0121818A819B81FC0183859485A6
S113461041E0622F0E94DE218A819B81FC0121817D
S11346208A819B81FC018385948540E0622F0E94EE
S1134630DE2189818F5F8983B0CF8A819B81FC01D0
S113464022818A819B81FC018385948541E0622FCC
S11346500E94DE218A819B81FC0122818A819B81C7
S1134660FC018385948540E0622F0E94DE210000D6
S11346700F900F900F900F90DF91CF910895CF93EB
S1134680DF93CDB7DEB728970FB6F894DEBF0FBE21
S1134690CDBF9E838D8378876F838F819885892F83
S11346A099278B838F818C8319828981803108F0CB
S11346B04CC08C81882F90E02981222F30E04FE07C
S11346C050E0BA01621B730B9B0102C0959587955C
S11346D02A95E2F7019771F48D819E81FC01208176
S11346E08D819E81FC018385948541E0622F0E9427
S11346F0DE210DC08D819E81FC0120818D819E81F2
S1134700FC018385948540E0622F0E94DE218D8127
S11347109E81FC0121818D819E81FC01838594858C
S113472041E0622F0E94DE218D819E81FC01218166
S11347308D819E81FC018385948540E0622F0E94D7
S1134740DE2189818F5F8983B0CF1A828A81883084
S113475008F04CC08B81882F90E02A81222F30E012
S113476047E050E0BA01621B730B9B0102C09595B0
S113477087952A95E2F7019771F48D819E81FC015A
S113478020818D819E81FC018385948541E0622F87
S11347900E94DE210DC08D819E81FC0120818D81CE
S11347A09E81FC018385948540E0622F0E94DE2176
S11347B08D819E81FC0121818D819E81FC018385F7
S11347C0948541E0622F0E94DE218D819E81FC014F
S11347D021818D819E81FC018385948540E0622F37
S11347E00E94DE218A818F5F8A83B0CF8D819E8172
S11347F0FC0122818D819E81FC018385948541E0A9
S1134800622F0E94DE218D819E81FC0122818D8197
S11348109E81FC018385948540E0622F0E94DE2105
S1134820000028960FB6F894DEBF0FBECDBFDF910F
S1134830CF910895CF93DF9300D0CDB7DEB79A839D
S1134840898300000F900F90DF91CF910895CF924C
S1134850DF92EF92FF920F931F93CF93DF93CDB725
S1134860DEB72E970FB6F894DEBF0FBECDBF9A8386
S113487089837C836B835E834D83CF82D886E9866C
S1134880FA860B871C872D873E8789819A812B8125
S11348903C81FC013583248389819A812D813E8169
S11348A0FC01378326832F81388589819A81FC0115
S11348B03383228389819A81FC0111821082000052
S11348C02E960FB6F894DEBF0FBECDBFDF91CF9109
S11348D01F910F91FF90EF90DF90CF900895CF93A9
S11348E0DF9300D000D0CDB7DEB79A8389837C8371
S11348F06B832B813C8189819A81FC01868197811C
S1134900B9010E943F2389819A81FC0184819581A8
S11349100E9465210F900F900F900F90DF91CF911F
S11349200895CF93DF9300D0CDB7DEB79A83898300
S113493000000F900F90DF91CF910895EF92FF92B6
S11349400F931F93CF93DF93CDB7DEB72B970FB69B
S1134950F894DEBF0FBECDBF9A8389837C836B83BB
S11349605E834D832F83E886F9860A871B878981B6
S11349709A812B813C81FC013383228389819A8132
S11349802D813E81FC013583248389819A812F8185
S1134990FC01218329813A8188859985AA85BB8573
S11349A0F90180879187A287B38789819A81FC0165
S11349B0108289819A81FC01218189819A81FC017B
S11349C08281938141E0622F0E94DE2100002B96B8
S11349D00FB6F894DEBF0FBECDBFDF91CF911F910C
S11349E00F91FF90EF900895CF93DF9300D000D004
S11349F0CDB7DEB79A8389837C836B832B813C811B
S1134A0089819A81FC0184819581B9010E943F23A7
S1134A1089819A81FC01828193810E9465210F9092
S1134A200F900F900F90DF91CF910895CF93DF9364
S1134A30CDB7DEB763970FB6F894DEBF0FBECDBF18
S1134A40988B8F877A8B698B4B8B8F859889FC0128
S1134A508481958129893A89B9010E943F238F85F0
S1134A609889FC0186819781892B49F48F859889DF
S1134A70FC01828193816B890E94752108C08F8516
S1134A809889FC01868197816B890E94C3228F8556
S1134A909889FC0121818F859889FC018281938109
S1134AA040E0622F0E94DE2180E090E0A0E8BFE3B6
S1134AB089839A83AB83BC8320E030E04AE753E4E4
S1134AC069817A818B819C810E94512ADC01CB010E
S1134AD08D839E83AF83B88720E030E040E85FE3B6
S1134AE06D817E818F8198850E94CB2988232CF447
S1134AF081E090E09A8789873EC020E03FEF4FE74E
S1134B0057E46D817E818F8198850E944C2A181606
S1134B1044F520E030E040E251E469817A818B8100
S1134B209C810E94512ADC01CB01BC01CD010E9471
S1134B30D029DC01CB019A87898789859A85892BBD
S1134B4021F189E190E09C878B878B859C85019777
S1134B50F1F79C878B8789859A8501979A8789873E
S1134B60ECCF6D817E818F8198850E94D029DC01F4
S1134B70CB019A87898789859A859E878D878D85BC
S1134B809E850197F1F79E878D878F859889FC0113
S1134B9021818F859889FC018281938141E0622F74
S1134BA00E94DE21000063960FB6F894DEBF0FBEAC
S1134BB0CDBFDF91CF910895CF93DF9300D0CDB7D0
S1134BC0DEB79A83898300000F900F90DF91CF9115
S1134BD008958F929F92AF92BF92CF92DF92EF92FD
S1134BE0FF920F931F93CF93DF93CDB7DEB76097F8
S1134BF00FB6F894DEBF0FBECDBF9A8389837C8342
S1134C006B835E834D832F83088789869A86AB8660
S1134C10BC86CD86DE86EF86F88A89859A85AB8543
S1134C20BC85E981FA814D815E816B817C817C0147
S1134C308D012F81CF010E949E2489819A8128852C
S1134C40FC012487000060960FB6F894DEBF0FBE07
S1134C50CDBFDF91CF911F910F91FF90EF90DF9027
S1134C60CF90BF90AF909F908F900895CF93DF9394
S1134C7000D0CDB7DEB79A83898389819A810E9457
S1134C80DC2500000F900F90DF91CF910895CF9312
S1134C90DF93CDB7DEB727970FB6F894DEBF0FBE0C
S1134CA0CDBF8F8387E491E09E838D838F8188239A
S1134CB029F48FEB91E09A83898312C08F8181302C
S1134CC029F487EC91E09A8389830AC08F8182302A
S1134CD029F48FEC91E09A83898302C085E61DC094
S1134CE01C821B828B819C818F3F9F41A8F42B8166
S1134CF03C8189819A81B9010E946F24482F2B81BC
S1134D003C818D819E81B9010E9416258B819C81F5
S1134D1001969C838B83E6CF84E727960FB6F8949D
S1134D20DEBF0FBECDBFDF91CF910895CF93DF9348
S1134D30CDB7DEB72C970FB6F894DEBF0FBECDBF4C
S1134D40198282E290E0FC0110826FEF88E191E029
S1134D500E948A216FEF88E191E00E94B42160E013
S1134D6088E191E00E949F2160E088E191E00E9447
S1134D70C92183E591E0909327038093260383EB75
S1134D8091E0909329038093280387EE91E0909318
S1134D902B0380932A0387EF91E090932D03809354
S1134DA02C0387E092E090932F0380932E0361E01D
S1134DB070E084E190E00E94F82A9D838C838C81CA
S1134DC09D8121E1E6E0F1E0DC0101900D922A955C
S1134DD0E1F78C819D8160E270E00E945F2C9F83EB
S1134DE08E832E813F818C819D81A901481B590BA3
S1134DF0CA010E94142B998788871B821A822E81EC
S1134E003F818C819D81281B390B8A819B8182176C
S1134E109307B4F48A819B8128853985820F931F77
S1134E202A813B814C815D81240F351FF90120814A
S1134E30FC0120838A819B8101969B838A83DFCF37
S1134E408885998568E970E00E94352C892B31F4B6
S1134E5089E192E00E94CF0389834BC088859985BC
S1134E606BE970E00E94352C892B31F489E192E0E2
S1134E700E94CF0389833DC0888599856EEA70E0DE
S1134E800E94352C892BA9F18885998569EA70E0FF
S1134E900E94352C892B69F58C819D816FE970E026
S1134EA00E943E2C892B29F11C861B86CE010B9671
S1134EB0292F2F938F9381EB90E0892F8F9381EB90
S1134EC090E08F938D818F938C818F930E946A2CB5
S1134ED00F900F900F900F900F900F9082E290E040
S1134EE02B853C85FC0120838B859C850E9447266D
S1134EF08A878981882331F189818236E1F480911E
S1134F0019028430F9F480911A028823D9F080912F
S1134F101A028A30B8F480911A02882F90E0880F20
S1134F20991F8D539F4FFC0180819181909327039A
S1134F308093260307C08981853621F489E192E0B4
S1134F400E94C120888599850E94AC2B8C819D810B
S1134F500E94AC2B2CCF8F929F92AF92BF92CF9294
S1134F60DF92EF92FF920F931F93CF93DF9300D0C2
S1134F7000D0CDB7DEB79A8389837C836B83898124
S1134F809A81019709F069C18B819C81019609F08E
S1134F9064C188E191E00E94582108E111E026E211
S1134FA047E268E289E191E00E947C2208E111E095
S1134FB023E244E265E286E291E00E947C220F2E25
S1134FC0F1E2EF2EF02D02E223E048E151E066E247
S1134FD071E083E391E00E949900E12CF12C8701B8
S1134FE021E049E151E068E171E08BE391E00E9446
S1134FF09E24E12C10E2F12E00E010E021E049E1D2
S113500051E068E171E087E491E00E949E24E12C84
S113501010E4F12E00E010E021E049E151E068E104
S113502071E083E591E00E949E24E12C10E6F12ECC
S113503000E010E021E049E151E068E171E08FE532
S113504091E00E949E24E12C10E8F12E00E010E093
S113505021E049E151E068E171E08BE691E00E94D2
S11350609E24E12C10EAF12E00E010E021E049E159
S113507051E068E171E087E791E00E949E24E12C11
S113508010ECF12E00E010E021E049E151E068E18C
S113509071E083E891E00E949E24E12C10EEF12E51
S11350A000E010E021E049E151E068E171E08FE8BF
S11350B091E00E949E24E12CF12C01E010E021E01B
S11350C049E151E068E171E08BE991E00E949E249E
S11350D0E12C10E2F12E01E010E021E049E151E081
S11350E068E171E087EA91E00E949E24E12C10E4DB
S11350F0F12E01E010E021E049E151E068E171E0C6
S113510083EB91E00E949E24C12C0F2EF0E6DF2E4B
S1135110F02DEE24E394F12C00E010E020E030E0E8
S113512049E151E068E171E08FEB91E00E942724AE
S1135130C12C6894DD24D7F8EE24E394F12C00E02C
S113514010E020E030E049E151E068E171E087ECF3
S113515091E00E942724C12C0F2EF0EADF2EF02DBF
S1135160EE24E394F12C00E010E020E030E049E18B
S113517051E068E171E08FEC91E00E942724C12C9A
S11351800F2EF0ECDF2EF02DEE24E394F12C00E052
S113519010E020E030E049E151E068E171E087EDA2
S11351A091E00E942724C12C0F2EF0EEDF2EF02D6B
S11351B0EE24E394F12C00E010E020E030E049E13B
S11351C051E068E171E08FED91E00E942724812C89
S11351D0912CA12CB12CC12CD12CE12CF12C02E06E
S11351E021E049E151E068E171E087EE91E00E943D
S11351F0E925812C6894992495F8A12CB12CC12C13
S1135200D12CE12CF12C02E021E049E151E068E1EC
S113521071E087EF91E00E94E925812C689499243C
S113522096F8A12CB12CC12CD12CE12CF12C02E04C
S113523021E049E151E068E171E087E092E00E94F9
S1135240E92587E192E00E941D2189E192E00E9414
S11352506C028BE393E00E94372189819A81892B28
S113526009F06DC08B819C81019609F068C08BE3C5
S113527093E00E944B2189E192E00E94E62087E1BD
S113528092E00E942A2187E092E00E94362687EF6E
S113529091E00E94362687EE91E00E9436268FED3B
S11352A091E00E94912487ED91E00E9491248FEC7B
S11352B091E00E94912487EC91E00E9491248FEB6D
S11352C091E00E94912483EB91E00E94DC2587EA1F
S11352D091E00E94DC258BE991E00E94DC258FE8B7
S11352E091E00E94DC2583E891E00E94DC2587E7B9
S11352F091E00E94DC258BE691E00E94DC258FE59D
S113530091E00E94DC2583E591E00E94DC2587E49E
S113531091E00E94DC258BE391E00E94DC2583E38D
S113532091E00E94D70086E291E00E941A2489E16C
S113533091E00E941A2488E191E00E946F2200000B
S11353400F900F900F900F90DF91CF911F910F91BD
S1135350FF90EF90DF90CF90BF90AF909F908F9091
S11353600895CF93DF93CDB7DEB76FEF7FEF81E082
S113537090E00E94AB27DF91CF910895CF93DF9304
S1135380CDB7DEB76FEF7FEF80E090E00E94AB27F0
S1135390DF91CF9108950E94FF2908F481E00895D8
S11353A00E942B2A88F09F5798F0B92F9927B7515C
S11353B0B0F0E1F0660F771F881F991F1AF0BA95B5
S11353C0C9F714C0B13091F00E94452AB1E00895A4
S11353D00C94452A672F782F8827B85F39F0B93F96
S11353E0CCF3869577956795B395D9F73EF4909568
S11353F08095709561957F4F8F4F9F4F0895990FBA
S11354000008550FAA0BE0E8FEEF16161706E8078A
S1135410F907C0F012161306E407F50798F0621BAB
S1135420730B840B950B39F40A2661F0232B242B80
S1135430252B21F408950A2609F4A140A6958FEF9F
S1135440811D811D089557FD9058440F551F59F033
S11354505F3F71F04795880F97FB991F61F09F3F5D
S113546079F087950895121613061406551FF2CF86
S11354704695F1DF08C0161617061806991FF1CFD6
S113548086957105610508940895E894BB276627FD
S11354907727CB0197F908950E94FF2908F48FEF2D
S11354A008950E94642A0C94D52A0E94C72A38F0D1
S11354B00E94CE2A20F0952311F00C94BE2A0C945D
S11354C0C42A11240C94462A0E94232A70F3959F1F
S11354D0C1F3950F50E0551F629FF001729FBB27E7
S11354E0F00DB11D639FAA27F00DB11DAA1F649F83
S11354F06627B00DA11D661F829F2227B00DA11D36
S1135500621F739FB00DA11D621F839FA00D611DBB
S1135510221F749F3327A00D611D231F849F600DDC
S1135520211D822F762F6A2F11249F5750409AF005
S1135530F1F088234AF0EE0FFF1FBB1F661F771F91
S1135540881F91505040A9F79E3F510580F00C945C
S1135550BE2A0C94462A5F3FE4F3983ED4F3869522
S113556077956795B795F795E7959F5FC1F7FE2BFC
S1135570880F911D9695879597F9089597F99F67D8
S113558080E870E060E008959FEF80EC08950024C7
S11355900A941616170618060906089500240A9494
S11355A012161306140605060895092E0394000C1A
S11355B011F4882352F0BB0F40F4BF2B11F460FFA9
S11355C004C06F5F7F4F8F4F9F4F0895991B79E001
S11355D004C0991F961708F0961B881F7A95C9F77F
S11355E080950895EE0FFF1F0590F491E02D099426
S11355F00F931F93CF93DF93869F8001879F100D96
S1135600969F100D1124C8010E94142BEC010097E1
S113561029F0A80160E070E00E94582CCE01DF91CF
S1135620CF911F910F9108950F931F93CF93DF9301
S11356308230910510F482E090E0E0914B03F09108
S11356404C0320E030E0A0E0B0E0309719F1408155
S113565051810281138148175907C8F084179507AF
S113566069F4109731F012960C93129713961C93C9
S113567027C000934B0310934C0322C0211531051E
S113568019F04217530718F49A01BD01EF01DF0125
S1135690F801DBCF21153105F9F0281B390B243033
S11356A0310580F48A819B816115710521F0FB012C
S11356B09383828304C090934C0380934B03FE0135
S11356C0329644C0FE01E20FF31F8193919322505E
S11356D03109398328833AC02091490330914A0320
S11356E0232B41F4209102013091030130934A03AA
S11356F020934903209100013091010121153105C6
S113570041F42DB73EB74091040150910501241B8B
S1135710350BE0914903F0914A03E217F307A0F433
S11357202E1B3F0B2817390778F0AC014E5F5F4FF3
S11357302417350748F04E0F5F1F50934A034093D8
S113574049038193919302C0E0E0F0E0CF01DF913F
S1135750CF911F910F910895CF93DF93009709F490
S113576081C0FC01329713821282A0914B03B09145
S11357704C03109781F420813181820F931F209173
S1135780490330914A032817390751F5F0934A0326
S1135790E093490367C0ED0120E030E0CE17DF0756
S11357A040F44A815B819E0141155105F1F0EA0103
S11357B0F5CFD383C28340815181840F951FC817CD
S11357C0D90759F488819981840F951F0296918392
S11357D080838A819B81938382832115310529F4F7
S11357E0F0934C03E0934B033DC0E901FB83EA8350
S11357F049915991C40FD51FEC17FD0761F48081BD
S11358009181840F951F0296E9019983888382818F
S113581093819B838A83E0E0F0E012968D919C91C2
S11358201397009719F0FD01DC01F7CF8D919C913E
S113583011979D012E5F3F4F820F931F20914903C3
S113584030914A032817390769F4309729F41092E4
S11358504C0310924B0302C013821282B0934A038A
S1135860A0934903DF91CF910895FB01DC018D9151
S1135870059080190110D9F3990B0895FB015591F6
S11358805523A9F0BF01DC014D9145174111E1F702
S113589059F4CD010590002049F04D914015411176
S11358A0C9F3FB014111EFCF81E090E00197089526
S11358B0DC0101C06D9341505040E0F70895FC01B4
S11358C08191861721F08823D9F799270895319774
S11358D0CF010895AEE0B0E0E0E7FCE20C94AE2F17
S11358E08DE08C838B899C899A838983AE01495E80
S11358F05F4F6D897E89CE0101960E941F2E2E96E0
S1135900E2E00C94CA2F20FD09C0FC0123FD05C070
S113591022FF02C07383628351834083089544FD50
S113592017C046FD17C0AB01BC01DA01FB01AA0F89
S1135930BB1FEE1FFF1F1094D1F74A0F5B1F6E1F92
S11359407F1FCB01BA01660F771F881F991F09C0FB
S113595033E001C034E0660F771F881F991F315070
S1135960D1F7620F711D811D911D08950F931F932F
S1135970CF93DF938C01C8010E94442FEC0197FD63
S113598008C00E94302F892BB1F7B801CE010E94C4
S1135990822FCE01DF91CF911F910F9108958F92A5
S11359A09F92AF92BF92EF92FF920F931F93CF9368
S11359B0DF938C01D62F7A01B22E0E94442F9C01D2
S11359C033272B32310531F02D32310561F48B2D23
S11359D08068B82ED15011F480E068C0C8010E94DC
S11359E0442F97FDF9CFCB2DCD7F2B2D207309F5B7
S11359F08033F9F4AA24AA94AD0E09F443C0C80173
S1135A000E94442F97FD3EC09C012F7D33272835EB
S1135A10310549F4C264D250A9F1C8010E94442F4F
S1135A2097FF07C02FC0B6FE02C0C26001C0C261AA
S1135A30DA2D812C912C540120ED280F283080F090
S1135A40C4FF04C0B8010E94822F19C02A3040F05C
S1135A50C6FFF8CF2F7D3FEE320F363098F7275030
S1135A604C2FC501B4010E948F2C4B015C01C26014
S1135A70D15059F0C8010E94442F97FFDDCFC1FDDA
S1135A8004C0AACF812C912C5401C7FF08C0B09444
S1135A90A09490948094811C911CA11CB11C2C2F67
S1135AA0B501A401C7010E94832C81E0DF91CF914D
S1135AB01F910F91FF90EF90BF90AF909F908F90A8
S1135AC00895A0E2B0E0E7E6FDE20C94A12F5C01AA
S1135AD0962E7A01F9018E010F5F1F4F680180E253
S1135AE0D8011D928A95E9F7D50113968C9080E030
S1135AF090E0612C712C30E061E070E083FC259132
S1135B0083FE21918F01522E211103C080E090E089
S1135B1092C02E3511F4009751F1432F50E04817ED
S1135B2059073CF42D3559F12D3219F4772009F138
S1135B3003C0772009F46AC0452D469546954695DD
S1135B40D601A40FB11D452D47708B0102C0000F73
S1135B50111F4A95E2F7A8015C91452B4C936514FB
S1135B6059F0561410F45394E7CF5A94E5CF31E02A
S1135B7004C07724739401C0712C0196BFCF7720A1
S1135B8019F08E8180628E83311103C0882483943E
S1135B9017C0F6019E012F5D3F4F80818095819350
S1135BA02E173F07D1F7F2CFE114F10429F0D70102
S1135BB08C93F70131967F019A94812C9920F9F006
S1135BC0C5010E94442F97FD18C0FC01FF2723E064
S1135BD0F595E7952A95E1F7EC0DFD1D208130E060
S1135BE0AC014770552702C0359527954A95E2F7D1
S1135BF020FDDACFB5010E94822F811087CFE114F6
S1135C00F10411F0D7011C92C80115C0422F46952A
S1135C1046954695D601A40FB11D422F47708B01BE
S1135C2002C0000F111F4A95E2F7A8015C91452BB1
S1135C304C93622EA2CFA096EFE00C94BD2FA0E06F
S1135C40B0E0E5E2FEE20C94A12F6C01EB015A01F5
S1135C50FC0117821682512CF601E380FE01E3FC5D
S1135C608591E3FE8191182FEF01882309F4EEC09A
S1135C7090E00E94302F892B21F0C6010E94B62C9F
S1135C80EBCF153241F4FE01E3FC1591E3FE1191D3
S1135C90EF01153281F4C6010E94442F97FDD4C050
S1135CA0412F50E09C01332724173507A9F2B60190
S1135CB00E94822FCBC01A3239F4E3FC1591E3FE23
S1135CC01191EF0101E001C000E0F12C20ED210F62
S1135CD02A3080F402606F2D70E080E090E040E2B2
S1135CE00E948F2CF62EFE01E3FC1591E3FE119128
