S00D0000616C746F732E73726563F4
S11300000C9438000C944A000C944A000C944A0056
S11300100C944A000C944A000C944A000C944A0034
S11300200C944A000C944A000C944A000C944A0024
S11300300C944A000C944A000C944A000C944A0014
S11300400C944A000C944A000C944A000C944A0004
S11300500C944A000C944A000C944A000C944A00F4
S11300600C944A000C944A000C944A000C944A00E4
S113007011241FBECFEFD0E1DEBFCDBF21E0A0E051
S1130080B1E001C01D92A030B207E1F70E944C001C
S11300900C9451000C94000085B18130E9F785B1CE
S10900A0FBCFF894FFCF32
S9030000FC
